{
  "contractName": "LimitOrderProtocol",
  "abi": [
    {
      "inputs": [
        {
          "internalType": "contract IWETH",
          "name": "_weth",
          "type": "address"
        }
      ],
      "stateMutability": "nonpayable",
      "type": "constructor"
    },
    {
      "inputs": [],
      "name": "AdvanceEpochFailed",
      "type": "error"
    },
    {
      "inputs": [],
      "name": "ArbitraryStaticCallFailed",
      "type": "error"
    },
    {
      "inputs": [],
      "name": "BadSignature",
      "type": "error"
    },
    {
      "inputs": [],
      "name": "BitInvalidatedOrder",
      "type": "error"
    },
    {
      "inputs": [],
      "name": "ETHTransferFailed",
      "type": "error"
    },
    {
      "inputs": [],
      "name": "EnforcedPause",
      "type": "error"
    },
    {
      "inputs": [],
      "name": "EpochManagerAndBitInvalidatorsAreIncompatible",
      "type": "error"
    },
    {
      "inputs": [],
      "name": "EthDepositRejected",
      "type": "error"
    },
    {
      "inputs": [],
      "name": "ExpectedPause",
      "type": "error"
    },
    {
      "inputs": [],
      "name": "InvalidMsgValue",
      "type": "error"
    },
    {
      "inputs": [],
      "name": "InvalidPermit2Transfer",
      "type": "error"
    },
    {
      "inputs": [],
      "name": "InvalidShortString",
      "type": "error"
    },
    {
      "inputs": [],
      "name": "InvalidatedOrder",
      "type": "error"
    },
    {
      "inputs": [],
      "name": "MakingAmountTooLow",
      "type": "error"
    },
    {
      "inputs": [],
      "name": "MismatchArraysLengths",
      "type": "error"
    },
    {
      "inputs": [],
      "name": "OrderExpired",
      "type": "error"
    },
    {
      "inputs": [],
      "name": "OrderIsNotSuitableForMassInvalidation",
      "type": "error"
    },
    {
      "inputs": [
        {
          "internalType": "address",
          "name": "owner",
          "type": "address"
        }
      ],
      "name": "OwnableInvalidOwner",
      "type": "error"
    },
    {
      "inputs": [
        {
          "internalType": "address",
          "name": "account",
          "type": "address"
        }
      ],
      "name": "OwnableUnauthorizedAccount",
      "type": "error"
    },
    {
      "inputs": [],
      "name": "PartialFillNotAllowed",
      "type": "error"
    },
    {
      "inputs": [],
      "name": "Permit2TransferAmountTooHigh",
      "type": "error"
    },
    {
      "inputs": [],
      "name": "PredicateIsNotTrue",
      "type": "error"
    },
    {
      "inputs": [],
      "name": "PrivateOrder",
      "type": "error"
    },
    {
      "inputs": [],
      "name": "ReentrancyDetected",
      "type": "error"
    },
    {
      "inputs": [],
      "name": "RemainingInvalidatedOrder",
      "type": "error"
    },
    {
      "inputs": [],
      "name": "SafeTransferFailed",
      "type": "error"
    },
    {
      "inputs": [],
      "name": "SafeTransferFromFailed",
      "type": "error"
    },
    {
      "inputs": [
        {
          "internalType": "bool",
          "name": "success",
          "type": "bool"
        },
        {
          "internalType": "bytes",
          "name": "res",
          "type": "bytes"
        }
      ],
      "name": "SimulationResults",
      "type": "error"
    },
    {
      "inputs": [
        {
          "internalType": "string",
          "name": "str",
          "type": "string"
        }
      ],
      "name": "StringTooLong",
      "type": "error"
    },
    {
      "inputs": [],
      "name": "SwapWithZeroAmount",
      "type": "error"
    },
    {
      "inputs": [],
      "name": "TakingAmountExceeded",
      "type": "error"
    },
    {
      "inputs": [],
      "name": "TakingAmountTooHigh",
      "type": "error"
    },
    {
      "inputs": [],
      "name": "TransferFromMakerToTakerFailed",
      "type": "error"
    },
    {
      "inputs": [],
      "name": "TransferFromTakerToMakerFailed",
      "type": "error"
    },
    {
      "inputs": [],
      "name": "WrongSeriesNonce",
      "type": "error"
    },
    {
      "anonymous": false,
      "inputs": [
        {
          "indexed": true,
          "internalType": "address",
          "name": "maker",
          "type": "address"
        },
        {
          "indexed": false,
          "internalType": "uint256",
          "name": "slotIndex",
          "type": "uint256"
        },
        {
          "indexed": false,
          "internalType": "uint256",
          "name": "slotValue",
          "type": "uint256"
        }
      ],
      "name": "BitInvalidatorUpdated",
      "type": "event"
    },
    {
      "anonymous": false,
      "inputs": [],
      "name": "EIP712DomainChanged",
      "type": "event"
    },
    {
      "anonymous": false,
      "inputs": [
        {
          "indexed": true,
          "internalType": "address",
          "name": "maker",
          "type": "address"
        },
        {
          "indexed": false,
          "internalType": "uint256",
          "name": "series",
          "type": "uint256"
        },
        {
          "indexed": false,
          "internalType": "uint256",
          "name": "newEpoch",
          "type": "uint256"
        }
      ],
      "name": "EpochIncreased",
      "type": "event"
    },
    {
      "anonymous": false,
      "inputs": [
        {
          "indexed": false,
          "internalType": "bytes32",
          "name": "orderHash",
          "type": "bytes32"
        }
      ],
      "name": "OrderCancelled",
      "type": "event"
    },
    {
      "anonymous": false,
      "inputs": [
        {
          "indexed": false,
          "internalType": "bytes32",
          "name": "orderHash",
          "type": "bytes32"
        },
        {
          "indexed": false,
          "internalType": "uint256",
          "name": "remainingAmount",
          "type": "uint256"
        }
      ],
      "name": "OrderFilled",
      "type": "event"
    },
    {
      "anonymous": false,
      "inputs": [
        {
          "indexed": true,
          "internalType": "address",
          "name": "previousOwner",
          "type": "address"
        },
        {
          "indexed": true,
          "internalType": "address",
          "name": "newOwner",
          "type": "address"
        }
      ],
      "name": "OwnershipTransferred",
      "type": "event"
    },
    {
      "anonymous": false,
      "inputs": [
        {
          "indexed": false,
          "internalType": "address",
          "name": "account",
          "type": "address"
        }
      ],
      "name": "Paused",
      "type": "event"
    },
    {
      "anonymous": false,
      "inputs": [
        {
          "indexed": false,
          "internalType": "address",
          "name": "account",
          "type": "address"
        }
      ],
      "name": "Unpaused",
      "type": "event"
    },
    {
      "inputs": [
        {
          "internalType": "uint96",
          "name": "series",
          "type": "uint96"
        },
        {
          "internalType": "uint256",
          "name": "amount",
          "type": "uint256"
        }
      ],
      "name": "advanceEpoch",
      "outputs": [],
      "stateMutability": "nonpayable",
      "type": "function"
    },
    {
      "inputs": [
        {
          "internalType": "uint256",
          "name": "offsets",
          "type": "uint256"
        },
        {
          "internalType": "bytes",
          "name": "data",
          "type": "bytes"
        }
      ],
      "name": "and",
      "outputs": [
        {
          "internalType": "bool",
          "name": "",
          "type": "bool"
        }
      ],
      "stateMutability": "view",
      "type": "function",
      "constant": true
    },
    {
      "inputs": [
        {
          "internalType": "address",
          "name": "target",
          "type": "address"
        },
        {
          "internalType": "bytes",
          "name": "data",
          "type": "bytes"
        }
      ],
      "name": "arbitraryStaticCall",
      "outputs": [
        {
          "internalType": "uint256",
          "name": "",
          "type": "uint256"
        }
      ],
      "stateMutability": "view",
      "type": "function",
      "constant": true
    },
    {
      "inputs": [
        {
          "internalType": "address",
          "name": "maker",
          "type": "address"
        },
        {
          "internalType": "uint256",
          "name": "slot",
          "type": "uint256"
        }
      ],
      "name": "bitInvalidatorForOrder",
      "outputs": [
        {
          "internalType": "uint256",
          "name": "",
          "type": "uint256"
        }
      ],
      "stateMutability": "view",
      "type": "function",
      "constant": true
    },
    {
      "inputs": [
        {
          "internalType": "MakerTraits",
          "name": "makerTraits",
          "type": "uint256"
        },
        {
          "internalType": "uint256",
          "name": "additionalMask",
          "type": "uint256"
        }
      ],
      "name": "bitsInvalidateForOrder",
      "outputs": [],
      "stateMutability": "nonpayable",
      "type": "function"
    },
    {
      "inputs": [
        {
          "internalType": "MakerTraits",
          "name": "makerTraits",
          "type": "uint256"
        },
        {
          "internalType": "bytes32",
          "name": "orderHash",
          "type": "bytes32"
        }
      ],
      "name": "cancelOrder",
      "outputs": [],
      "stateMutability": "nonpayable",
      "type": "function"
    },
    {
      "inputs": [
        {
          "internalType": "MakerTraits[]",
          "name": "makerTraits",
          "type": "uint256[]"
        },
        {
          "internalType": "bytes32[]",
          "name": "orderHashes",
          "type": "bytes32[]"
        }
      ],
      "name": "cancelOrders",
      "outputs": [],
      "stateMutability": "nonpayable",
      "type": "function"
    },
    {
      "inputs": [
        {
          "internalType": "bytes",
          "name": "predicate",
          "type": "bytes"
        }
      ],
      "name": "checkPredicate",
      "outputs": [
        {
          "internalType": "bool",
          "name": "",
          "type": "bool"
        }
      ],
      "stateMutability": "view",
      "type": "function",
      "constant": true
    },
    {
      "inputs": [],
      "name": "eip712Domain",
      "outputs": [
        {
          "internalType": "bytes1",
          "name": "fields",
          "type": "bytes1"
        },
        {
          "internalType": "string",
          "name": "name",
          "type": "string"
        },
        {
          "internalType": "string",
          "name": "version",
          "type": "string"
        },
        {
          "internalType": "uint256",
          "name": "chainId",
          "type": "uint256"
        },
        {
          "internalType": "address",
          "name": "verifyingContract",
          "type": "address"
        },
        {
          "internalType": "bytes32",
          "name": "salt",
          "type": "bytes32"
        },
        {
          "internalType": "uint256[]",
          "name": "extensions",
          "type": "uint256[]"
        }
      ],
      "stateMutability": "view",
      "type": "function",
      "constant": true
    },
    {
      "inputs": [
        {
          "internalType": "address",
          "name": "maker",
          "type": "address"
        },
        {
          "internalType": "uint96",
          "name": "series",
          "type": "uint96"
        }
      ],
      "name": "epoch",
      "outputs": [
        {
          "internalType": "uint256",
          "name": "",
          "type": "uint256"
        }
      ],
      "stateMutability": "view",
      "type": "function",
      "constant": true
    },
    {
      "inputs": [
        {
          "internalType": "address",
          "name": "maker",
          "type": "address"
        },
        {
          "internalType": "uint256",
          "name": "series",
          "type": "uint256"
        },
        {
          "internalType": "uint256",
          "name": "makerEpoch",
          "type": "uint256"
        }
      ],
      "name": "epochEquals",
      "outputs": [
        {
          "internalType": "bool",
          "name": "",
          "type": "bool"
        }
      ],
      "stateMutability": "view",
      "type": "function",
      "constant": true
    },
    {
      "inputs": [
        {
          "internalType": "uint256",
          "name": "value",
          "type": "uint256"
        },
        {
          "internalType": "bytes",
          "name": "data",
          "type": "bytes"
        }
      ],
      "name": "eq",
      "outputs": [
        {
          "internalType": "bool",
          "name": "",
          "type": "bool"
        }
      ],
      "stateMutability": "view",
      "type": "function",
      "constant": true
    },
    {
      "inputs": [
        {
          "components": [
            {
              "internalType": "uint256",
              "name": "salt",
              "type": "uint256"
            },
            {
              "internalType": "Address",
              "name": "maker",
              "type": "uint256"
            },
            {
              "internalType": "Address",
              "name": "receiver",
              "type": "uint256"
            },
            {
              "internalType": "Address",
              "name": "makerAsset",
              "type": "uint256"
            },
            {
              "internalType": "Address",
              "name": "takerAsset",
              "type": "uint256"
            },
            {
              "internalType": "uint256",
              "name": "makingAmount",
              "type": "uint256"
            },
            {
              "internalType": "uint256",
              "name": "takingAmount",
              "type": "uint256"
            },
            {
              "internalType": "MakerTraits",
              "name": "makerTraits",
              "type": "uint256"
            }
          ],
          "internalType": "struct IOrderMixin.Order",
          "name": "order",
          "type": "tuple"
        },
        {
          "internalType": "bytes",
          "name": "signature",
          "type": "bytes"
        },
        {
          "internalType": "uint256",
          "name": "amount",
          "type": "uint256"
        },
        {
          "internalType": "TakerTraits",
          "name": "takerTraits",
          "type": "uint256"
        }
      ],
      "name": "fillContractOrder",
      "outputs": [
        {
          "internalType": "uint256",
          "name": "",
          "type": "uint256"
        },
        {
          "internalType": "uint256",
          "name": "",
          "type": "uint256"
        },
        {
          "internalType": "bytes32",
          "name": "",
          "type": "bytes32"
        }
      ],
      "stateMutability": "nonpayable",
      "type": "function"
    },
    {
      "inputs": [
        {
          "components": [
            {
              "internalType": "uint256",
              "name": "salt",
              "type": "uint256"
            },
            {
              "internalType": "Address",
              "name": "maker",
              "type": "uint256"
            },
            {
              "internalType": "Address",
              "name": "receiver",
              "type": "uint256"
            },
            {
              "internalType": "Address",
              "name": "makerAsset",
              "type": "uint256"
            },
            {
              "internalType": "Address",
              "name": "takerAsset",
              "type": "uint256"
            },
            {
              "internalType": "uint256",
              "name": "makingAmount",
              "type": "uint256"
            },
            {
              "internalType": "uint256",
              "name": "takingAmount",
              "type": "uint256"
            },
            {
              "internalType": "MakerTraits",
              "name": "makerTraits",
              "type": "uint256"
            }
          ],
          "internalType": "struct IOrderMixin.Order",
          "name": "order",
          "type": "tuple"
        },
        {
          "internalType": "bytes",
          "name": "signature",
          "type": "bytes"
        },
        {
          "internalType": "uint256",
          "name": "amount",
          "type": "uint256"
        },
        {
          "internalType": "TakerTraits",
          "name": "takerTraits",
          "type": "uint256"
        },
        {
          "internalType": "bytes",
          "name": "args",
          "type": "bytes"
        }
      ],
      "name": "fillContractOrderArgs",
      "outputs": [
        {
          "internalType": "uint256",
          "name": "",
          "type": "uint256"
        },
        {
          "internalType": "uint256",
          "name": "",
          "type": "uint256"
        },
        {
          "internalType": "bytes32",
          "name": "",
          "type": "bytes32"
        }
      ],
      "stateMutability": "nonpayable",
      "type": "function"
    },
    {
      "inputs": [
        {
          "components": [
            {
              "internalType": "uint256",
              "name": "salt",
              "type": "uint256"
            },
            {
              "internalType": "Address",
              "name": "maker",
              "type": "uint256"
            },
            {
              "internalType": "Address",
              "name": "receiver",
              "type": "uint256"
            },
            {
              "internalType": "Address",
              "name": "makerAsset",
              "type": "uint256"
            },
            {
              "internalType": "Address",
              "name": "takerAsset",
              "type": "uint256"
            },
            {
              "internalType": "uint256",
              "name": "makingAmount",
              "type": "uint256"
            },
            {
              "internalType": "uint256",
              "name": "takingAmount",
              "type": "uint256"
            },
            {
              "internalType": "MakerTraits",
              "name": "makerTraits",
              "type": "uint256"
            }
          ],
          "internalType": "struct IOrderMixin.Order",
          "name": "order",
          "type": "tuple"
        },
        {
          "internalType": "bytes32",
          "name": "r",
          "type": "bytes32"
        },
        {
          "internalType": "bytes32",
          "name": "vs",
          "type": "bytes32"
        },
        {
          "internalType": "uint256",
          "name": "amount",
          "type": "uint256"
        },
        {
          "internalType": "TakerTraits",
          "name": "takerTraits",
          "type": "uint256"
        }
      ],
      "name": "fillOrder",
      "outputs": [
        {
          "internalType": "uint256",
          "name": "",
          "type": "uint256"
        },
        {
          "internalType": "uint256",
          "name": "",
          "type": "uint256"
        },
        {
          "internalType": "bytes32",
          "name": "",
          "type": "bytes32"
        }
      ],
      "stateMutability": "payable",
      "type": "function",
      "payable": true
    },
    {
      "inputs": [
        {
          "components": [
            {
              "internalType": "uint256",
              "name": "salt",
              "type": "uint256"
            },
            {
              "internalType": "Address",
              "name": "maker",
              "type": "uint256"
            },
            {
              "internalType": "Address",
              "name": "receiver",
              "type": "uint256"
            },
            {
              "internalType": "Address",
              "name": "makerAsset",
              "type": "uint256"
            },
            {
              "internalType": "Address",
              "name": "takerAsset",
              "type": "uint256"
            },
            {
              "internalType": "uint256",
              "name": "makingAmount",
              "type": "uint256"
            },
            {
              "internalType": "uint256",
              "name": "takingAmount",
              "type": "uint256"
            },
            {
              "internalType": "MakerTraits",
              "name": "makerTraits",
              "type": "uint256"
            }
          ],
          "internalType": "struct IOrderMixin.Order",
          "name": "order",
          "type": "tuple"
        },
        {
          "internalType": "bytes32",
          "name": "r",
          "type": "bytes32"
        },
        {
          "internalType": "bytes32",
          "name": "vs",
          "type": "bytes32"
        },
        {
          "internalType": "uint256",
          "name": "amount",
          "type": "uint256"
        },
        {
          "internalType": "TakerTraits",
          "name": "takerTraits",
          "type": "uint256"
        },
        {
          "internalType": "bytes",
          "name": "args",
          "type": "bytes"
        }
      ],
      "name": "fillOrderArgs",
      "outputs": [
        {
          "internalType": "uint256",
          "name": "",
          "type": "uint256"
        },
        {
          "internalType": "uint256",
          "name": "",
          "type": "uint256"
        },
        {
          "internalType": "bytes32",
          "name": "",
          "type": "bytes32"
        }
      ],
      "stateMutability": "payable",
      "type": "function",
      "payable": true
    },
    {
      "inputs": [
        {
          "internalType": "uint256",
          "name": "value",
          "type": "uint256"
        },
        {
          "internalType": "bytes",
          "name": "data",
          "type": "bytes"
        }
      ],
      "name": "gt",
      "outputs": [
        {
          "internalType": "bool",
          "name": "",
          "type": "bool"
        }
      ],
      "stateMutability": "view",
      "type": "function",
      "constant": true
    },
    {
      "inputs": [
        {
          "components": [
            {
              "internalType": "uint256",
              "name": "salt",
              "type": "uint256"
            },
            {
              "internalType": "Address",
              "name": "maker",
              "type": "uint256"
            },
            {
              "internalType": "Address",
              "name": "receiver",
              "type": "uint256"
            },
            {
              "internalType": "Address",
              "name": "makerAsset",
              "type": "uint256"
            },
            {
              "internalType": "Address",
              "name": "takerAsset",
              "type": "uint256"
            },
            {
              "internalType": "uint256",
              "name": "makingAmount",
              "type": "uint256"
            },
            {
              "internalType": "uint256",
              "name": "takingAmount",
              "type": "uint256"
            },
            {
              "internalType": "MakerTraits",
              "name": "makerTraits",
              "type": "uint256"
            }
          ],
          "internalType": "struct IOrderMixin.Order",
          "name": "order",
          "type": "tuple"
        }
      ],
      "name": "hashOrder",
      "outputs": [
        {
          "internalType": "bytes32",
          "name": "",
          "type": "bytes32"
        }
      ],
      "stateMutability": "view",
      "type": "function",
      "constant": true
    },
    {
      "inputs": [
        {
          "internalType": "uint96",
          "name": "series",
          "type": "uint96"
        }
      ],
      "name": "increaseEpoch",
      "outputs": [],
      "stateMutability": "nonpayable",
      "type": "function"
    },
    {
      "inputs": [
        {
          "internalType": "uint256",
          "name": "value",
          "type": "uint256"
        },
        {
          "internalType": "bytes",
          "name": "data",
          "type": "bytes"
        }
      ],
      "name": "lt",
      "outputs": [
        {
          "internalType": "bool",
          "name": "",
          "type": "bool"
        }
      ],
      "stateMutability": "view",
      "type": "function",
      "constant": true
    },
    {
      "inputs": [
        {
          "internalType": "bytes",
          "name": "data",
          "type": "bytes"
        }
      ],
      "name": "not",
      "outputs": [
        {
          "internalType": "bool",
          "name": "",
          "type": "bool"
        }
      ],
      "stateMutability": "view",
      "type": "function",
      "constant": true
    },
    {
      "inputs": [
        {
          "internalType": "uint256",
          "name": "offsets",
          "type": "uint256"
        },
        {
          "internalType": "bytes",
          "name": "data",
          "type": "bytes"
        }
      ],
      "name": "or",
      "outputs": [
        {
          "internalType": "bool",
          "name": "",
          "type": "bool"
        }
      ],
      "stateMutability": "view",
      "type": "function",
      "constant": true
    },
    {
      "inputs": [],
      "name": "owner",
      "outputs": [
        {
          "internalType": "address",
          "name": "",
          "type": "address"
        }
      ],
      "stateMutability": "view",
      "type": "function",
      "constant": true
    },
    {
      "inputs": [],
      "name": "paused",
      "outputs": [
        {
          "internalType": "bool",
          "name": "",
          "type": "bool"
        }
      ],
      "stateMutability": "view",
      "type": "function",
      "constant": true
    },
    {
      "inputs": [
        {
          "internalType": "bytes",
          "name": "permit",
          "type": "bytes"
        },
        {
          "internalType": "bytes",
          "name": "action",
          "type": "bytes"
        }
      ],
      "name": "permitAndCall",
      "outputs": [],
      "stateMutability": "payable",
      "type": "function",
      "payable": true
    },
    {
      "inputs": [
        {
          "internalType": "address",
          "name": "maker",
          "type": "address"
        },
        {
          "internalType": "bytes32",
          "name": "orderHash",
          "type": "bytes32"
        }
      ],
      "name": "rawRemainingInvalidatorForOrder",
      "outputs": [
        {
          "internalType": "uint256",
          "name": "",
          "type": "uint256"
        }
      ],
      "stateMutability": "view",
      "type": "function",
      "constant": true
    },
    {
      "inputs": [
        {
          "internalType": "address",
          "name": "maker",
          "type": "address"
        },
        {
          "internalType": "bytes32",
          "name": "orderHash",
          "type": "bytes32"
        }
      ],
      "name": "remainingInvalidatorForOrder",
      "outputs": [
        {
          "internalType": "uint256",
          "name": "",
          "type": "uint256"
        }
      ],
      "stateMutability": "view",
      "type": "function",
      "constant": true
    },
    {
      "inputs": [],
      "name": "renounceOwnership",
      "outputs": [],
      "stateMutability": "nonpayable",
      "type": "function"
    },
    {
      "inputs": [
        {
          "internalType": "address",
          "name": "target",
          "type": "address"
        },
        {
          "internalType": "bytes",
          "name": "data",
          "type": "bytes"
        }
      ],
      "name": "simulate",
      "outputs": [],
      "stateMutability": "nonpayable",
      "type": "function"
    },
    {
      "inputs": [
        {
          "internalType": "address",
          "name": "newOwner",
          "type": "address"
        }
      ],
      "name": "transferOwnership",
      "outputs": [],
      "stateMutability": "nonpayable",
      "type": "function"
    },
    {
      "stateMutability": "payable",
      "type": "receive",
      "payable": true
    },
    {
      "inputs": [],
      "name": "DOMAIN_SEPARATOR",
      "outputs": [
        {
          "internalType": "bytes32",
          "name": "",
          "type": "bytes32"
        }
      ],
      "stateMutability": "view",
      "type": "function",
      "constant": true
    },
    {
      "inputs": [],
      "name": "pause",
      "outputs": [],
      "stateMutability": "nonpayable",
      "type": "function"
    },
    {
      "inputs": [],
      "name": "unpause",
      "outputs": [],
      "stateMutability": "nonpayable",
      "type": "function"
    }
  ],
  "bytecode": "0x6101a03462000271576001600160401b0390601f62005cd338819003918201601f19168301929190848411838510176200025d5781602092849260409687528339810103126200027157516001600160a01b03918282169081830362000271578051906200006d8262000275565b601a825260208201907f31696e6368204c696d6974204f726465722050726f746f636f6c0000000000008252805196620000a78862000275565b6001885260208801600d60fa1b8152620000c18562000291565b93610120948552620000d38a6200045b565b95610140968752519020988960e05251902061010098818a524660a05283519160208301917f8b73c3c69bb8fe3d512ecc4cf759cc79239f7b179b0ffacaa9a75d522b39400f83528584015260608301524660808301523060a083015260a0825260c0820192828410908411176200025d57828452815190206080523060c05233156200024757505060038054336001600160a01b0319821681179092559151969091167f8be0079c531659141344cd1fd0a4f28419497f9722a3daafe3b4186f6b6457e05f80a36101609283526101809384526156d0958662000603873960805186614212015260a051866142de015260c051866141e3015260e0518661426101525185614287015251846129f301525183612a1c01525182603101525181818161053001528181610618015281816108d801528181610955015281816109e001528181610b0a01528181610cd4015281816117f6015281816123d5015281816131290152818161321101526133d60152f35b631e4fbdf760e01b82525f60c490910152602490fd5b634e487b7160e01b5f52604160045260245ffd5b5f80fd5b604081019081106001600160401b038211176200025d57604052565b8051602090818110156200032b5750601f825111620002cc5780825192015190808310620002be57501790565b825f19910360031b1b161790565b90604051809263305a27a960e01b82528060048301528251908160248401525f935b82851062000311575050604492505f838284010152601f80199101168101030190fd5b8481018201518686016044015293810193859350620002ee565b906001600160401b0382116200025d575f54926001938481811c9116801562000450575b838210146200043c57601f811162000406575b5081601f8411600114620003a057509282939183925f9462000394575b50501b915f199060031b1c1916175f5560ff90565b015192505f806200037f565b919083601f1981165f8052845f20945f905b88838310620003eb5750505010620003d2575b505050811b015f5560ff90565b01515f1960f88460031b161c191690555f8080620003c5565b858701518855909601959485019487935090810190620003b2565b5f805284601f845f20920160051c820191601f860160051c015b8281106200043057505062000362565b5f815501859062000420565b634e487b7160e01b5f52602260045260245ffd5b90607f16906200034f565b805160209081811015620004e75750601f825111620004885780825192015190808310620002be57501790565b90604051809263305a27a960e01b82528060048301528251908160248401525f935b828510620004cd575050604492505f838284010152601f80199101168101030190fd5b8481018201518686016044015293810193859350620004aa565b9192916001600160401b0381116200025d5760019182548381811c91168015620005f7575b828210146200043c57601f8111620005c1575b5080601f83116001146200055d5750819293945f9262000551575b50505f19600383901b1c191690821b17905560ff90565b015190505f806200053a565b90601f19831695845f52825f20925f905b888210620005a9575050838596971062000590575b505050811b01905560ff90565b01515f1960f88460031b161c191690555f808062000583565b8087859682949686015181550195019301906200056e565b835f5283601f835f20920160051c820191601f850160051c015b828110620005eb5750506200051f565b5f8155018490620005db565b90607f16906200050c56fe6080806040526004361015610083575b50361561001a575f80fd5b73ffffffffffffffffffffffffffffffffffffffff7f000000000000000000000000000000000000000000000000000000000000000016330361005957005b60046040517f1b10b0f9000000000000000000000000000000000000000000000000000000008152fd5b5f3560e01c90816305b1ea0314613bc6575080630d2c7c1614613ad0578063143e86a714613a5e57806315169dec146139ef5780633644e515146139af5780633f4ba83a146138ef578063435b97891461384e5780634f38e2b81461381d57806356a7586814612e7c5780635816d72314612daa5780635c975abb14612d675780636fe7b0ba14612d36578063715018a614612c9a5780637426114514612c81578063802b2ef114612bd75780638456cb5914612b2e57806384b0196e146129c057806389e7c650146128ef5780638da5cb5b1461289e5780639fda64bd146121c4578063b68fb02014612185578063bd61951d14612111578063bf15fcd8146120bf578063bf7979591461204a578063bfa7514314612031578063c2a4075314611fc2578063c3cf804314611f0f578063ca4ece2214611ed3578063cc713a04146115c0578063ce3d710a14611548578063f2fde38b14611468578063f497df75146102a15763fcea9e4e146101fa575f61000f565b3461029d5760407ffffffffffffffffffffffffffffffffffffffffffffffffffffffffffffffffc36011261029d57610231613cb5565b6024356bffffffffffffffffffffffff8116810361029d577fffffffffffffffffffffffff000000000000000000000000000000000000000073ffffffffffffffffffffffffffffffffffffffff9160a01b169116175f526002602052602060405f2054604051908152f35b5f80fd5b7ffffffffffffffffffffffffffffffffffffffffffffffffffffffffffffffffc36016101a0811261029d576101001361029d57610124356101843567ffffffffffffffff811161029d576102fd610307913690600401613cd8565b9061016435614355565b93946103196103146141cc565b614422565b936103238561448e565b925f9260a435851461128b575b50610339614a5c565b6103438583614ce8565b9015611284575069ffffffffffffffffffff8060e435168015918215611278575b50501561124e5764ffffffffff8060e43560501c168015159081611244575b5061121a577f040000000000000000000000000000000000000000000000000000000000000060e4351661116f575b5084611106575b610164357f80000000000000000000000000000000000000000000000000000000000000001615610ff5578361014435108461014435180284189661040187868a8987614fdb565b9876ffffffffffffffffffffffffffffffffffffffffffffff610164351680610f6d575b505b7f800000000000000000000000000000000000000000000000000000000000000060e43516151580610f61575b610f375789890215610f0d5761046b60e435614150565b15610ed55773ffffffffffffffffffffffffffffffffffffffff602435165f52600460205260405f2063ffffffff60e43560801c165f528060205260405f205490600160ff60e43560781c161b600160ff60e43560781c161b831614610eab5763ffffffff60e43560801c165f52602052600160ff60e43560781c161b1760405f20555b7f100000000000000000000000000000000000000000000000000000000000000060e43516610da9575b73ffffffffffffffffffffffffffffffffffffffff7f00000000000000000000000000000000000000000000000000000000000000001673ffffffffffffffffffffffffffffffffffffffff606435161480610d7b575b8015610d7557305b8a60e4357f01000000000000000000000000000000000000000000000000000000000000001615610cfe57506105ae89876153db565b9050610b33578a6105f09173ffffffffffffffffffffffffffffffffffffffff6024351673ffffffffffffffffffffffffffffffffffffffff60643516615143565b610ccd575b5060138111610c08575b505073ffffffffffffffffffffffffffffffffffffffff7f00000000000000000000000000000000000000000000000000000000000000001673ffffffffffffffffffffffffffffffffffffffff6084351614808091610bff575b15610a805750863410610a5657863411610a15575b60e4357e8000000000000000000000000000000000000000000000000000000000000016156108ad57818080808a6106a5615286565b5af16106af6140c5565b50156108835785935b7f080000000000000000000000000000000000000000000000000000000000000060e43516610743575b505050604061071661073f94937ffec331350fce78ba658e082a71da20ac9f8d798a99b3c79681c8440cbfe77e07936146e4565b8151908482526020820152a1604051938493846040919493926060820195825260208201520152565b0390f35b90919293506107528183615478565b90919060243573ffffffffffffffffffffffffffffffffffffffff16818460138211610825575b505073ffffffffffffffffffffffffffffffffffffffff1692833b1561082157858995936107df8296948b948b8f6040519b8c9a8b998a987f462ebde2000000000000000000000000000000000000000000000000000000008a52339260048b01614595565b03925af180156108165790859392916107f9575b806106e2565b8192935061080690613f03565b61081357908184926107f3565b80fd5b6040513d84823e3d90fd5b8580fd5b8195508093506108359250613e50565b60601c908360141161082157601401927fffffffffffffffffffffffffffffffffffffffffffffffffffffffffffffffec019073ffffffffffffffffffffffffffffffffffffffff8b610779565b60046040517fb12d13eb000000000000000000000000000000000000000000000000000000008152fd5b7fd0e30db000000000000000000000000000000000000000000000000000000000825281806004818a7f00000000000000000000000000000000000000000000000000000000000000005af115610a0857602082604461090b615286565b604051907fa9059cbb00000000000000000000000000000000000000000000000000000000825260048201528a60248201528273ffffffffffffffffffffffffffffffffffffffff7f0000000000000000000000000000000000000000000000000000000000000000165af1806109b3575b156109895785936106b8565b60046040517ffb7f5079000000000000000000000000000000000000000000000000000000008152fd5b503d156109c9576001825114601f3d111661097d565b73ffffffffffffffffffffffffffffffffffffffff7f0000000000000000000000000000000000000000000000000000000000000000163b151561097d565b50604051903d90823e3d90fd5b818080808a3403335af1610a276140c5565b5061066f5760046040517fb12d13eb000000000000000000000000000000000000000000000000000000008152fd5b60046040517f1841b4e1000000000000000000000000000000000000000000000000000000008152fd5b9334610a565784610bd2575b8415610bc45730945b88610164357f10000000000000000000000000000000000000000000000000000000000000001615610b5d5750610acc828461542a565b9050610b3357610af78989973373ffffffffffffffffffffffffffffffffffffffff60843516615143565b156106b857610b2e610b07615286565b897f000000000000000000000000000000000000000000000000000000000000000061521e565b6106b8565b60046040517f2aefd060000000000000000000000000000000000000000000000000000000008152fd5b610b8e9196610b6c848661542a565b9290913373ffffffffffffffffffffffffffffffffffffffff608435166150d7565b15610b9a578694610af7565b60046040517f478a5205000000000000000000000000000000000000000000000000000000008152fd5b610bcc615286565b94610a95565b60e4357e800000000000000000000000000000000000000000000000000000000000001615159450610a8c565b5034151561065a565b610c128183613e50565b60601c9181601411610cc957823b15610cc95787927fffffffffffffffffffffffffffffffffffffffffffffffffffffffffffffffec868094610c946014958f8f8e918e918d6040519d8e9c8d9b8c9a7fadf38ba1000000000000000000000000000000000000000000000000000000008c5201970195339260048b01614595565b03925af18015610cbe57908391156105ff57610caf90613f03565b610cba5781886105ff565b5080fd5b6040513d85823e3d90fd5b8480fd5b610cf890897f000000000000000000000000000000000000000000000000000000000000000061521e565b896105f5565b610d4691610d0c8b896153db565b92909173ffffffffffffffffffffffffffffffffffffffff6024351673ffffffffffffffffffffffffffffffffffffffff606435166150d7565b6105f0575b60046040517f70a03f48000000000000000000000000000000000000000000000000000000008152fd5b81610578565b507f400000000000000000000000000000000000000000000000000000000000000061016435161515610570565b610db3878561538a565b73ffffffffffffffffffffffffffffffffffffffff6024358116828460138211610e61575b50508181163b1561029d578b5f8f938f96610e2d8f91978f9885998f996040519c8d9b8c9a8b987f0986bdd5000000000000000000000000000000000000000000000000000000008a52339260048b01614595565b0393165af18015610e5657610e43575b50610519565b610e4e919550613f03565b5f938a610e3d565b6040513d5f823e3d90fd5b819550809450610e719250613e50565b60601c918360141161029d57601401927fffffffffffffffffffffffffffffffffffffffffffffffffffffffffffffffec01918e80610dd8565b60046040517fa4f62a96000000000000000000000000000000000000000000000000000000008152fd5b73ffffffffffffffffffffffffffffffffffffffff602435165f52600560205260405f20885f526020528886031960405f20556104ef565b60046040517ffba5a276000000000000000000000000000000000000000000000000000000008152fd5b60046040517f8ef0017c000000000000000000000000000000000000000000000000000000008152fd5b5060a435891415610454565b610144358a03610fae578a11610f84575b8a610425565b60046040517ffb8ae129000000000000000000000000000000000000000000000000000000008152fd5b610fc58a610fbf610144358e614517565b92614517565b1015610f7e5760046040517ffb8ae129000000000000000000000000000000000000000000000000000000008152fd5b61014435979661100887868b8987614eee565b978589116110bc575b76ffffffffffffffffffffffffffffffffffffffffffffff61016435168061103a575b50610427565b610144358b0361107b578910611051575b8a611034565b60046040517f481ea392000000000000000000000000000000000000000000000000000000008152fd5b61108c8b610fbf610144358d614517565b111561104b5760046040517f481ea392000000000000000000000000000000000000000000000000000000008152fd5b9850965083966110cf8786808987614fdb565b98610144358a1115611011575b60046040517f7f902a93000000000000000000000000000000000000000000000000000000008152fd5b6111108583615309565b8061111d575b50506103b9565b61112791306141a8565b81611164575b501561113a578880611116565b60046040517fb6629c02000000000000000000000000000000000000000000000000000000008152fd5b60019150148961112d565b61117a60e435614150565b6111f05760e43560a081811c8316901b60243573ffffffffffffffffffffffffffffffffffffffff16175f9081526002602052604090205460789190911c909116036111c657886103b2565b60046040517fe3e8b052000000000000000000000000000000000000000000000000000000008152fd5b60046040517f9e744e25000000000000000000000000000000000000000000000000000000008152fd5b60046040517fc56873ba000000000000000000000000000000000000000000000000000000008152fd5b905042118a610383565b60046040517fd4dfdafe000000000000000000000000000000000000000000000000000000008152fd5b33161490508980610364565b5f5260045ffd5b73ffffffffffffffffffffffffffffffffffffffff9081602435169182159182156113d2575b50506113a8577f20000000000000000000000000000000000000000000000000000000000000006101643516610330576112eb86846154c7565b9060148210156112fd575b5050610330565b6113078282613e50565b60601c8260141161029d5760147fffffffffffffffffffffffffffffffffffffffffffffffffffffffffffffffec61134594019201908430916146f1565b5061135160e435614150565b1561135e575b80806112f6565b5f52600560205260405f20865f5260205260405f205461137e5788611357565b60046040517fc5f2be51000000000000000000000000000000000000000000000000000000008152fd5b60046040517f5cd5d233000000000000000000000000000000000000000000000000000000008152fd5b9091505f907f7fffffffffffffffffffffffffffffffffffffffffffffffffffffffffffffff81167f7fffffffffffffffffffffffffffffff5d576e7357a4501ddfe92f46681b20a1811061142f575b5050168114158a806112b1565b602092505f91608091604051918d835260ff1c601b0185830152610104356040830152606082015282805260015afa505f518b80611422565b3461029d5760207ffffffffffffffffffffffffffffffffffffffffffffffffffffffffffffffffc36011261029d5761149f613cb5565b6114a7614304565b73ffffffffffffffffffffffffffffffffffffffff80911690811561151857600354827fffffffffffffffffffffffff0000000000000000000000000000000000000000821617600355167f8be0079c531659141344cd1fd0a4f28419497f9722a3daafe3b4186f6b6457e05f80a3005b60246040517f1e4fbdf70000000000000000000000000000000000000000000000000000000081525f6004820152fd5b3461029d5760607ffffffffffffffffffffffffffffffffffffffffffffffffffffffffffffffffc36011261029d5760206115b6611584613cb5565b73ffffffffffffffffffffffffffffffffffffffff1660243560a01b175f908152600260205260409020546044351490565b6040519015158152f35b3461029d577ffffffffffffffffffffffffffffffffffffffffffffffffffffffffffffffffc3601610160811261029d576101001361029d576101043567ffffffffffffffff811161029d5761161a903690600401613cd8565b6101243591905f610144356116306103146141cc565b9161163a8361448e565b9360a43595868614611e4b575b5050611651614a5c565b611659614df6565b9015611284575060e4359169ffffffffffffffffffff8084168015918215611e3f575b50501561124e5764ffffffffff808460501c168015159081611e35575b5061121a577f04000000000000000000000000000000000000000000000000000000000000008416611de4575b507f80000000000000000000000000000000000000000000000000000000000000009581871615611d2f57858810868918028618966117088860c43584615618565b9876ffffffffffffffffffffffffffffffffffffffffffffff84169081611cda575b50505b841615159081611ccf575b50610f375786860215610f0d5761174e83614150565b15611c975773ffffffffffffffffffffffffffffffffffffffff602435165f52600460205260405f2063ffffffff8460801c16600160ff8660781c161b91815f528060205260405f2054918380841614610eab575f526020521760405f20555b7f100000000000000000000000000000000000000000000000000000000000000091828416611c0f575b73ffffffffffffffffffffffffffffffffffffffff928360643516927f0000000000000000000000000000000000000000000000000000000000000000928584169485811480611be4575b8015611bde57305b7f01000000000000000000000000000000000000000000000000000000000000008a1615611bb45761185d84806153db565b9050610b33578c6118759185948b6024351690615143565b611ba4575b610813575090898992866084351686811493848095611b9d575b15611ab457505050915050610a565787907e800000000000000000000000000000000000000000000000000000000000008516156119e957505f8080935080926118dc615286565b5af16118e66140c5565b5015610883577f080000000000000000000000000000000000000000000000000000000000000085925b16611947575b5060406107167ffec331350fce78ba658e082a71da20ac9f8d798a99b3c79681c8440cbfe77e079261073f956146e4565b90506024351691823b1561029d575f60405180947f462ebde2000000000000000000000000000000000000000000000000000000008252818381611992878c8c338c60048701614641565b03925af1908115610e56576107168560409261073f967ffec331350fce78ba658e082a71da20ac9f8d798a99b3c79681c8440cbfe77e07956119da575b509550925050611916565b6119e390613f03565b896119cf565b60045f809381937fd0e30db00000000000000000000000000000000000000000000000000000000083525af115610e565760205f6044611a27615286565b604051907fa9059cbb00000000000000000000000000000000000000000000000000000000825260048201528a602482015282855af19081611a92575b5015610989577f08000000000000000000000000000000000000000000000000000000000000008592611910565b90503d15611aac575060015f5114601f3d11165b87611a64565b3b1515611aa6565b90919293809599975094611b72575b8415611b645730925b1615611b275791611b03917f0800000000000000000000000000000000000000000000000000000000000000969594933390615143565b611b0e575b50611910565b611b219089611b1b615286565b9161521e565b88611b08565b611b3693959497503390615084565b15610b9a5786937f080000000000000000000000000000000000000000000000000000000000000092611b03565b611b6c615286565b92611acc565b7e80000000000000000000000000000000000000000000000000000000000000871615159450611ac3565b505f611894565b611baf338c8761521e565b61187a565b611bd291928d611bc486806153db565b9390928c60243516906150d7565b15610d4b578190611875565b3361182b565b507f400000000000000000000000000000000000000000000000000000000000000083161515611823565b73ffffffffffffffffffffffffffffffffffffffff60243516803b1561029d575f8988928a838a611c71604051978896879586947f0986bdd5000000000000000000000000000000000000000000000000000000008652339060048701614641565b03925af18015610e5657611c86575b506117d8565b611c909150613f03565b5f88611c80565b73ffffffffffffffffffffffffffffffffffffffff602435165f52600560205260405f20845f526020528585031960405f20556117ae565b905086141588611738565b89818103611cf25750508911610f84575b898061172a565b610fbf611cff928d614517565b1015611ceb5760046040517ffb8ae129000000000000000000000000000000000000000000000000000000008152fd5b60c4359688611d3f818a856155f1565b98888a11611dc6575b5076ffffffffffffffffffffffffffffffffffffffffffffff84169081611d71575b505061172d565b8a818103611d895750508810611051575b8980611d6a565b610fbf611d96928c614517565b1115611d825760046040517f481ea392000000000000000000000000000000000000000000000000000000008152fd5b98509850611dd687809984615618565b98808a116110dc578a611d48565b611ded84614150565b6111f05760a084811c8216901b60243573ffffffffffffffffffffffffffffffffffffffff16175f90815260026020526040902054607885901c909116036111c657876116c6565b9050421189611699565b3316149050888061167c565b60205f809360405190807f1626ba7e00000000000000000000000000000000000000000000000000000000958684528a60048501526040602485015281604485015260648401376064019073ffffffffffffffffffffffffffffffffffffffff602435165afa611ec3575b50156113a8578680611647565b5f51143d60201416905087611eb6565b3461029d576020611ef0611ee636613d06565b90929192306141a8565b81929192611f05575b50506040519015158152f35b1090508280611ef9565b3461029d5760207ffffffffffffffffffffffffffffffffffffffffffffffffffffffffffffffffc36011261029d57611f46613c9a565b7fffffffffffffffffffffffff00000000000000000000000000000000000000008160a01b1633175f52600260205260405f2060018154018091556bffffffffffffffffffffffff6040519216825260208201527f099133aefc2c2d1e56f8ef3622ec8e80979a0713fc9c4e1497740efcf809939660403392a2005b3461029d5760407ffffffffffffffffffffffffffffffffffffffffffffffffffffffffffffffffc36011261029d5773ffffffffffffffffffffffffffffffffffffffff61200e613cb5565b165f52600560205260405f206024355f52602052602060405f2054604051908152f35b3461029d5760206115b661204436613d06565b916140f4565b3461029d5760207ffffffffffffffffffffffffffffffffffffffffffffffffffffffffffffffffc36011261029d5760043567ffffffffffffffff811161029d576120a561209e6020923690600401613cd8565b90306141a8565b816120b6575b506040519015158152f35b905015826120ab565b3461029d576120d66120d036613de5565b916141a8565b90156120e757602090604051908152f35b60046040517f1f1b8f61000000000000000000000000000000000000000000000000000000008152fd5b3461029d575f8061212136613de5565b90816040519283928337810184815203915af461213c6140c5565b906121816040519283927f1934afc800000000000000000000000000000000000000000000000000000000845215156004840152604060248401526044830190613d58565b0390fd5b3461029d5760407ffffffffffffffffffffffffffffffffffffffffffffffffffffffffffffffffc36011261029d576121c2602435600435613fb1565b005b7ffffffffffffffffffffffffffffffffffffffffffffffffffffffffffffffffc3601610180811261029d576101001361029d5761014435610124355f610164356122106103146141cc565b9061221a8261448e565b9260a435948585146127d5575b50612230614a5c565b612238614df6565b9015611284575060e4359169ffffffffffffffffffff80841680159182156127c9575b50501561124e5764ffffffffff808460501c1680151590816127bf575b5061121a577f0400000000000000000000000000000000000000000000000000000000000000841661276e575b507f800000000000000000000000000000000000000000000000000000000000000095818716156126b957858810868918028618966122e78860c43584615618565b9876ffffffffffffffffffffffffffffffffffffffffffffff84169081612664575b50505b841615159081612659575b50610f375786860215610f0d5761232d83614150565b156126215773ffffffffffffffffffffffffffffffffffffffff602435165f52600460205260405f2063ffffffff8460801c16600160ff8660781c161b91815f528060205260405f2054918380841614610eab575f526020521760405f20555b7f100000000000000000000000000000000000000000000000000000000000000091828416612599575b73ffffffffffffffffffffffffffffffffffffffff928360643516927f000000000000000000000000000000000000000000000000000000000000000092858416948581148061256e575b801561256857305b7f01000000000000000000000000000000000000000000000000000000000000008a161561254c5761243c84806153db565b9050610b33578c6124549185948b6024351690615143565b61253c575b6108135750608435851691848314918280612533575b156124e05750505050873410610a565787908134116124c0575b7e800000000000000000000000000000000000000000000000000000000000008516156119e957505f8080935080926118dc615286565b905f808080933403335af16124d36140c5565b5015610883578790612489565b90919296945034610a565789968b9284611b72578415611b645730921615611b275791611b03917f0800000000000000000000000000000000000000000000000000000000000000969594933390615143565b5034151561246f565b612547338c8761521e565b612459565b61255c91928d611bc486806153db565b15610d4b578190612454565b3361240a565b507f400000000000000000000000000000000000000000000000000000000000000083161515612402565b73ffffffffffffffffffffffffffffffffffffffff60243516803b1561029d575f8988928a838a6125fb604051978896879586947f0986bdd5000000000000000000000000000000000000000000000000000000008652339060048701614641565b03925af18015610e5657612610575b506123b7565b61261a9150613f03565b5f8861260a565b73ffffffffffffffffffffffffffffffffffffffff602435165f52600560205260405f20845f526020528585031960405f205561238d565b905086141588612317565b8981810361267c5750508911610f84575b8980612309565b610fbf612689928d614517565b10156126755760046040517ffb8ae129000000000000000000000000000000000000000000000000000000008152fd5b60c43596886126c9818a856155f1565b98888a11612750575b5076ffffffffffffffffffffffffffffffffffffffffffffff841690816126fb575b505061230c565b8a8181036127135750508810611051575b89806126f4565b610fbf612720928c614517565b111561270c5760046040517f481ea392000000000000000000000000000000000000000000000000000000008152fd5b9850985061276087809984615618565b98808a116110dc578a6126d2565b61277784614150565b6111f05760a084811c8216901b60243573ffffffffffffffffffffffffffffffffffffffff16175f90815260026020526040902054607885901c909116036111c657876122a5565b9050421189612278565b3316149050888061225b565b73ffffffffffffffffffffffffffffffffffffffff8060243516908115928315612807575b5050506113a85786612227565b909192505f907f7fffffffffffffffffffffffffffffffffffffffffffffffffffffffffffffff81167f7fffffffffffffffffffffffffffffff5d576e7357a4501ddfe92f46681b20a18110612865575b50501614158780806127fa565b602092505f91608091604051918a835260ff1c601b0185830152610104356040830152606082015282805260015afa505f518980612858565b3461029d575f7ffffffffffffffffffffffffffffffffffffffffffffffffffffffffffffffffc36011261029d57602073ffffffffffffffffffffffffffffffffffffffff60035416604051908152f35b3461029d5760407ffffffffffffffffffffffffffffffffffffffffffffffffffffffffffffffffc36011261029d5767ffffffffffffffff60043581811161029d5761293f903690600401613db4565b909160243590811161029d57612959903690600401613db4565b90818303612996575f5b83811061296c57005b8061299061297d6001938789613f74565b35612989838787613f74565b3590613fb1565b01612963565b60046040517fd97cd9d8000000000000000000000000000000000000000000000000000000008152fd5b3461029d575f7ffffffffffffffffffffffffffffffffffffffffffffffffffffffffffffffffc36011261029d57612a177f0000000000000000000000000000000000000000000000000000000000000000614a95565b612a407f0000000000000000000000000000000000000000000000000000000000000000614c06565b60405160208082019282841067ffffffffffffffff851117612b0157916020612ab68594612aa897966040525f84526040519788977f0f00000000000000000000000000000000000000000000000000000000000000895260e0858a015260e0890190613d58565b908782036040890152613d58565b914660608701523060808701525f60a087015285830360c087015251918281520192915f5b828110612aea57505050500390f35b835185528695509381019392810192600101612adb565b7f4e487b71000000000000000000000000000000000000000000000000000000005f52604160045260245ffd5b3461029d575f7ffffffffffffffffffffffffffffffffffffffffffffffffffffffffffffffffc36011261029d57612b64614304565b612b6c614a5c565b740100000000000000000000000000000000000000007fffffffffffffffffffffff00ffffffffffffffffffffffffffffffffffffffff60035416176003557f62e78cea01bee320cd4e420270b5ea74000d11b0c9f74754ebdbfc544b05a2586020604051338152a1005b3461029d57610100807ffffffffffffffffffffffffffffffffffffffffffffffffffffffffffffffffc36011261029d576042602091610120612c186141cc565b91604051907f3af21ec5a20011b88d3b7b4ed7c806cef05a5980cf34974bcd53566a131f7e4c825260048683013720604051917f190100000000000000000000000000000000000000000000000000000000000083526002830152602282015220604051908152f35b3461029d5760206115b6612c9436613d06565b91613eac565b3461029d575f7ffffffffffffffffffffffffffffffffffffffffffffffffffffffffffffffffc36011261029d57612cd0614304565b5f73ffffffffffffffffffffffffffffffffffffffff6003547fffffffffffffffffffffffff00000000000000000000000000000000000000008116600355167f8be0079c531659141344cd1fd0a4f28419497f9722a3daafe3b4186f6b6457e08280a3005b3461029d576020612d49611ee636613d06565b81929192612d5d5750506040519015158152f35b1490508280611ef9565b3461029d575f7ffffffffffffffffffffffffffffffffffffffffffffffffffffffffffffffffc36011261029d57602060ff60035460a01c166040519015158152f35b60407ffffffffffffffffffffffffffffffffffffffffffffffffffffffffffffffffc36011261029d5767ffffffffffffffff60043581811161029d57612df5903690600401613cd8565b9160243590811161029d57612e0e903690600401613cd8565b612e1b8484959395613e50565b60601c918060141161029d575f93849360147fffffffffffffffffffffffffffffffffffffffffffffffffffffffffffffffec612e5f9401920190309033906146f1565b508060405194853783305af43d5f833e15612e78573d90f35b3d90fd5b3461029d577ffffffffffffffffffffffffffffffffffffffffffffffffffffffffffffffffc3601610180811261029d576101001361029d5767ffffffffffffffff6101043581811161029d57612ed7903690600401613cd8565b90916101643590811161029d57612ef5612eff913690600401613cd8565b9061014435614355565b949192612f11610314979295976141cc565b94612f1b8661448e565b935f9360a4358614613795575b5050612f32614a5c565b612f3c8583614ce8565b9015611284575069ffffffffffffffffffff8060e435168015918215613789575b50501561124e5764ffffffffff8060e43560501c16801515908161377f575b5061121a577f040000000000000000000000000000000000000000000000000000000000000060e43516613728575b50846136e9575b610144357f800000000000000000000000000000000000000000000000000000000000000016156136035783610124351084610124351802841896612ffa87868a8987614fdb565b9876ffffffffffffffffffffffffffffffffffffffffffffff6101443516806135ab575b505b7f800000000000000000000000000000000000000000000000000000000000000060e4351615158061359f575b610f375789890215610f0d5761306460e435614150565b156135675773ffffffffffffffffffffffffffffffffffffffff602435165f52600460205260405f2063ffffffff60e43560801c165f528060205260405f205490600160ff60e43560781c161b600160ff60e43560781c161b831614610eab5763ffffffff60e43560801c165f52602052600160ff60e43560781c161b1760405f20555b7f100000000000000000000000000000000000000000000000000000000000000060e43516613470575b73ffffffffffffffffffffffffffffffffffffffff7f00000000000000000000000000000000000000000000000000000000000000001673ffffffffffffffffffffffffffffffffffffffff606435161480613442575b801561343c57305b8a60e4357f0100000000000000000000000000000000000000000000000000000000000000161561340057506131a789876153db565b9050610b33578a6131e99173ffffffffffffffffffffffffffffffffffffffff6024351673ffffffffffffffffffffffffffffffffffffffff60643516615143565b6133cf575b506013811161331d575b505073ffffffffffffffffffffffffffffffffffffffff7f00000000000000000000000000000000000000000000000000000000000000001673ffffffffffffffffffffffffffffffffffffffff6084351614808091613316575b15613294575086610a565760e4357e8000000000000000000000000000000000000000000000000000000000000016156108ad57818080808a6106a5615286565b93846132e9575b84156132db5730945b88610144357f10000000000000000000000000000000000000000000000000000000000000001615610b5d5750610acc828461542a565b6132e3615286565b946132a4565b60e4357e80000000000000000000000000000000000000000000000000000000000000161515945061329b565b505f613253565b6133278183613e50565b60601c9181601411610cc957823b15610cc95787927fffffffffffffffffffffffffffffffffffffffffffffffffffffffffffffffec8680946133a96014958f8f8e918e918d6040519d8e9c8d9b8c9a7fadf38ba1000000000000000000000000000000000000000000000000000000008c5201970195339260048b01614595565b03925af18015610cbe57908391156131f8576133c490613f03565b610cba5781886131f8565b6133fa90897f000000000000000000000000000000000000000000000000000000000000000061521e565b896131ee565b61340e91610d0c8b896153db565b6131e95760046040517f70a03f48000000000000000000000000000000000000000000000000000000008152fd5b81613171565b507f400000000000000000000000000000000000000000000000000000000000000061014435161515613169565b61347a878561538a565b73ffffffffffffffffffffffffffffffffffffffff602435811682846013821161351d575b50508181163b1561029d578b5f8f938f966134f48f91978f9885998f996040519c8d9b8c9a8b987f0986bdd5000000000000000000000000000000000000000000000000000000008a52339260048b01614595565b0393165af18015610e565761350a575b50613112565b613515919550613f03565b5f938a613504565b81955080945061352d9250613e50565b60601c918360141161029d57601401927fffffffffffffffffffffffffffffffffffffffffffffffffffffffffffffffec01918e8061349f565b73ffffffffffffffffffffffffffffffffffffffff602435165f52600560205260405f20885f526020528886031960405f20556130e8565b5060a43589141561304d565b610124358a036135c2578a11610f84575b8a61301e565b6135d38a610fbf610124358e614517565b10156135bc5760046040517ffb8ae129000000000000000000000000000000000000000000000000000000008152fd5b61012435979661361687868b8987614eee565b978589116136a0575b76ffffffffffffffffffffffffffffffffffffffffffffff610144351680613648575b50613020565b610124358b0361365f578910611051575b8a613642565b6136708b610fbf610124358d614517565b11156136595760046040517f481ea392000000000000000000000000000000000000000000000000000000008152fd5b9850965083966136b38786808987614fdb565b98610124358a111561361f5760046040517f7f902a93000000000000000000000000000000000000000000000000000000008152fd5b6136f38583615309565b80613700575b5050612fb2565b61370a91306141a8565b8161371d575b501561113a5788806136f9565b600191501489613710565b61373360e435614150565b6111f05760e43560a081811c8316901b60243573ffffffffffffffffffffffffffffffffffffffff16175f9081526002602052604090205460789190911c909116036111c65788612fab565b905042118a612f7c565b33161490508980612f5d565b60205f809360405190807f1626ba7e00000000000000000000000000000000000000000000000000000000958684528d60048501526040602485015281604485015260648401376064019073ffffffffffffffffffffffffffffffffffffffff602435165afa61380d575b50156113a8578880612f28565b5f51143d60201416905089613800565b3461029d576020613830611ee636613d06565b819291926138445750506040519015158152f35b1190508280611ef9565b3461029d5760407ffffffffffffffffffffffffffffffffffffffffffffffffffffffffffffffffc36011261029d5773ffffffffffffffffffffffffffffffffffffffff61389a613cb5565b165f52600560205260405f206024355f5260205260405f205480156138c55760209060405190198152f35b60046040517faa3eef95000000000000000000000000000000000000000000000000000000008152fd5b3461029d575f7ffffffffffffffffffffffffffffffffffffffffffffffffffffffffffffffffc36011261029d57613925614304565b60035460ff8160a01c1615613985577fffffffffffffffffffffff00ffffffffffffffffffffffffffffffffffffffff166003557f5db9ee0a495bf2e6ff9c91a7834c1ba4fdd244a5e8aa4e537bd38aeae4b073aa6020604051338152a1005b60046040517f8dfc202b000000000000000000000000000000000000000000000000000000008152fd5b3461029d575f7ffffffffffffffffffffffffffffffffffffffffffffffffffffffffffffffffc36011261029d5760206139e76141cc565b604051908152f35b3461029d5760207ffffffffffffffffffffffffffffffffffffffffffffffffffffffffffffffffc36011261029d5760043567ffffffffffffffff811161029d57613a4361209e6020923690600401613cd8565b81613a5357506040519015158152f35b6001915014826120ab565b3461029d5760407ffffffffffffffffffffffffffffffffffffffffffffffffffffffffffffffffc36011261029d5773ffffffffffffffffffffffffffffffffffffffff613aaa613cb5565b165f52600460205260405f2060243560081c5f52602052602060405f2054604051908152f35b3461029d5760407ffffffffffffffffffffffffffffffffffffffffffffffffffffffffffffffffc36011261029d57613b07613c9a565b60243580158015613bbc575b613b92577fffffffffffffffffffffffff00000000000000000000000000000000000000008260a01b1633175f52600260205260405f20908154018091556bffffffffffffffffffffffff6040519216825260208201527f099133aefc2c2d1e56f8ef3622ec8e80979a0713fc9c4e1497740efcf809939660403392a2005b60046040517f555fbbbf000000000000000000000000000000000000000000000000000000008152fd5b5060ff8111613b13565b3461029d5760407ffffffffffffffffffffffffffffffffffffffffffffffffffffffffffffffffc36011261029d5760043590613c0282614150565b15613c725750335f52600460205260405f209063ffffffff8160801c1691825f5260205260405f2090600160ff6024359260781c161b1781541780915560405191825260208201527fcda0f7e73d07bdb14b141f2cf4745926629a1b63e7c6a3dd8a80232cb459a85060403392a2005b807f86bffaca0000000000000000000000000000000000000000000000000000000060049252fd5b600435906bffffffffffffffffffffffff8216820361029d57565b6004359073ffffffffffffffffffffffffffffffffffffffff8216820361029d57565b9181601f8401121561029d5782359167ffffffffffffffff831161029d576020838186019501011161029d57565b9060407ffffffffffffffffffffffffffffffffffffffffffffffffffffffffffffffffc83011261029d57600435916024359067ffffffffffffffff821161029d57613d5491600401613cd8565b9091565b91908251928382525f5b848110613da05750507fffffffffffffffffffffffffffffffffffffffffffffffffffffffffffffffe0601f845f6020809697860101520116010190565b602081830181015184830182015201613d62565b9181601f8401121561029d5782359167ffffffffffffffff831161029d576020808501948460051b01011161029d57565b9060407ffffffffffffffffffffffffffffffffffffffffffffffffffffffffffffffffc83011261029d5760043573ffffffffffffffffffffffffffffffffffffffff8116810361029d57916024359067ffffffffffffffff821161029d57613d5491600401613cd8565b7fffffffffffffffffffffffffffffffffffffffff0000000000000000000000009035818116939260148110613e8557505050565b60140360031b82901b16169150565b9093929384831161029d57841161029d578101920390565b929091925f5b63ffffffff8216908115613ef95761209e82613ecf928888613e94565b81613eee575b50613ee4579060201c90613eb2565b5050915050600190565b60019150145f613ed5565b5050509150505f90565b67ffffffffffffffff8111612b0157604052565b6040810190811067ffffffffffffffff821117612b0157604052565b90601f7fffffffffffffffffffffffffffffffffffffffffffffffffffffffffffffffe0910116810190811067ffffffffffffffff821117612b0157604052565b9190811015613f845760051b0190565b7f4e487b71000000000000000000000000000000000000000000000000000000005f52603260045260245ffd5b90613fbb82614150565b156140265750335f52600460205260405f209063ffffffff8160801c1691825f52602052600160ff60405f209260781c161b81541780915560405191825260208201527fcda0f7e73d07bdb14b141f2cf4745926629a1b63e7c6a3dd8a80232cb459a85060403392a2565b7f5152abf959f6564662358c2e52b702259b78bac5ee7842a0f01937e670efcc7d9150602090335f526005825260405f20815f5282527fffffffffffffffffffffffffffffffffffffffffffffffffffffffffffffffff60405f2055604051908152a1565b67ffffffffffffffff8111612b0157601f017fffffffffffffffffffffffffffffffffffffffffffffffffffffffffffffffe01660200190565b3d156140ef573d906140d68261408b565b916140e46040519384613f33565b82523d5f602084013e565b606090565b929091925f5b63ffffffff82169081156141455761209e82614117928888613e94565b9015908115614139575b50614130579060201c906140fa565b50509150505f90565b6001915014155f614121565b505050915050600190565b7f800000000000000000000000000000000000000000000000000000000000000081161590811591614180575090565b7f40000000000000000000000000000000000000000000000000000000000000009150161590565b915f906020928294826040519283375afa60203d141691826141c657565b5f519150565b73ffffffffffffffffffffffffffffffffffffffff7f0000000000000000000000000000000000000000000000000000000000000000163014806142db575b15614234577f000000000000000000000000000000000000000000000000000000000000000090565b60405160208101907f8b73c3c69bb8fe3d512ecc4cf759cc79239f7b179b0ffacaa9a75d522b39400f82527f000000000000000000000000000000000000000000000000000000000000000060408201527f000000000000000000000000000000000000000000000000000000000000000060608201524660808201523060a082015260a0815260c0810181811067ffffffffffffffff821117612b015760405251902090565b507f0000000000000000000000000000000000000000000000000000000000000000461461420b565b73ffffffffffffffffffffffffffffffffffffffff60035416330361432557565b60246040517f118cdaa7000000000000000000000000000000000000000000000000000000008152336004820152fd5b909291907f08000000000000000000000000000000000000000000000000000000000000008116156144195761438b8285613e50565b60601c938260141161029d5760147fffffffffffffffffffffffffffffffffffffffffffffffffffffffffffffffec91019201925b62ffffff60e083901c811694851561440b5780861161029d576143e7908596818197613e94565b919091935b60c81c1692831561440157831161029d579190565b505090505f905f90565b92939094505f945f946143ec565b339391926143c0565b6042906101206040517f3af21ec5a20011b88d3b7b4ed7c806cef05a5980cf34974bcd53566a131f7e4c81526101006004602083013720604051917f19010000000000000000000000000000000000000000000000000000000000008352600283015260228201522090565b61449960e435614150565b156144d6575060a435905b81156144ac57565b60046040517ff71fbda2000000000000000000000000000000000000000000000000000000008152fd5b73ffffffffffffffffffffffffffffffffffffffff602435165f52600560205260405f20905f5260205261451160405f205460a43590614cd7565b906144a4565b8181029291811591840414171561452a57565b7f4e487b71000000000000000000000000000000000000000000000000000000005f52601160045260245ffd5b601f82602094937fffffffffffffffffffffffffffffffffffffffffffffffffffffffffffffffe093818652868601375f8582860101520116010190565b94919361461073ffffffffffffffffffffffffffffffffffffffff9261463e9b99969a98959a6101e06146018a6004358152602435602082015260443560408201526064356060820152608435608082015260a43560a082015260c43560c082015260e060e435910152565b806101008b0152890191614557565b98610120870152166101408501526101608401526101808301526101a08201526101c0818503910152614557565b90565b935f9373ffffffffffffffffffffffffffffffffffffffff610220979394866101e06146a68a6004358152602435602082015260443560408201526064356060820152608435608082015260a43560a082015260c43560c082015260e060e435910152565b806101008b015289015261020095610120890152166101408701526101608601526101808501526101a0840152806101c0840152820152015f815290565b9190820391821161452a57565b9190935f949385946147016152b4565b90604051948491826064146149a757826048146148e6578260e0146148ac57826101001461487057826060146147aa5750506101601461477057508185926004927f9fd5a6cf0000000000000000000000000000000000000000000000000000000086528386013701925af190565b906101649450859250610160907f2b67b57000000000000000000000000000000000000000000000000000000000855260048501375af190565b88955060409250906101649760209495927f2b67b5700000000000000000000000000000000000000000000000000000000089526004890152602488015260148260508901377fffffffffffffffffffffffffffffffffffffffffffffffffffffffffffffffff65ffffffffffff9181601485013560e01c01831660648a0152601884013560e01c60848a015260a4890152601c83013560e01c011660c487015261010060e48701528161010487015282808201610124880137016101448501375af190565b5050505084915092610100610104947f8fcbaf0c00000000000000000000000000000000000000000000000000000000855260048501375af190565b505050508491509260e060e4947fd505accf00000000000000000000000000000000000000000000000000000000855260048501375af190565b8895507f7fffffffffffffffffffffffffffffffffffffffffffffffffffffffffffffff9350610104979492507f8fcbaf0c0000000000000000000000000000000000000000000000000000000087526004870152602486015260206008602883013592803560e01c60448901527fffffffffffffffffffffffffffffffffffffffffffffffffffffffffffffffff600482013560e01c016064890152600160848901528360ff1c601b0160a48901520160c48701371660e48401525af190565b8895507f7fffffffffffffffffffffffffffffffffffffffffffffffffffffffffffffff935060e4979492507fd505accf0000000000000000000000000000000000000000000000000000000087526004870152602486015260206024604483013592828160448a01377fffffffffffffffffffffffffffffffffffffffffffffffffffffffffffffffff8382013560e01c0160648901528360ff1c601b0160848901520160a48701371660c48401525af190565b60ff60035460a01c16614a6b57565b60046040517fd93c0665000000000000000000000000000000000000000000000000000000008152fd5b60ff8114614aeb5760ff811690601f8211614ac15760405191614ab783613f17565b8252602082015290565b60046040517fb3512b0c000000000000000000000000000000000000000000000000000000008152fd5b506040515f8054906001908260011c60018416928315614bfc575b6020948583108514614bcf578287528694908115614b905750600114614b35575b505061463e92500382613f33565b5f8080527f290decd9548b62a8d60345a988386fc84ba6bc95484008f6362f93160ef3e56395935091905b818310614b7857505061463e93508201015f80614b27565b85548784018501529485019486945091830191614b60565b905061463e9593507fffffffffffffffffffffffffffffffffffffffffffffffffffffffffffffff0091501682840152151560051b8201015f80614b27565b7f4e487b71000000000000000000000000000000000000000000000000000000005f52602260045260245ffd5b90607f1690614b06565b60ff8114614c285760ff811690601f8211614ac15760405191614ab783613f17565b506040515f60018054918260011c60018416928315614ccd575b6020948583108514614bcf578287528694908115614b905750600114614c7057505061463e92500382613f33565b9093915060015f527fb10e2d527612073b26eecdfd717e6a320cf44b4afac2b0732d9fcbe2b7fa0cf6935f915b818310614cb557505061463e93508201015f80614b27565b85548784018501529485019486945091830191614c9d565b90607f1690614c42565b908115614ce357501990565b905090565b9060e4357f02000000000000000000000000000000000000000000000000000000000000001615614dc9578015614da157614d228161408b565b90614d306040519283613f33565b8082526020820192368282011161029d57815f9260209286378301015273ffffffffffffffffffffffffffffffffffffffff91829151902016906004351603614d7b575b6001905f90565b5f907fdc11ee6b0000000000000000000000000000000000000000000000000000000090565b50505f907fb2d25e490000000000000000000000000000000000000000000000000000000090565b905015614d74575f907f74896a7b0000000000000000000000000000000000000000000000000000000090565b5f60e4357f02000000000000000000000000000000000000000000000000000000000000001615614e4657907fb2d25e490000000000000000000000000000000000000000000000000000000090565b506001905f90565b93614ec673ffffffffffffffffffffffffffffffffffffffff9261463e9a98959997946101c0614eb7896004358152602435602082015260443560408201526064356060820152608435608082015260a43560a082015260c43560c082015260e060e435910152565b806101008a0152880191614557565b97610120860152166101408401526101608301526101808201526101a0818503910152614557565b909291614efb8483615518565b90928115614fc557614f0d8285613e50565b60601c938260141161029d576020966014967fffffffffffffffffffffffffffffffffffffffffffffffffffffffffffffffec95614f81946040519b8c9a8b998a997f1d9671c3000000000000000000000000000000000000000000000000000000008b5201960194339260048a01614e4e565b03915afa908115610e56575f91614f96575090565b90506020813d602011614fbd575b81614fb160209383613f33565b8101031261029d575190565b3d9150614fa4565b50509250505061463e915060c43560a4356155f1565b909291614fe88483615569565b9092811561506e57614ffa8285613e50565b60601c938260141161029d576020966014967fffffffffffffffffffffffffffffffffffffffffffffffffffffffffffffffec95614f81946040519b8c9a8b998a997fd7ff8a80000000000000000000000000000000000000000000000000000000008b5201960194339260048a01614e4e565b50509250505061463e915060c43560a435615618565b905f6064926020958295604051947f23b872dd0000000000000000000000000000000000000000000000000000000086526004860152602485015260448401525af160015f5114601f3d11163d15171690565b9294805f9581602098889596604051977f23b872dd000000000000000000000000000000000000000000000000000000008952600489015260248801526044870152615137575b5050606401925af160015f5114601f3d11163d15171690565b6064850137805f61511e565b90919273ffffffffffffffffffffffffffffffffffffffff81116151f4575f9283926084926151706152b4565b96604051937f36c78516000000000000000000000000000000000000000000000000000000008552600485015260248401526044830152606482015282855af190816151e9575b50156151bf57565b60046040517ff4059071000000000000000000000000000000000000000000000000000000008152fd5b90503b15155f6151b7565b60046040517f8112e119000000000000000000000000000000000000000000000000000000008152fd5b5f6024818080949695967f2e1a7d4d000000000000000000000000000000000000000000000000000000008252876004525af115610e56573073ffffffffffffffffffffffffffffffffffffffff821603615277575050565b5f80809381935af115610e5657565b73ffffffffffffffffffffffffffffffffffffffff60443581169081156152ab575090565b90506024351690565b4680610144146152f5578061012c146152f557610104146152e2576e22d473030f116ddee9f6b43ac78ba390565b6e225e31d15943971f47ad3022f714fa90565b506e225e31d15943971f47ad3022f714fa90565b91909160208310615382578035907fffffffffffffffffffffffffffffffffffffffffffffffffffffffffffffffe063ffffffff808460601c169360801c169401841161535a578101602001920390565b7f9605a010000000000000000000000000000000000000000000000000000000005f5260045ffd5b505f91508190565b91909160208310615382578035907fffffffffffffffffffffffffffffffffffffffffffffffffffffffffffffffe063ffffffff808460a01c169360c01c169401841161535a578101602001920390565b91909160208310615382578035907fffffffffffffffffffffffffffffffffffffffffffffffffffffffffffffffe063ffffffff928060201b841693169401841161535a578101602001920390565b91909160208310615382578035907fffffffffffffffffffffffffffffffffffffffffffffffffffffffffffffffe063ffffffff8084169360201c169401841161535a578101602001920390565b91909160208310615382578035907fffffffffffffffffffffffffffffffffffffffffffffffffffffffffffffffe063ffffffff8360c01c169260e01c9401841161535a578101602001920390565b91909160208310615382578035907fffffffffffffffffffffffffffffffffffffffffffffffffffffffffffffffe063ffffffff808460801c169360a01c169401841161535a578101602001920390565b91909160208310615382578035907fffffffffffffffffffffffffffffffffffffffffffffffffffffffffffffffe063ffffffff808460201c169360401c169401841161535a578101602001920390565b91909160208310615382578035907fffffffffffffffffffffffffffffffffffffffffffffffffffffffffffffffe063ffffffff808460401c169360601c169401841161535a578101602001920390565b81156155c4570490565b7f4e487b71000000000000000000000000000000000000000000000000000000005f52601260045260245ffd5b80831760801c1561560e576156099061463e93614517565b6155ba565b61463e92026155ba565b9080831760801c1561566c5761562e9192614517565b9080820180921161452a577fffffffffffffffffffffffffffffffffffffffffffffffffffffffffffffffff820191821161452a5761463e916155ba565b61463e920281017fffffffffffffffffffffffffffffffffffffffffffffffffffffffffffffffff016155ba56fea2646970667358221220134b3666b45a79b68861612ffb2703459cf04c4632556e3944e0f8742e28489d64736f6c63430008170033",
  "immutableReferences": {
    "3533": [
      {
        "length": 32,
        "start": 16914
      }
    ],
    "3535": [
      {
        "length": 32,
        "start": 17118
      }
    ],
    "3537": [
      {
        "length": 32,
        "start": 16867
      }
    ],
    "3539": [
      {
        "length": 32,
        "start": 16993
      }
    ],
    "3541": [
      {
        "length": 32,
        "start": 17031
      }
    ],
    "3544": [
      {
        "length": 32,
        "start": 10739
      }
    ],
    "3547": [
      {
        "length": 32,
        "start": 10780
      }
    ],
    "8072": [
      {
        "length": 32,
        "start": 49
      }
    ],
    "10873": [
      {
        "length": 32,
        "start": 1328
      },
      {
        "length": 32,
        "start": 1560
      },
      {
        "length": 32,
        "start": 2264
      },
      {
        "length": 32,
        "start": 2389
      },
      {
        "length": 32,
        "start": 2528
      },
      {
        "length": 32,
        "start": 2826
      },
      {
        "length": 32,
        "start": 3284
      },
      {
        "length": 32,
        "start": 6134
      },
      {
        "length": 32,
        "start": 9173
      },
      {
        "length": 32,
        "start": 12585
      },
      {
        "length": 32,
        "start": 12817
      },
      {
        "length": 32,
        "start": 13270
      }
    ]
  },
  "source": "// SPDX-License-Identifier: MIT\n\npragma solidity 0.8.23;\n\nimport \"@openzeppelin/contracts/utils/math/Math.sol\";\nimport \"@openzeppelin/contracts/utils/cryptography/EIP712.sol\";\nimport \"@openzeppelin/contracts/token/ERC20/IERC20.sol\";\nimport \"@openzeppelin/contracts/utils/Pausable.sol\";\nimport \"@openzeppelin/contracts/interfaces/IERC1271.sol\";\nimport \"@openzeppelin/contracts/token/ERC20/extensions/IERC20Permit.sol\";\nimport \"@openzeppelin/contracts/access/Ownable.sol\";\n\n/**\n * @title IWETH\n * @dev Interface for wrapper as WETH-like token.\n */\ninterface IWETH is IERC20 {\n    /**\n     * @notice Emitted when Ether is deposited to get wrapper tokens.\n     */\n    event Deposit(address indexed dst, uint256 wad);\n\n    /**\n     * @notice Emitted when wrapper tokens is withdrawn as Ether.\n     */\n    event Withdrawal(address indexed src, uint256 wad);\n\n    /**\n     * @notice Deposit Ether to get wrapper tokens.\n     */\n    function deposit() external payable;\n\n    /**\n     * @notice Withdraw wrapped tokens as Ether.\n     * @param amount Amount of wrapped tokens to withdraw.\n     */\n    function withdraw(uint256 amount) external;\n}\n\n\n/**\n * @title IDaiLikePermit\n * @dev Interface for Dai-like permit function allowing token spending via signatures.\n */\ninterface IDaiLikePermit {\n    /**\n     * @notice Approves spending of tokens via off-chain signatures.\n     * @param holder Token holder's address.\n     * @param spender Spender's address.\n     * @param nonce Current nonce of the holder.\n     * @param expiry Time when the permit expires.\n     * @param allowed True to allow, false to disallow spending.\n     * @param v, r, s Signature components.\n     */\n    function permit(\n        address holder,\n        address spender,\n        uint256 nonce,\n        uint256 expiry,\n        bool allowed,\n        uint8 v,\n        bytes32 r,\n        bytes32 s\n    ) external;\n}\n\n/**\n * @title IPermit2\n * @dev Interface for a flexible permit system that extends ERC20 tokens to support permits in tokens lacking native permit functionality.\n */\ninterface IPermit2 {\n    /**\n     * @dev Struct for holding permit details.\n     * @param token ERC20 token address for which the permit is issued.\n     * @param amount The maximum amount allowed to spend.\n     * @param expiration Timestamp until which the permit is valid.\n     * @param nonce An incrementing value for each signature, unique per owner, token, and spender.\n     */\n    struct PermitDetails {\n        address token;\n        uint160 amount;\n        uint48 expiration;\n        uint48 nonce;\n    }\n\n    /**\n     * @dev Struct for a single token allowance permit.\n     * @param details Permit details including token, amount, expiration, and nonce.\n     * @param spender Address authorized to spend the tokens.\n     * @param sigDeadline Deadline for the permit signature, ensuring timeliness of the permit.\n     */\n    struct PermitSingle {\n        PermitDetails details;\n        address spender;\n        uint256 sigDeadline;\n    }\n\n    /**\n     * @dev Struct for packed allowance data to optimize storage.\n     * @param amount Amount allowed.\n     * @param expiration Permission expiry timestamp.\n     * @param nonce Unique incrementing value for tracking allowances.\n     */\n    struct PackedAllowance {\n        uint160 amount;\n        uint48 expiration;\n        uint48 nonce;\n    }\n\n    /**\n     * @notice Executes a token transfer from one address to another.\n     * @param user The token owner's address.\n     * @param spender The address authorized to spend the tokens.\n     * @param amount The amount of tokens to transfer.\n     * @param token The address of the token being transferred.\n     */\n    function transferFrom(address user, address spender, uint160 amount, address token) external;\n\n    /**\n     * @notice Issues a permit for spending tokens via a signed authorization.\n     * @param owner The token owner's address.\n     * @param permitSingle Struct containing the permit details.\n     * @param signature The signature proving the owner authorized the permit.\n     */\n    function permit(address owner, PermitSingle memory permitSingle, bytes calldata signature) external;\n\n    /**\n     * @notice Retrieves the allowance details between a token owner and spender.\n     * @param user The token owner's address.\n     * @param token The token address.\n     * @param spender The spender's address.\n     * @return The packed allowance details.\n     */\n    function allowance(address user, address token, address spender) external view returns (PackedAllowance memory);\n\n    /**\n     * @notice Approves the spender to use up to amount of the specified token up until the expiration\n     * @param token The token to approve\n     * @param spender The spender address to approve\n     * @param amount The approved amount of the token\n     * @param expiration The timestamp at which the approval is no longer valid\n     * @dev The packed allowance also holds a nonce, which will stay unchanged in approve\n     * @dev Setting amount to type(uint160).max sets an unlimited approval\n     */\n    function approve(address token, address spender, uint160 amount, uint48 expiration) external;\n}\n\n/**\n * @title IERC7597Permit\n * @dev A new extension for ERC-2612 permit, which has already been added to USDC v2.2.\n */\ninterface IERC7597Permit {\n    /**\n     * @notice Update allowance with a signed permit.\n     * @dev Signature bytes can be used for both EOA wallets and contract wallets.\n     * @param owner Token owner's address (Authorizer).\n     * @param spender Spender's address.\n     * @param value Amount of allowance.\n     * @param deadline The time at which the signature expires (unixtime).\n     * @param signature Unstructured bytes signature signed by an EOA wallet or a contract wallet.\n     */\n    function permit(\n        address owner,\n        address spender,\n        uint256 value,\n        uint256 deadline,\n        bytes memory signature\n    ) external;\n}\n\n\n/**\n * @title RevertReasonForwarder\n * @notice Provides utilities for forwarding and retrieving revert reasons from failed external calls.\n */\nlibrary RevertReasonForwarder {\n    /**\n     * @dev Forwards the revert reason from the latest external call.\n     * This method allows propagating the revert reason of a failed external call to the caller.\n     */\n    function reRevert() internal pure {\n        // bubble up revert reason from latest external call\n        assembly (\"memory-safe\") { // solhint-disable-line no-inline-assembly\n            let ptr := mload(0x40)\n            returndatacopy(ptr, 0, returndatasize())\n            revert(ptr, returndatasize())\n        }\n    }\n\n    /**\n     * @dev Retrieves the revert reason from the latest external call.\n     * This method enables capturing the revert reason of a failed external call for inspection or processing.\n     * @return reason The latest external call revert reason.\n     */\n    function reReason() internal pure returns (bytes memory reason) {\n        assembly (\"memory-safe\") { // solhint-disable-line no-inline-assembly\n            reason := mload(0x40)\n            let length := returndatasize()\n            mstore(reason, length)\n            returndatacopy(add(reason, 0x20), 0, length)\n            mstore(0x40, add(reason, add(0x20, length)))\n        }\n    }\n}\n\n/**\n * @title Implements efficient safe methods for ERC20 interface.\n * @notice Compared to the standard ERC20, this implementation offers several enhancements:\n * 1. more gas-efficient, providing significant savings in transaction costs.\n * 2. support for different permit implementations\n * 3. forceApprove functionality\n * 4. support for WETH deposit and withdraw\n */\nlibrary SafeERC20 {\n    error SafeTransferFailed();\n    error SafeTransferFromFailed();\n    error ForceApproveFailed();\n    error SafeIncreaseAllowanceFailed();\n    error SafeDecreaseAllowanceFailed();\n    error SafePermitBadLength();\n    error Permit2TransferAmountTooHigh();\n\n    // Uniswap Permit2 address\n    address private constant _PERMIT2 = 0x000000000022D473030F116dDEE9F6B43aC78BA3;\n    address private constant _PERMIT2_ZKSYNC = 0x0000000000225e31D15943971F47aD3022F714Fa;\n    bytes4 private constant _PERMIT_LENGTH_ERROR = 0x68275857;  // SafePermitBadLength.selector\n\n    /**\n     * @notice Fetches the balance of a specific ERC20 token held by an account.\n     * Consumes less gas then regular `ERC20.balanceOf`.\n     * @dev Note that the implementation does not perform dirty bits cleaning, so it is the\n     * responsibility of the caller to make sure that the higher 96 bits of the `account` parameter are clean.\n     * @param token The IERC20 token contract for which the balance will be fetched.\n     * @param account The address of the account whose token balance will be fetched.\n     * @return tokenBalance The balance of the specified ERC20 token held by the account.\n     */\n    function safeBalanceOf(\n        IERC20 token,\n        address account\n    ) internal view returns(uint256 tokenBalance) {\n        bytes4 selector = IERC20.balanceOf.selector;\n        assembly (\"memory-safe\") { // solhint-disable-line no-inline-assembly\n            mstore(0x00, selector)\n            mstore(0x04, account)\n            let success := staticcall(gas(), token, 0x00, 0x24, 0x00, 0x20)\n            tokenBalance := mload(0)\n\n            if or(iszero(success), lt(returndatasize(), 0x20)) {\n                let ptr := mload(0x40)\n                returndatacopy(ptr, 0, returndatasize())\n                revert(ptr, returndatasize())\n            }\n        }\n    }\n\n    /**\n     * @notice Attempts to safely transfer tokens from one address to another.\n     * @dev If permit2 is true, uses the Permit2 standard; otherwise uses the standard ERC20 transferFrom.\n     * Either requires `true` in return data, or requires target to be smart-contract and empty return data.\n     * Note that the implementation does not perform dirty bits cleaning, so it is the responsibility of\n     * the caller to make sure that the higher 96 bits of the `from` and `to` parameters are clean.\n     * @param token The IERC20 token contract from which the tokens will be transferred.\n     * @param from The address from which the tokens will be transferred.\n     * @param to The address to which the tokens will be transferred.\n     * @param amount The amount of tokens to transfer.\n     * @param permit2 If true, uses the Permit2 standard for the transfer; otherwise uses the standard ERC20 transferFrom.\n     */\n    function safeTransferFromUniversal(\n        IERC20 token,\n        address from,\n        address to,\n        uint256 amount,\n        bool permit2\n    ) internal {\n        if (permit2) {\n            safeTransferFromPermit2(token, from, to, amount);\n        } else {\n            safeTransferFrom(token, from, to, amount);\n        }\n    }\n\n    /**\n     * @notice Attempts to safely transfer tokens from one address to another using the ERC20 standard.\n     * @dev Either requires `true` in return data, or requires target to be smart-contract and empty return data.\n     * Note that the implementation does not perform dirty bits cleaning, so it is the responsibility of\n     * the caller to make sure that the higher 96 bits of the `from` and `to` parameters are clean.\n     * @param token The IERC20 token contract from which the tokens will be transferred.\n     * @param from The address from which the tokens will be transferred.\n     * @param to The address to which the tokens will be transferred.\n     * @param amount The amount of tokens to transfer.\n     */\n    function safeTransferFrom(\n        IERC20 token,\n        address from,\n        address to,\n        uint256 amount\n    ) internal {\n        bytes4 selector = token.transferFrom.selector;\n        bool success;\n        assembly (\"memory-safe\") { // solhint-disable-line no-inline-assembly\n            let data := mload(0x40)\n\n            mstore(data, selector)\n            mstore(add(data, 0x04), from)\n            mstore(add(data, 0x24), to)\n            mstore(add(data, 0x44), amount)\n            success := call(gas(), token, 0, data, 0x64, 0x0, 0x20)\n            if success {\n                switch returndatasize()\n                case 0 {\n                    success := gt(extcodesize(token), 0)\n                }\n                default {\n                    success := and(gt(returndatasize(), 31), eq(mload(0), 1))\n                }\n            }\n        }\n        if (!success) revert SafeTransferFromFailed();\n    }\n\n    /**\n     * @notice Attempts to safely transfer tokens from one address to another using the Permit2 standard.\n     * @dev Either requires `true` in return data, or requires target to be smart-contract and empty return data.\n     * Note that the implementation does not perform dirty bits cleaning, so it is the responsibility of\n     * the caller to make sure that the higher 96 bits of the `from` and `to` parameters are clean.\n     * @param token The IERC20 token contract from which the tokens will be transferred.\n     * @param from The address from which the tokens will be transferred.\n     * @param to The address to which the tokens will be transferred.\n     * @param amount The amount of tokens to transfer.\n     */\n    function safeTransferFromPermit2(\n        IERC20 token,\n        address from,\n        address to,\n        uint256 amount\n    ) internal {\n        if (amount > type(uint160).max) revert Permit2TransferAmountTooHigh();\n        address permit2 = _getPermit2Address();\n        bytes4 selector = IPermit2.transferFrom.selector;\n        bool success;\n        assembly (\"memory-safe\") { // solhint-disable-line no-inline-assembly\n            let data := mload(0x40)\n\n            mstore(data, selector)\n            mstore(add(data, 0x04), from)\n            mstore(add(data, 0x24), to)\n            mstore(add(data, 0x44), amount)\n            mstore(add(data, 0x64), token)\n            success := call(gas(), permit2, 0, data, 0x84, 0x0, 0x0)\n            if success {\n                success := gt(extcodesize(permit2), 0)\n            }\n        }\n        if (!success) revert SafeTransferFromFailed();\n    }\n\n    /**\n     * @notice Attempts to safely transfer tokens to another address.\n     * @dev Either requires `true` in return data, or requires target to be smart-contract and empty return data.\n     * Note that the implementation does not perform dirty bits cleaning, so it is the responsibility of\n     * the caller to make sure that the higher 96 bits of the `to` parameter are clean.\n     * @param token The IERC20 token contract from which the tokens will be transferred.\n     * @param to The address to which the tokens will be transferred.\n     * @param amount The amount of tokens to transfer.\n     */\n    function safeTransfer(\n        IERC20 token,\n        address to,\n        uint256 amount\n    ) internal {\n        if (!_makeCall(token, token.transfer.selector, to, amount)) {\n            revert SafeTransferFailed();\n        }\n    }\n\n    /**\n     * @notice Attempts to approve a spender to spend a certain amount of tokens.\n     * @dev If `approve(from, to, amount)` fails, it tries to set the allowance to zero, and retries the `approve` call.\n     * Note that the implementation does not perform dirty bits cleaning, so it is the responsibility of\n     * the caller to make sure that the higher 96 bits of the `spender` parameter are clean.\n     * @param token The IERC20 token contract on which the call will be made.\n     * @param spender The address which will spend the funds.\n     * @param value The amount of tokens to be spent.\n     */\n    function forceApprove(\n        IERC20 token,\n        address spender,\n        uint256 value\n    ) internal {\n        if (!_makeCall(token, token.approve.selector, spender, value)) {\n            if (\n                !_makeCall(token, token.approve.selector, spender, 0) ||\n                !_makeCall(token, token.approve.selector, spender, value)\n            ) {\n                revert ForceApproveFailed();\n            }\n        }\n    }\n\n    /**\n     * @notice Safely increases the allowance of a spender.\n     * @dev Increases with safe math check. Checks if the increased allowance will overflow, if yes, then it reverts the transaction.\n     * Then uses `forceApprove` to increase the allowance.\n     * Note that the implementation does not perform dirty bits cleaning, so it is the responsibility of\n     * the caller to make sure that the higher 96 bits of the `spender` parameter are clean.\n     * @param token The IERC20 token contract on which the call will be made.\n     * @param spender The address which will spend the funds.\n     * @param value The amount of tokens to increase the allowance by.\n     */\n    function safeIncreaseAllowance(\n        IERC20 token,\n        address spender,\n        uint256 value\n    ) internal {\n        uint256 allowance = token.allowance(address(this), spender);\n        if (value > type(uint256).max - allowance) revert SafeIncreaseAllowanceFailed();\n        forceApprove(token, spender, allowance + value);\n    }\n\n    /**\n     * @notice Safely decreases the allowance of a spender.\n     * @dev Decreases with safe math check. Checks if the decreased allowance will underflow, if yes, then it reverts the transaction.\n     * Then uses `forceApprove` to increase the allowance.\n     * Note that the implementation does not perform dirty bits cleaning, so it is the responsibility of\n     * the caller to make sure that the higher 96 bits of the `spender` parameter are clean.\n     * @param token The IERC20 token contract on which the call will be made.\n     * @param spender The address which will spend the funds.\n     * @param value The amount of tokens to decrease the allowance by.\n     */\n    function safeDecreaseAllowance(\n        IERC20 token,\n        address spender,\n        uint256 value\n    ) internal {\n        uint256 allowance = token.allowance(address(this), spender);\n        if (value > allowance) revert SafeDecreaseAllowanceFailed();\n        forceApprove(token, spender, allowance - value);\n    }\n\n    /**\n     * @notice Attempts to execute the `permit` function on the provided token with the sender and contract as parameters.\n     * Permit type is determined automatically based on permit calldata (IERC20Permit, IDaiLikePermit, and IPermit2).\n     * @dev Wraps `tryPermit` function and forwards revert reason if permit fails.\n     * @param token The IERC20 token to execute the permit function on.\n     * @param permit The permit data to be used in the function call.\n     */\n    function safePermit(IERC20 token, bytes calldata permit) internal {\n        if (!tryPermit(token, msg.sender, address(this), permit)) RevertReasonForwarder.reRevert();\n    }\n\n    /**\n     * @notice Attempts to execute the `permit` function on the provided token with custom owner and spender parameters.\n     * Permit type is determined automatically based on permit calldata (IERC20Permit, IDaiLikePermit, and IPermit2).\n     * @dev Wraps `tryPermit` function and forwards revert reason if permit fails.\n     * Note that the implementation does not perform dirty bits cleaning, so it is the responsibility of\n     * the caller to make sure that the higher 96 bits of the `owner` and `spender` parameters are clean.\n     * @param token The IERC20 token to execute the permit function on.\n     * @param owner The owner of the tokens for which the permit is made.\n     * @param spender The spender allowed to spend the tokens by the permit.\n     * @param permit The permit data to be used in the function call.\n     */\n    function safePermit(IERC20 token, address owner, address spender, bytes calldata permit) internal {\n        if (!tryPermit(token, owner, spender, permit)) RevertReasonForwarder.reRevert();\n    }\n\n    /**\n     * @notice Attempts to execute the `permit` function on the provided token with the sender and contract as parameters.\n     * @dev Invokes `tryPermit` with sender as owner and contract as spender.\n     * @param token The IERC20 token to execute the permit function on.\n     * @param permit The permit data to be used in the function call.\n     * @return success Returns true if the permit function was successfully executed, false otherwise.\n     */\n    function tryPermit(IERC20 token, bytes calldata permit) internal returns(bool success) {\n        return tryPermit(token, msg.sender, address(this), permit);\n    }\n\n    /**\n     * @notice The function attempts to call the permit function on a given ERC20 token.\n     * @dev The function is designed to support a variety of permit functions, namely: IERC20Permit, IDaiLikePermit, IERC7597Permit and IPermit2.\n     * It accommodates both Compact and Full formats of these permit types.\n     * Please note, it is expected that the `expiration` parameter for the compact Permit2 and the `deadline` parameter\n     * for the compact Permit are to be incremented by one before invoking this function. This approach is motivated by\n     * gas efficiency considerations; as the unlimited expiration period is likely to be the most common scenario, and\n     * zeros are cheaper to pass in terms of gas cost. Thus, callers should increment the expiration or deadline by one\n     * before invocation for optimized performance.\n     * Note that the implementation does not perform dirty bits cleaning, so it is the responsibility of\n     * the caller to make sure that the higher 96 bits of the `owner` and `spender` parameters are clean.\n     * @param token The address of the ERC20 token on which to call the permit function.\n     * @param owner The owner of the tokens. This address should have signed the off-chain permit.\n     * @param spender The address which will be approved for transfer of tokens.\n     * @param permit The off-chain permit data, containing different fields depending on the type of permit function.\n     * @return success A boolean indicating whether the permit call was successful.\n     */\n    function tryPermit(IERC20 token, address owner, address spender, bytes calldata permit) internal returns(bool success) {\n        address permit2 = _getPermit2Address();\n        // load function selectors for different permit standards\n        bytes4 permitSelector = IERC20Permit.permit.selector;\n        bytes4 daiPermitSelector = IDaiLikePermit.permit.selector;\n        bytes4 permit2Selector = IPermit2.permit.selector;\n        bytes4 erc7597PermitSelector = IERC7597Permit.permit.selector;\n        assembly (\"memory-safe\") { // solhint-disable-line no-inline-assembly\n            let ptr := mload(0x40)\n\n            // Switch case for different permit lengths, indicating different permit standards\n            switch permit.length\n            // Compact IERC20Permit\n            case 100 {\n                mstore(ptr, permitSelector)     // store selector\n                mstore(add(ptr, 0x04), owner)   // store owner\n                mstore(add(ptr, 0x24), spender) // store spender\n\n                // Compact IERC20Permit.permit(uint256 value, uint32 deadline, uint256 r, uint256 vs)\n                {  // stack too deep\n                    let deadline := shr(224, calldataload(add(permit.offset, 0x20))) // loads permit.offset 0x20..0x23\n                    let vs := calldataload(add(permit.offset, 0x44))                 // loads permit.offset 0x44..0x63\n\n                    calldatacopy(add(ptr, 0x44), permit.offset, 0x20)            // store value     = copy permit.offset 0x00..0x19\n                    mstore(add(ptr, 0x64), sub(deadline, 1))                     // store deadline  = deadline - 1\n                    mstore(add(ptr, 0x84), add(27, shr(255, vs)))                // store v         = most significant bit of vs + 27 (27 or 28)\n                    calldatacopy(add(ptr, 0xa4), add(permit.offset, 0x24), 0x20) // store r         = copy permit.offset 0x24..0x43\n                    mstore(add(ptr, 0xc4), shr(1, shl(1, vs)))                   // store s         = vs without most significant bit\n                }\n                // IERC20Permit.permit(address owner, address spender, uint256 value, uint256 deadline, uint8 v, bytes32 r, bytes32 s)\n                success := call(gas(), token, 0, ptr, 0xe4, 0, 0)\n            }\n            // Compact IDaiLikePermit\n            case 72 {\n                mstore(ptr, daiPermitSelector)  // store selector\n                mstore(add(ptr, 0x04), owner)   // store owner\n                mstore(add(ptr, 0x24), spender) // store spender\n\n                // Compact IDaiLikePermit.permit(uint32 nonce, uint32 expiry, uint256 r, uint256 vs)\n                {  // stack too deep\n                    let expiry := shr(224, calldataload(add(permit.offset, 0x04))) // loads permit.offset 0x04..0x07\n                    let vs := calldataload(add(permit.offset, 0x28))               // loads permit.offset 0x28..0x47\n\n                    mstore(add(ptr, 0x44), shr(224, calldataload(permit.offset))) // store nonce   = copy permit.offset 0x00..0x03\n                    mstore(add(ptr, 0x64), sub(expiry, 1))                        // store expiry  = expiry - 1\n                    mstore(add(ptr, 0x84), true)                                  // store allowed = true\n                    mstore(add(ptr, 0xa4), add(27, shr(255, vs)))                 // store v       = most significant bit of vs + 27 (27 or 28)\n                    calldatacopy(add(ptr, 0xc4), add(permit.offset, 0x08), 0x20)  // store r       = copy permit.offset 0x08..0x27\n                    mstore(add(ptr, 0xe4), shr(1, shl(1, vs)))                    // store s       = vs without most significant bit\n                }\n                // IDaiLikePermit.permit(address holder, address spender, uint256 nonce, uint256 expiry, bool allowed, uint8 v, bytes32 r, bytes32 s)\n                success := call(gas(), token, 0, ptr, 0x104, 0, 0)\n            }\n            // IERC20Permit\n            case 224 {\n                mstore(ptr, permitSelector)\n                calldatacopy(add(ptr, 0x04), permit.offset, permit.length) // copy permit calldata\n                // IERC20Permit.permit(address owner, address spender, uint256 value, uint256 deadline, uint8 v, bytes32 r, bytes32 s)\n                success := call(gas(), token, 0, ptr, 0xe4, 0, 0)\n            }\n            // IDaiLikePermit\n            case 256 {\n                mstore(ptr, daiPermitSelector)\n                calldatacopy(add(ptr, 0x04), permit.offset, permit.length) // copy permit calldata\n                // IDaiLikePermit.permit(address holder, address spender, uint256 nonce, uint256 expiry, bool allowed, uint8 v, bytes32 r, bytes32 s)\n                success := call(gas(), token, 0, ptr, 0x104, 0, 0)\n            }\n            // Compact IPermit2\n            case 96 {\n                // Compact IPermit2.permit(uint160 amount, uint32 expiration, uint32 nonce, uint32 sigDeadline, uint256 r, uint256 vs)\n                mstore(ptr, permit2Selector)  // store selector\n                mstore(add(ptr, 0x04), owner) // store owner\n                mstore(add(ptr, 0x24), token) // store token\n\n                calldatacopy(add(ptr, 0x50), permit.offset, 0x14)             // store amount = copy permit.offset 0x00..0x13\n                // and(0xffffffffffff, ...) - conversion to uint48\n                mstore(add(ptr, 0x64), and(0xffffffffffff, sub(shr(224, calldataload(add(permit.offset, 0x14))), 1))) // store expiration = ((permit.offset 0x14..0x17 - 1) & 0xffffffffffff)\n                mstore(add(ptr, 0x84), shr(224, calldataload(add(permit.offset, 0x18)))) // store nonce = copy permit.offset 0x18..0x1b\n                mstore(add(ptr, 0xa4), spender)                               // store spender\n                // and(0xffffffffffff, ...) - conversion to uint48\n                mstore(add(ptr, 0xc4), and(0xffffffffffff, sub(shr(224, calldataload(add(permit.offset, 0x1c))), 1))) // store sigDeadline = ((permit.offset 0x1c..0x1f - 1) & 0xffffffffffff)\n                mstore(add(ptr, 0xe4), 0x100)                                 // store offset = 256\n                mstore(add(ptr, 0x104), 0x40)                                 // store length = 64\n                calldatacopy(add(ptr, 0x124), add(permit.offset, 0x20), 0x20) // store r      = copy permit.offset 0x20..0x3f\n                calldatacopy(add(ptr, 0x144), add(permit.offset, 0x40), 0x20) // store vs     = copy permit.offset 0x40..0x5f\n                // IPermit2.permit(address owner, PermitSingle calldata permitSingle, bytes calldata signature)\n                success := call(gas(), permit2, 0, ptr, 0x164, 0, 0)\n            }\n            // IPermit2\n            case 352 {\n                mstore(ptr, permit2Selector)\n                calldatacopy(add(ptr, 0x04), permit.offset, permit.length) // copy permit calldata\n                // IPermit2.permit(address owner, PermitSingle calldata permitSingle, bytes calldata signature)\n                success := call(gas(), permit2, 0, ptr, 0x164, 0, 0)\n            }\n            // Dynamic length\n            default {\n                mstore(ptr, erc7597PermitSelector)\n                calldatacopy(add(ptr, 0x04), permit.offset, permit.length) // copy permit calldata\n                // IERC7597Permit.permit(address owner, address spender, uint256 value, uint256 deadline, bytes memory signature)\n                success := call(gas(), token, 0, ptr, add(permit.length, 4), 0, 0)\n            }\n        }\n    }\n\n    /**\n     * @dev Executes a low level call to a token contract, making it resistant to reversion and erroneous boolean returns.\n     * @param token The IERC20 token contract on which the call will be made.\n     * @param selector The function signature that is to be called on the token contract.\n     * @param to The address to which the token amount will be transferred.\n     * @param amount The token amount to be transferred.\n     * @return success A boolean indicating if the call was successful. Returns 'true' on success and 'false' on failure.\n     * In case of success but no returned data, validates that the contract code exists.\n     * In case of returned data, ensures that it's a boolean `true`.\n     */\n    function _makeCall(\n        IERC20 token,\n        bytes4 selector,\n        address to,\n        uint256 amount\n    ) private returns (bool success) {\n        assembly (\"memory-safe\") { // solhint-disable-line no-inline-assembly\n            let data := mload(0x40)\n\n            mstore(data, selector)\n            mstore(add(data, 0x04), to)\n            mstore(add(data, 0x24), amount)\n            success := call(gas(), token, 0, data, 0x44, 0x0, 0x20)\n            if success {\n                switch returndatasize()\n                case 0 {\n                    success := gt(extcodesize(token), 0)\n                }\n                default {\n                    success := and(gt(returndatasize(), 31), eq(mload(0), 1))\n                }\n            }\n        }\n    }\n\n    /**\n     * @notice Safely deposits a specified amount of Ether into the IWETH contract. Consumes less gas then regular `IWETH.deposit`.\n     * @param weth The IWETH token contract.\n     * @param amount The amount of Ether to deposit into the IWETH contract.\n     */\n    function safeDeposit(IWETH weth, uint256 amount) internal {\n        bytes4 selector = IWETH.deposit.selector;\n        assembly (\"memory-safe\") { // solhint-disable-line no-inline-assembly\n            mstore(0, selector)\n            if iszero(call(gas(), weth, amount, 0, 4, 0, 0)) {\n                let ptr := mload(0x40)\n                returndatacopy(ptr, 0, returndatasize())\n                revert(ptr, returndatasize())\n            }\n        }\n    }\n\n    /**\n     * @notice Safely withdraws a specified amount of wrapped Ether from the IWETH contract. Consumes less gas then regular `IWETH.withdraw`.\n     * @dev Uses inline assembly to interact with the IWETH contract.\n     * @param weth The IWETH token contract.\n     * @param amount The amount of wrapped Ether to withdraw from the IWETH contract.\n     */\n    function safeWithdraw(IWETH weth, uint256 amount) internal {\n        bytes4 selector = IWETH.withdraw.selector;\n        assembly (\"memory-safe\") {  // solhint-disable-line no-inline-assembly\n            mstore(0, selector)\n            mstore(4, amount)\n            if iszero(call(gas(), weth, 0, 0, 0x24, 0, 0)) {\n                let ptr := mload(0x40)\n                returndatacopy(ptr, 0, returndatasize())\n                revert(ptr, returndatasize())\n            }\n        }\n    }\n\n    /**\n     * @notice Safely withdraws a specified amount of wrapped Ether from the IWETH contract to a specified recipient.\n     * Consumes less gas then regular `IWETH.withdraw`.\n     * @param weth The IWETH token contract.\n     * @param amount The amount of wrapped Ether to withdraw from the IWETH contract.\n     * @param to The recipient of the withdrawn Ether.\n     */\n    function safeWithdrawTo(IWETH weth, uint256 amount, address to) internal {\n        safeWithdraw(weth, amount);\n        if (to != address(this)) {\n            assembly (\"memory-safe\") {  // solhint-disable-line no-inline-assembly\n                if iszero(call(gas(), to, amount, 0, 0, 0, 0)) {\n                    let ptr := mload(0x40)\n                    returndatacopy(ptr, 0, returndatasize())\n                    revert(ptr, returndatasize())\n                }\n            }\n        }\n    }\n\n    function _getPermit2Address() private view returns (address permit2) {\n        assembly (\"memory-safe\") { // solhint-disable-line no-inline-assembly\n            switch chainid()\n            case 324 { // zksync mainnet\n                permit2 := _PERMIT2_ZKSYNC\n            }\n            case 300 { // zksync testnet\n                permit2 := _PERMIT2_ZKSYNC\n            }\n            case 260 { // zksync fork network\n                permit2 := _PERMIT2_ZKSYNC\n            }\n            default {\n                permit2 := _PERMIT2\n            }\n        }\n    }\n}\n\n\n/**\n * @title EthReceiver\n * @dev Abstract contract for rejecting direct ETH transfers from EOAs.\n * Implements a custom error and logic to reject ETH deposits from non-contract addresses.\n */\nabstract contract EthReceiver {\n    /// @dev Error thrown when an ETH deposit from an EOA is attempted.\n    error EthDepositRejected();\n\n    /// @dev External payable function to receive ETH, automatically rejects deposits from EOAs.\n    receive() external payable {\n        _receive();\n    }\n\n    /**\n     * @dev Internal function containing the logic to reject ETH deposits.\n     * Can be overridden by derived contracts for specific behaviors while maintaining the base rejection mechanism.\n     */\n    function _receive() internal virtual {\n        // solhint-disable-next-line avoid-tx-origin\n        if (msg.sender == tx.origin) revert EthDepositRejected();\n    }\n}\n\n\n/**\n * @title OnlyWethReceiver\n * @dev Abstract contract extending EthReceiver to accept only ETH deposits from a specified WETH contract.\n * This contract ensures that only wrapped ETH (WETH) can be deposited, rejecting all other direct ETH transfers.\n */\nabstract contract OnlyWethReceiver is EthReceiver {\n    /// @notice Address of the WETH contract allowed to deposit ETH.\n    address private immutable _WETH; // solhint-disable-line var-name-mixedcase\n\n    /**\n     * @dev Sets the WETH contract address during construction.\n     * @param weth Address of the WETH contract.\n     */\n    constructor(address weth) {\n        _WETH = address(weth);\n    }\n\n    /**\n     * @dev Overrides _receive to restrict ETH transfers solely to the WETH contract.\n     * Reverts with EthDepositRejected if ETH is sent from any other address.\n     */\n    function _receive() internal virtual override {\n        if (msg.sender != _WETH) revert EthDepositRejected();\n    }\n}\n\n\n/**\n * @title PermitAndCall\n * @dev Abstract contract to support permit and action execution in a single transaction.\n * Allows tokens that implement EIP-2612 permits, DAI-like permits, USDC-like permits and Permit2 to be approved and spent in a single transaction.\n */\nabstract contract PermitAndCall {\n    using SafeERC20 for IERC20;\n\n    /**\n     * @notice Executes a permit for an ERC20 token and then a specified action in a single transaction.\n     * @param permit ERC20 token address (20 bytes) concatenated with the permit data, allowing this contract to spend the token.\n     * Format: [token address (20 bytes)][permit data]\n     * @param action The data representing the action to be executed after the permit.\n     */\n    function permitAndCall(bytes calldata permit, bytes calldata action) external payable {\n        IERC20(address(bytes20(permit))).tryPermit(permit[20:]);\n        // solhint-disable-next-line no-inline-assembly\n        assembly (\"memory-safe\") {\n            let ptr := mload(0x40)\n            calldatacopy(ptr, action.offset, action.length)\n            let success := delegatecall(gas(), address(), ptr, action.length, 0, 0)\n            returndatacopy(ptr, 0, returndatasize())\n            switch success\n            case 0 {\n                revert(ptr, returndatasize())\n            }\n            default {\n                return(ptr, returndatasize())\n            }\n        }\n    }\n}\n\n/**\n * @title ECDSA signature operations\n * @notice Provides functions for recovering addresses from signatures and verifying signatures, including support for EIP-2098 compact signatures.\n */\nlibrary ECDSA {\n    // EIP-2 still allows signature malleability for ecrecover(). Remove this possibility and make the signature\n    // unique. Appendix F in the Ethereum Yellow paper (https://ethereum.github.io/yellowpaper/paper.pdf), defines\n    // the valid range for s in (301): 0 < s < secp256k1n  2 + 1, and for v in (302): v  {27, 28}. Most\n    // signatures from current libraries generate a unique signature with an s-value in the lower half order.\n    //\n    // If your library generates malleable signatures, such as s-values in the upper range, calculate a new s-value\n    // with 0xFFFFFFFFFFFFFFFFFFFFFFFFFFFFFFFEBAAEDCE6AF48A03BBFD25E8CD0364141 - s1 and flip v from 27 to 28 or\n    // vice versa. If your library also generates signatures with 0/1 for v instead 27/28, add 27 to v to accept\n    // these malleable signatures as well.\n    uint256 private constant _S_BOUNDARY = 0x7FFFFFFFFFFFFFFFFFFFFFFFFFFFFFFF5D576E7357A4501DDFE92F46681B20A0 + 1;\n    uint256 private constant _COMPACT_S_MASK = 0x7fffffffffffffffffffffffffffffffffffffffffffffffffffffffffffffff;\n    uint256 private constant _COMPACT_V_SHIFT = 255;\n\n    /**\n     * @notice Recovers the signer's address from the signature.\n     * @dev Recovers the address that has signed a hash with `(v, r, s)` signature.\n     * @param hash The keccak256 hash of the data signed.\n     * @param v The recovery byte of the signature.\n     * @param r The first 32 bytes of the signature.\n     * @param s The second 32 bytes of the signature.\n     * @return signer The address of the signer.\n     */\n    function recover(\n        bytes32 hash,\n        uint8 v,\n        bytes32 r,\n        bytes32 s\n    ) internal view returns (address signer) {\n        assembly (\"memory-safe\") { // solhint-disable-line no-inline-assembly\n            if lt(s, _S_BOUNDARY) {\n                let ptr := mload(0x40)\n\n                mstore(ptr, hash)\n                mstore(add(ptr, 0x20), v)\n                mstore(add(ptr, 0x40), r)\n                mstore(add(ptr, 0x60), s)\n                mstore(0, 0)\n                pop(staticcall(gas(), 0x1, ptr, 0x80, 0, 0x20))\n                signer := mload(0)\n            }\n        }\n    }\n\n    /**\n     * @notice Recovers the signer's address from the signature using `r` and `vs` components.\n     * @dev Recovers the address that has signed a hash with `r` and `vs`, where `vs` combines `v` and `s`.\n     * @param hash The keccak256 hash of the data signed.\n     * @param r The first 32 bytes of the signature.\n     * @param vs The combined `v` and `s` values of the signature.\n     * @return signer The address of the signer.\n     */\n    function recover(\n        bytes32 hash,\n        bytes32 r,\n        bytes32 vs\n    ) internal view returns (address signer) {\n        assembly (\"memory-safe\") { // solhint-disable-line no-inline-assembly\n            let s := and(vs, _COMPACT_S_MASK)\n            if lt(s, _S_BOUNDARY) {\n                let ptr := mload(0x40)\n\n                mstore(ptr, hash)\n                mstore(add(ptr, 0x20), add(27, shr(_COMPACT_V_SHIFT, vs)))\n                mstore(add(ptr, 0x40), r)\n                mstore(add(ptr, 0x60), s)\n                mstore(0, 0)\n                pop(staticcall(gas(), 0x1, ptr, 0x80, 0, 0x20))\n                signer := mload(0)\n            }\n        }\n    }\n\n    /**\n     * @notice Recovers the signer's address from a hash and a signature.\n     * @param hash The keccak256 hash of the signed data.\n     * @param signature The full signature from which the signer will be recovered.\n     * @return signer The address of the signer.\n     */\n    /// @dev WARNING!!!\n    /// There is a known signature malleability issue with two representations of signatures!\n    /// Even though this function is able to verify both standard 65-byte and compact 64-byte EIP-2098 signatures\n    /// one should never use raw signatures for any kind of invalidation logic in their code.\n    /// As the standard and compact representations are interchangeable any invalidation logic that relies on\n    /// signature uniqueness will get rekt.\n    /// More info: https://github.com/OpenZeppelin/openzeppelin-contracts/security/advisories/GHSA-4h98-2769-gh6h\n    function recover(bytes32 hash, bytes calldata signature) internal view returns (address signer) {\n        assembly (\"memory-safe\") { // solhint-disable-line no-inline-assembly\n            let ptr := mload(0x40)\n\n            // memory[ptr:ptr+0x80] = (hash, v, r, s)\n            switch signature.length\n            case 65 {\n                // memory[ptr+0x20:ptr+0x80] = (v, r, s)\n                mstore(add(ptr, 0x20), byte(0, calldataload(add(signature.offset, 0x40))))\n                calldatacopy(add(ptr, 0x40), signature.offset, 0x40)\n            }\n            case 64 {\n                // memory[ptr+0x20:ptr+0x80] = (v, r, s)\n                let vs := calldataload(add(signature.offset, 0x20))\n                mstore(add(ptr, 0x20), add(27, shr(_COMPACT_V_SHIFT, vs)))\n                calldatacopy(add(ptr, 0x40), signature.offset, 0x20)\n                mstore(add(ptr, 0x60), and(vs, _COMPACT_S_MASK))\n            }\n            default {\n                ptr := 0\n            }\n\n            if ptr {\n                if lt(mload(add(ptr, 0x60)), _S_BOUNDARY) {\n                    // memory[ptr:ptr+0x20] = (hash)\n                    mstore(ptr, hash)\n\n                    mstore(0, 0)\n                    pop(staticcall(gas(), 0x1, ptr, 0x80, 0, 0x20))\n                    signer := mload(0)\n                }\n            }\n        }\n    }\n\n    /**\n     * @notice Verifies the signature for a hash, either by recovering the signer or using EIP-1271's `isValidSignature` function.\n     * @dev Attempts to recover the signer's address from the signature; if the address is non-zero, checks if it's valid according to EIP-1271.\n     * @param signer The address to validate the signature against.\n     * @param hash The hash of the signed data.\n     * @param signature The signature to verify.\n     * @return success True if the signature is verified, false otherwise.\n     */\n    function recoverOrIsValidSignature(\n        address signer,\n        bytes32 hash,\n        bytes calldata signature\n    ) internal view returns (bool success) {\n        if (signer == address(0)) return false;\n        if ((signature.length == 64 || signature.length == 65) && recover(hash, signature) == signer) {\n            return true;\n        }\n        return isValidSignature(signer, hash, signature);\n    }\n\n    /**\n     * @notice Verifies the signature for a hash, either by recovering the signer or using EIP-1271's `isValidSignature` function.\n     * @dev Attempts to recover the signer's address from the signature; if the address is non-zero, checks if it's valid according to EIP-1271.\n     * @param signer The address to validate the signature against.\n     * @param hash The hash of the signed data.\n     * @param v The recovery byte of the signature.\n     * @param r The first 32 bytes of the signature.\n     * @param s The second 32 bytes of the signature.\n     * @return success True if the signature is verified, false otherwise.\n     */\n    function recoverOrIsValidSignature(\n        address signer,\n        bytes32 hash,\n        uint8 v,\n        bytes32 r,\n        bytes32 s\n    ) internal view returns (bool success) {\n        if (signer == address(0)) return false;\n        if (recover(hash, v, r, s) == signer) {\n            return true;\n        }\n        return isValidSignature(signer, hash, v, r, s);\n    }\n\n    /**\n     * @notice Verifies the signature for a hash, either by recovering the signer or using EIP-1271's `isValidSignature` function.\n     * @dev Attempts to recover the signer's address from the signature; if the address is non-zero, checks if it's valid according to EIP-1271.\n     * @param signer The address to validate the signature against.\n     * @param hash The hash of the signed data.\n     * @param r The first 32 bytes of the signature.\n     * @param vs The combined `v` and `s` values of the signature.\n     * @return success True if the signature is verified, false otherwise.\n     */\n    function recoverOrIsValidSignature(\n        address signer,\n        bytes32 hash,\n        bytes32 r,\n        bytes32 vs\n    ) internal view returns (bool success) {\n        if (signer == address(0)) return false;\n        if (recover(hash, r, vs) == signer) {\n            return true;\n        }\n        return isValidSignature(signer, hash, r, vs);\n    }\n\n    /**\n     * @notice Verifies the signature for a given hash, attempting to recover the signer's address or validates it using EIP-1271 for 65-byte signatures.\n     * @dev Attempts to recover the signer's address from the signature. If the address is a contract, checks if the signature is valid according to EIP-1271.\n     * @param signer The expected signer's address.\n     * @param hash The keccak256 hash of the signed data.\n     * @param r The first 32 bytes of the signature.\n     * @param vs The last 32 bytes of the signature, with the last byte being the recovery id.\n     * @return success True if the signature is valid, false otherwise.\n     */\n    function recoverOrIsValidSignature65(\n        address signer,\n        bytes32 hash,\n        bytes32 r,\n        bytes32 vs\n    ) internal view returns (bool success) {\n        if (signer == address(0)) return false;\n        if (recover(hash, r, vs) == signer) {\n            return true;\n        }\n        return isValidSignature65(signer, hash, r, vs);\n    }\n\n    /**\n     * @notice Validates a signature for a hash using EIP-1271, if `signer` is a contract.\n     * @dev Makes a static call to `signer` with `isValidSignature` function selector from EIP-1271.\n     * @param signer The address of the signer to validate against, which could be an EOA or a contract.\n     * @param hash The hash of the signed data.\n     * @param signature The signature to validate.\n     * @return success True if the signature is valid according to EIP-1271, false otherwise.\n     */\n    function isValidSignature(\n        address signer,\n        bytes32 hash,\n        bytes calldata signature\n    ) internal view returns (bool success) {\n        // (bool success, bytes memory data) = signer.staticcall(abi.encodeWithSelector(IERC1271.isValidSignature.selector, hash, signature));\n        // return success && data.length == 32 && abi.decode(data, (bytes4)) == IERC1271.isValidSignature.selector;\n        bytes4 selector = IERC1271.isValidSignature.selector;\n        assembly (\"memory-safe\") { // solhint-disable-line no-inline-assembly\n            let ptr := mload(0x40)\n\n            mstore(ptr, selector)\n            mstore(add(ptr, 0x04), hash)\n            mstore(add(ptr, 0x24), 0x40)\n            mstore(add(ptr, 0x44), signature.length)\n            calldatacopy(add(ptr, 0x64), signature.offset, signature.length)\n            if staticcall(gas(), signer, ptr, add(0x64, signature.length), 0, 0x20) {\n                success := and(eq(selector, mload(0)), eq(returndatasize(), 0x20))\n            }\n        }\n    }\n\n    /**\n     * @notice Validates a signature for a hash using EIP-1271, if `signer` is a contract.\n     * @dev Makes a static call to `signer` with `isValidSignature` function selector from EIP-1271.\n     * @param signer The address of the signer to validate against, which could be an EOA or a contract.\n     * @param hash The hash of the signed data.\n     * @param v The recovery byte of the signature.\n     * @param r The first 32 bytes of the signature.\n     * @param s The second 32 bytes of the signature.\n     * @return success True if the signature is valid according to EIP-1271, false otherwise.\n     */\n    function isValidSignature(\n        address signer,\n        bytes32 hash,\n        uint8 v,\n        bytes32 r,\n        bytes32 s\n    ) internal view returns (bool success) {\n        bytes4 selector = IERC1271.isValidSignature.selector;\n        assembly (\"memory-safe\") { // solhint-disable-line no-inline-assembly\n            let ptr := mload(0x40)\n\n            mstore(ptr, selector)\n            mstore(add(ptr, 0x04), hash)\n            mstore(add(ptr, 0x24), 0x40)\n            mstore(add(ptr, 0x44), 65)\n            mstore(add(ptr, 0x64), r)\n            mstore(add(ptr, 0x84), s)\n            mstore8(add(ptr, 0xa4), v)\n            if staticcall(gas(), signer, ptr, 0xa5, 0, 0x20) {\n                success := and(eq(selector, mload(0)), eq(returndatasize(), 0x20))\n            }\n        }\n    }\n\n    /**\n     * @notice Validates a signature for a hash using EIP-1271, if `signer` is a contract.\n     * @dev Makes a static call to `signer` with `isValidSignature` function selector from EIP-1271.\n     * @param signer The address of the signer to validate against, which could be an EOA or a contract.\n     * @param hash The hash of the signed data.\n     * @param r The first 32 bytes of the signature.\n     * @param vs The last 32 bytes of the signature, with the last byte being the recovery id.\n     * @return success True if the signature is valid according to EIP-1271, false otherwise.\n     */\n    function isValidSignature(\n        address signer,\n        bytes32 hash,\n        bytes32 r,\n        bytes32 vs\n    ) internal view returns (bool success) {\n        // (bool success, bytes memory data) = signer.staticcall(abi.encodeWithSelector(IERC1271.isValidSignature.selector, hash, abi.encodePacked(r, vs)));\n        // return success && data.length == 32 && abi.decode(data, (bytes4)) == IERC1271.isValidSignature.selector;\n        bytes4 selector = IERC1271.isValidSignature.selector;\n        assembly (\"memory-safe\") { // solhint-disable-line no-inline-assembly\n            let ptr := mload(0x40)\n\n            mstore(ptr, selector)\n            mstore(add(ptr, 0x04), hash)\n            mstore(add(ptr, 0x24), 0x40)\n            mstore(add(ptr, 0x44), 64)\n            mstore(add(ptr, 0x64), r)\n            mstore(add(ptr, 0x84), vs)\n            if staticcall(gas(), signer, ptr, 0xa4, 0, 0x20) {\n                success := and(eq(selector, mload(0)), eq(returndatasize(), 0x20))\n            }\n        }\n    }\n\n    /**\n     * @notice Verifies if a 65-byte signature is valid for a given hash, according to EIP-1271.\n     * @param signer The address of the signer to validate against, which could be an EOA or a contract.\n     * @param hash The hash of the signed data.\n     * @param r The first 32 bytes of the signature.\n     * @param vs The combined `v` (recovery id) and `s` component of the signature, packed into the last 32 bytes.\n     * @return success True if the signature is valid according to EIP-1271, false otherwise.\n     */\n    function isValidSignature65(\n        address signer,\n        bytes32 hash,\n        bytes32 r,\n        bytes32 vs\n    ) internal view returns (bool success) {\n        // (bool success, bytes memory data) = signer.staticcall(abi.encodeWithSelector(IERC1271.isValidSignature.selector, hash, abi.encodePacked(r, vs & ~uint256(1 << 255), uint8(vs >> 255))));\n        // return success && data.length == 32 && abi.decode(data, (bytes4)) == IERC1271.isValidSignature.selector;\n        bytes4 selector = IERC1271.isValidSignature.selector;\n        assembly (\"memory-safe\") { // solhint-disable-line no-inline-assembly\n            let ptr := mload(0x40)\n\n            mstore(ptr, selector)\n            mstore(add(ptr, 0x04), hash)\n            mstore(add(ptr, 0x24), 0x40)\n            mstore(add(ptr, 0x44), 65)\n            mstore(add(ptr, 0x64), r)\n            mstore(add(ptr, 0x84), and(vs, _COMPACT_S_MASK))\n            mstore8(add(ptr, 0xa4), add(27, shr(_COMPACT_V_SHIFT, vs)))\n            if staticcall(gas(), signer, ptr, 0xa5, 0, 0x20) {\n                success := and(eq(selector, mload(0)), eq(returndatasize(), 0x20))\n            }\n        }\n    }\n\n    /**\n     * @notice Generates a hash compatible with Ethereum's signed message format.\n     * @dev Prepends the hash with Ethereum's message prefix before hashing it.\n     * @param hash The hash of the data to sign.\n     * @return res The Ethereum signed message hash.\n     */\n    function toEthSignedMessageHash(bytes32 hash) internal pure returns (bytes32 res) {\n        // 32 is the length in bytes of hash, enforced by the type signature above\n        // return keccak256(abi.encodePacked(\"\\x19Ethereum Signed Message:\\n32\", hash));\n        assembly (\"memory-safe\") { // solhint-disable-line no-inline-assembly\n            mstore(0, 0x19457468657265756d205369676e6564204d6573736167653a0a333200000000) // \"\\x19Ethereum Signed Message:\\n32\"\n            mstore(28, hash)\n            res := keccak256(0, 60)\n        }\n    }\n\n    /**\n     * @notice Generates an EIP-712 compliant hash.\n     * @dev Encodes the domain separator and the struct hash according to EIP-712.\n     * @param domainSeparator The EIP-712 domain separator.\n     * @param structHash The EIP-712 struct hash.\n     * @return res The EIP-712 compliant hash.\n     */\n    function toTypedDataHash(bytes32 domainSeparator, bytes32 structHash) internal pure returns (bytes32 res) {\n        // return keccak256(abi.encodePacked(\"\\x19\\x01\", domainSeparator, structHash));\n        assembly (\"memory-safe\") { // solhint-disable-line no-inline-assembly\n            let ptr := mload(0x40)\n            mstore(ptr, 0x1901000000000000000000000000000000000000000000000000000000000000) // \"\\x19\\x01\"\n            mstore(add(ptr, 0x02), domainSeparator)\n            mstore(add(ptr, 0x22), structHash)\n            res := keccak256(ptr, 66)\n        }\n    }\n}\n\ntype Address is uint256;\n\n/**\n* @notice AddressLib\n* @notice Library for working with addresses encoded as uint256 values, which can include flags in the highest bits.\n*/\nlibrary AddressLib {\n    uint256 private constant _LOW_160_BIT_MASK = (1 << 160) - 1;\n\n    /**\n    * @notice Returns the address representation of a uint256.\n    * @param a The uint256 value to convert to an address.\n    * @return The address representation of the provided uint256 value.\n    */\n    function get(Address a) internal pure returns (address) {\n        return address(uint160(Address.unwrap(a) & _LOW_160_BIT_MASK));\n    }\n\n    /**\n    * @notice Checks if a given flag is set for the provided address.\n    * @param a The address to check for the flag.\n    * @param flag The flag to check for in the provided address.\n    * @return True if the provided flag is set in the address, false otherwise.\n    */\n    function getFlag(Address a, uint256 flag) internal pure returns (bool) {\n        return (Address.unwrap(a) & flag) != 0;\n    }\n\n    /**\n    * @notice Returns a uint32 value stored at a specific bit offset in the provided address.\n    * @param a The address containing the uint32 value.\n    * @param offset The bit offset at which the uint32 value is stored.\n    * @return The uint32 value stored in the address at the specified bit offset.\n    */\n    function getUint32(Address a, uint256 offset) internal pure returns (uint32) {\n        return uint32(Address.unwrap(a) >> offset);\n    }\n\n    /**\n    * @notice Returns a uint64 value stored at a specific bit offset in the provided address.\n    * @param a The address containing the uint64 value.\n    * @param offset The bit offset at which the uint64 value is stored.\n    * @return The uint64 value stored in the address at the specified bit offset.\n    */\n    function getUint64(Address a, uint256 offset) internal pure returns (uint64) {\n        return uint64(Address.unwrap(a) >> offset);\n    }\n}\n\n/// @title A helper contract for executing boolean functions on arbitrary target call results\ncontract PredicateHelper {\n    error ArbitraryStaticCallFailed();\n\n    /// @notice Calls every target with corresponding data\n    /// @return Result True if call to any target returned True. Otherwise, false\n    function or(uint256 offsets, bytes calldata data) public view returns(bool) {\n        uint256 previous;\n        for (uint256 current; (current = uint32(offsets)) != 0; offsets >>= 32) {\n            (bool success, uint256 res) = _staticcallForUint(address(this), data[previous:current]);\n            if (success && res == 1) {\n                return true;\n            }\n            previous = current;\n        }\n        return false;\n    }\n\n    /// @notice Calls every target with corresponding data\n    /// @return Result True if calls to all targets returned True. Otherwise, false\n    function and(uint256 offsets, bytes calldata data) public view returns(bool) {\n        uint256 previous;\n        for (uint256 current; (current = uint32(offsets)) != 0; offsets >>= 32) {\n            (bool success, uint256 res) = _staticcallForUint(address(this), data[previous:current]);\n            if (!success || res != 1) {\n                return false;\n            }\n            previous = current;\n        }\n        return true;\n    }\n\n    /// @notice Calls target with specified data and tests if it's equal to 0\n    /// @return Result True if call to target returns 0. Otherwise, false\n    function not(bytes calldata data) public view returns(bool) {\n        (bool success, uint256 res) = _staticcallForUint(address(this), data);\n        return success && res == 0;\n    }\n\n    /// @notice Calls target with specified data and tests if it's equal to the value\n    /// @param value Value to test\n    /// @return Result True if call to target returns the same value as `value`. Otherwise, false\n    function eq(uint256 value, bytes calldata data) public view returns(bool) {\n        (bool success, uint256 res) = _staticcallForUint(address(this), data);\n        return success && res == value;\n    }\n\n    /// @notice Calls target with specified data and tests if it's lower than value\n    /// @param value Value to test\n    /// @return Result True if call to target returns value which is lower than `value`. Otherwise, false\n    function lt(uint256 value, bytes calldata data) public view returns(bool) {\n        (bool success, uint256 res) = _staticcallForUint(address(this), data);\n        return success && res < value;\n    }\n\n    /// @notice Calls target with specified data and tests if it's bigger than value\n    /// @param value Value to test\n    /// @return Result True if call to target returns value which is bigger than `value`. Otherwise, false\n    function gt(uint256 value, bytes calldata data) public view returns(bool) {\n        (bool success, uint256 res) = _staticcallForUint(address(this), data);\n        return success && res > value;\n    }\n\n    /// @notice Performs an arbitrary call to target with data\n    /// @return Result Bytes transmuted to uint256\n    function arbitraryStaticCall(address target, bytes calldata data) public view returns(uint256) {\n        (bool success, uint256 res) = _staticcallForUint(target, data);\n        if (!success) revert ArbitraryStaticCallFailed();\n        return res;\n    }\n\n    function _staticcallForUint(address target, bytes calldata data) internal view returns(bool success, uint256 res) {\n        assembly (\"memory-safe\") { // solhint-disable-line no-inline-assembly\n            let ptr := mload(0x40)\n\n            calldatacopy(ptr, data.offset, data.length)\n            success := staticcall(gas(), target, ptr, data.length, 0x0, 0x20)\n            success := and(success, eq(returndatasize(), 32))\n            if success {\n                res := mload(0)\n            }\n        }\n    }\n}\n\n/// @title A helper contract to manage nonce with the series\ncontract SeriesEpochManager {\n    error AdvanceEpochFailed();\n    event EpochIncreased(address indexed maker, uint256 series, uint256 newEpoch);\n\n    // {\n    //    1: {\n    //        '0x762f73Ad...842Ffa8': 0,\n    //        '0xd20c41ee...32aaDe2': 1\n    //    },\n    //    2: {\n    //        '0x762f73Ad...842Ffa8': 3,\n    //        '0xd20c41ee...32aaDe2': 15\n    //    },\n    //    ...\n    // }\n    mapping(uint256 seriesId => uint256 epoch) private _epochs;\n\n    /// @notice Returns nonce for `maker` and `series`\n    function epoch(address maker, uint96 series) public view returns(uint256) {\n        return _epochs[uint160(maker) | (uint256(series) << 160)];\n    }\n\n    /// @notice Advances nonce by one\n    function increaseEpoch(uint96 series) external {\n        advanceEpoch(series, 1);\n    }\n\n    /// @notice Advances nonce by specified amount\n    function advanceEpoch(uint96 series, uint256 amount) public {\n        if (amount == 0 || amount > 255) revert AdvanceEpochFailed();\n        unchecked {\n            uint256 key = uint160(msg.sender) | (uint256(series) << 160);\n            uint256 newEpoch = _epochs[key] + amount;\n            _epochs[key] = newEpoch;\n            emit EpochIncreased(msg.sender, series, newEpoch);\n        }\n    }\n\n    /// @notice Checks if `maker` has specified `makerEpoch` for `series`\n    /// @return Result True if `maker` has specified epoch. Otherwise, false\n    function epochEquals(address maker, uint256 series, uint256 makerEpoch) public view returns(bool) {\n        return _epochs[uint160(maker) | (uint256(series) << 160)] == makerEpoch;\n    }\n}\n\n\n/**\n * @title Interface for interactor which acts after `maker -> taker` transfer but before `taker -> maker` transfer.\n * @notice The order filling steps are `preInteraction` =>` Transfer \"maker -> taker\"` => **`Interaction`** => `Transfer \"taker -> maker\"` => `postInteraction`\n */\ninterface ITakerInteraction {\n    /**\n     * @dev This callback allows to interactively handle maker aseets to produce takers assets, doesn't supports ETH as taker assets\n     * @notice Callback method that gets called after maker fund transfer but before taker fund transfer\n     * @param order Order being processed\n     * @param extension Order extension data\n     * @param orderHash Hash of the order being processed\n     * @param taker Taker address\n     * @param makingAmount Actual making amount\n     * @param takingAmount Actual taking amount\n     * @param remainingMakingAmount Order remaining making amount\n     * @param extraData Extra data\n     */\n    function takerInteraction(\n        IOrderMixin.Order calldata order,\n        bytes calldata extension,\n        bytes32 orderHash,\n        address taker,\n        uint256 makingAmount,\n        uint256 takingAmount,\n        uint256 remainingMakingAmount,\n        bytes calldata extraData\n    ) external;\n}\n\ninterface IPreInteraction {\n    /**\n     * @notice Callback method that gets called before any funds transfers\n     * @param order Order being processed\n     * @param extension Order extension data\n     * @param orderHash Hash of the order being processed\n     * @param taker Taker address\n     * @param makingAmount Actual making amount\n     * @param takingAmount Actual taking amount\n     * @param remainingMakingAmount Order remaining making amount\n     * @param extraData Extra data\n     */\n    function preInteraction(\n        IOrderMixin.Order calldata order,\n        bytes calldata extension,\n        bytes32 orderHash,\n        address taker,\n        uint256 makingAmount,\n        uint256 takingAmount,\n        uint256 remainingMakingAmount,\n        bytes calldata extraData\n    ) external;\n}\n\n\ninterface IPostInteraction {\n    /**\n     * @notice Callback method that gets called after all fund transfers\n     * @param order Order being processed\n     * @param extension Order extension data\n     * @param orderHash Hash of the order being processed\n     * @param taker Taker address\n     * @param makingAmount Actual making amount\n     * @param takingAmount Actual taking amount\n     * @param remainingMakingAmount Order remaining making amount\n     * @param extraData Extra data\n     */\n    function postInteraction(\n        IOrderMixin.Order calldata order,\n        bytes calldata extension,\n        bytes32 orderHash,\n        address taker,\n        uint256 makingAmount,\n        uint256 takingAmount,\n        uint256 remainingMakingAmount,\n        bytes calldata extraData\n    ) external;\n}\n\n\nlibrary Errors {\n    error InvalidMsgValue();\n    error ETHTransferFailed();\n}\n\n\n\ntype TakerTraits is uint256;\n\n/**\n * @title TakerTraitsLib\n * @notice This library to manage and check TakerTraits, which are used to encode the taker's preferences for an order in a single uint256.\n * @dev The TakerTraits are structured as follows:\n * High bits are used for flags\n * 255 bit `_MAKER_AMOUNT_FLAG`           - If set, the taking amount is calculated based on making amount, otherwise making amount is calculated based on taking amount.\n * 254 bit `_UNWRAP_WETH_FLAG`            - If set, the WETH will be unwrapped into ETH before sending to taker.\n * 253 bit `_SKIP_ORDER_PERMIT_FLAG`      - If set, the order skips maker's permit execution.\n * 252 bit `_USE_PERMIT2_FLAG`            - If set, the order uses the permit2 function for authorization.\n * 251 bit `_ARGS_HAS_TARGET`             - If set, then first 20 bytes of args are treated as target address for makers funds transfer.\n * 224-247 bits `ARGS_EXTENSION_LENGTH`   - The length of the extension calldata in the args.\n * 200-223 bits `ARGS_INTERACTION_LENGTH` - The length of the interaction calldata in the args.\n * 0-184 bits                             - The threshold amount (the maximum amount a taker agrees to give in exchange for a making amount).\n */\nlibrary TakerTraitsLib {\n    uint256 private constant _MAKER_AMOUNT_FLAG = 1 << 255;\n    uint256 private constant _UNWRAP_WETH_FLAG = 1 << 254;\n    uint256 private constant _SKIP_ORDER_PERMIT_FLAG = 1 << 253;\n    uint256 private constant _USE_PERMIT2_FLAG = 1 << 252;\n    uint256 private constant _ARGS_HAS_TARGET = 1 << 251;\n\n    uint256 private constant _ARGS_EXTENSION_LENGTH_OFFSET = 224;\n    uint256 private constant _ARGS_EXTENSION_LENGTH_MASK = 0xffffff;\n    uint256 private constant _ARGS_INTERACTION_LENGTH_OFFSET = 200;\n    uint256 private constant _ARGS_INTERACTION_LENGTH_MASK = 0xffffff;\n\n    uint256 private constant _AMOUNT_MASK = 0x000000000000000000ffffffffffffffffffffffffffffffffffffffffffffff;\n\n    /**\n     * @notice Checks if the args should contain target address.\n     * @param takerTraits The traits of the taker.\n     * @return result A boolean indicating whether the args should contain target address.\n     */\n    function argsHasTarget(TakerTraits takerTraits) internal pure returns (bool) {\n        return (TakerTraits.unwrap(takerTraits) & _ARGS_HAS_TARGET) != 0;\n    }\n\n    /**\n     * @notice Retrieves the length of the extension calldata from the takerTraits.\n     * @param takerTraits The traits of the taker.\n     * @return result The length of the extension calldata encoded in the takerTraits.\n     */\n    function argsExtensionLength(TakerTraits takerTraits) internal pure returns (uint256) {\n        return (TakerTraits.unwrap(takerTraits) >> _ARGS_EXTENSION_LENGTH_OFFSET) & _ARGS_EXTENSION_LENGTH_MASK;\n    }\n\n    /**\n     * @notice Retrieves the length of the interaction calldata from the takerTraits.\n     * @param takerTraits The traits of the taker.\n     * @return result The length of the interaction calldata encoded in the takerTraits.\n     */\n    function argsInteractionLength(TakerTraits takerTraits) internal pure returns (uint256) {\n        return (TakerTraits.unwrap(takerTraits) >> _ARGS_INTERACTION_LENGTH_OFFSET) & _ARGS_INTERACTION_LENGTH_MASK;\n    }\n\n    /**\n     * @notice Checks if the taking amount should be calculated based on making amount.\n     * @param takerTraits The traits of the taker.\n     * @return result A boolean indicating whether the taking amount should be calculated based on making amount.\n     */\n    function isMakingAmount(TakerTraits takerTraits) internal pure returns (bool) {\n        return (TakerTraits.unwrap(takerTraits) & _MAKER_AMOUNT_FLAG) != 0;\n    }\n\n    /**\n     * @notice Checks if the order should unwrap WETH and send ETH to taker.\n     * @param takerTraits The traits of the taker.\n     * @return result A boolean indicating whether the order should unwrap WETH.\n     */\n    function unwrapWeth(TakerTraits takerTraits) internal pure returns (bool) {\n        return (TakerTraits.unwrap(takerTraits) & _UNWRAP_WETH_FLAG) != 0;\n    }\n\n    /**\n     * @notice Checks if the order should skip maker's permit execution.\n     * @param takerTraits The traits of the taker.\n     * @return result A boolean indicating whether the order don't apply permit.\n     */\n    function skipMakerPermit(TakerTraits takerTraits) internal pure returns (bool) {\n        return (TakerTraits.unwrap(takerTraits) & _SKIP_ORDER_PERMIT_FLAG) != 0;\n    }\n\n    /**\n     * @notice Checks if the order uses the permit2 instead of permit.\n     * @param takerTraits The traits of the taker.\n     * @return result A boolean indicating whether the order uses the permit2.\n     */\n    function usePermit2(TakerTraits takerTraits) internal pure returns (bool) {\n        return (TakerTraits.unwrap(takerTraits) & _USE_PERMIT2_FLAG) != 0;\n    }\n\n    /**\n     * @notice Retrieves the threshold amount from the takerTraits.\n     * The maximum amount a taker agrees to give in exchange for a making amount.\n     * @param takerTraits The traits of the taker.\n     * @return result The threshold amount encoded in the takerTraits.\n     */\n    function threshold(TakerTraits takerTraits) internal pure returns (uint256) {\n        return TakerTraits.unwrap(takerTraits) & _AMOUNT_MASK;\n    }\n}\n\n\n/**\n * @title BitInvalidatorLib\n * @dev The library provides a mechanism to invalidate objects based on a bit invalidator.\n * The bit invalidator holds a mapping where each key represents a slot number and each value contains an integer.\n * Each bit of the integer represents whether the object with corresponding index is valid or has been invalidated (0 - valid, 1 - invalidated).\n * The nonce given to access or invalidate an entity's state follows this structure:\n * - bits [0..7] represent the object state index in the slot.\n * - bits [8..255] represent the slot number (mapping key).\n */\nlibrary BitInvalidatorLib {\n    /// @dev The error is thrown when an attempt is made to invalidate an already invalidated entity.\n    error BitInvalidatedOrder();\n\n    struct Data {\n        mapping(uint256 slotIndex => uint256 slotData) _raw;\n    }\n\n    /**\n     * @notice Retrieves the validity status of entities in a specific slot.\n     * @dev Each bit in the returned value corresponds to the validity of an entity. 0 for valid, 1 for invalidated.\n     * @param self The data structure.\n     * @param nonce The nonce identifying the slot.\n     * @return result The validity status of entities in the slot as a uint256.\n     */\n    function checkSlot(Data storage self, uint256 nonce) internal view returns(uint256) {\n        uint256 invalidatorSlot = nonce >> 8;\n        return self._raw[invalidatorSlot];\n    }\n\n    /**\n     * @notice Checks the validity of a specific entity and invalidates it if valid.\n     * @dev Throws an error if the entity has already been invalidated.\n     * @param self The data structure.\n     * @param nonce The nonce identifying the slot and the entity.\n     */\n    function checkAndInvalidate(Data storage self, uint256 nonce) internal {\n        uint256 invalidatorSlot = nonce >> 8;\n        uint256 invalidatorBit = 1 << (nonce & 0xff);\n        uint256 invalidator = self._raw[invalidatorSlot];\n        if (invalidator & invalidatorBit == invalidatorBit) revert BitInvalidatedOrder();\n        self._raw[invalidatorSlot] = invalidator | invalidatorBit;\n    }\n\n    /**\n     * @notice Invalidates multiple entities in a single slot.\n     * @dev The entities to be invalidated are identified by setting their corresponding bits to 1 in a mask.\n     * @param self The data structure.\n     * @param nonce The nonce identifying the slot.\n     * @param additionalMask A mask of bits to be invalidated.\n     * @return result Resulting validity status of entities in the slot as a uint256.\n     */\n    function massInvalidate(Data storage self, uint256 nonce, uint256 additionalMask) internal returns(uint256 result) {\n        uint256 invalidatorSlot = nonce >> 8;\n        uint256 invalidatorBits = (1 << (nonce & 0xff)) | additionalMask;\n        result = self._raw[invalidatorSlot] | invalidatorBits;\n        self._raw[invalidatorSlot] = result;\n    }\n}\n\ntype RemainingInvalidator is uint256;\n\n/**\n * @title RemainingInvalidatorLib\n * @notice The library provides a mechanism to invalidate order based on the remaining amount of the order.\n * @dev The remaining amount is used as a nonce to invalidate the order.\n * When order is created, the remaining invalidator is 0.\n * When order is filled, the remaining invalidator is the inverse of the remaining amount.\n */\nlibrary RemainingInvalidatorLib {\n\n    /// @dev The error is thrown when an attempt is made to invalidate an already invalidated entity.\n    error RemainingInvalidatedOrder();\n\n    /**\n     * @notice Checks if an order is new based on the invalidator value.\n     * @param invalidator The remaining invalidator of the order.\n     * @return result Whether the order is new or not.\n     */\n    function isNewOrder(RemainingInvalidator invalidator) internal pure returns(bool) {\n        return RemainingInvalidator.unwrap(invalidator) == 0;\n    }\n\n    /**\n     * @notice Retrieves the remaining amount for an order.\n     * @dev If the order is unknown, a RemainingInvalidatedOrder error is thrown.\n     * @param invalidator The remaining invalidator for the order.\n     * @return result The remaining amount for the order.\n     */\n    function remaining(RemainingInvalidator invalidator) internal pure returns(uint256) {\n        uint256 value = RemainingInvalidator.unwrap(invalidator);\n        if (value == 0) {\n            revert RemainingInvalidatedOrder();\n        }\n        unchecked {\n            return ~value;\n        }\n    }\n\n    /**\n     * @notice Calculates the remaining amount for an order.\n     * @dev If the order is unknown, the order maker amount is returned.\n     * @param invalidator The remaining invalidator for the order.\n     * @param orderMakerAmount The amount to return if the order is new.\n     * @return result The remaining amount for the order.\n     */\n    function remaining(RemainingInvalidator invalidator, uint256 orderMakerAmount) internal pure returns(uint256) {\n        uint256 value = RemainingInvalidator.unwrap(invalidator);\n        if (value == 0) {\n            return orderMakerAmount;\n        }\n        unchecked {\n            return ~value;\n        }\n    }\n\n    /**\n     * @notice Calculates the remaining invalidator of the order.\n     * @param remainingMakingAmount The remaining making amount of the order.\n     * @param makingAmount The making amount of the order.\n     * @return result The remaining invalidator for the order.\n     */\n    function remains(uint256 remainingMakingAmount, uint256 makingAmount) internal pure returns(RemainingInvalidator) {\n        unchecked {\n            return RemainingInvalidator.wrap(~(remainingMakingAmount - makingAmount));\n        }\n    }\n\n    /**\n     * @notice Provides the remaining invalidator for a fully filled order.\n     * @return result The remaining invalidator for a fully filled order.\n     */\n    function fullyFilled() internal pure returns(RemainingInvalidator) {\n        return RemainingInvalidator.wrap(type(uint256).max);\n    }\n}\n\n\n\n\n\ntype MakerTraits is uint256;\n\n/**\n * @title MakerTraitsLib\n * @notice A library to manage and check MakerTraits, which are used to encode the maker's preferences for an order in a single uint256.\n * @dev\n * The MakerTraits type is a uint256 and different parts of the number are used to encode different traits.\n * High bits are used for flags\n * 255 bit `NO_PARTIAL_FILLS_FLAG`          - if set, the order does not allow partial fills\n * 254 bit `ALLOW_MULTIPLE_FILLS_FLAG`      - if set, the order permits multiple fills\n * 253 bit                                  - unused\n * 252 bit `PRE_INTERACTION_CALL_FLAG`      - if set, the order requires pre-interaction call\n * 251 bit `POST_INTERACTION_CALL_FLAG`     - if set, the order requires post-interaction call\n * 250 bit `NEED_CHECK_EPOCH_MANAGER_FLAG`  - if set, the order requires to check the epoch manager\n * 249 bit `HAS_EXTENSION_FLAG`             - if set, the order has extension(s)\n * 248 bit `USE_PERMIT2_FLAG`               - if set, the order uses permit2\n * 247 bit `UNWRAP_WETH_FLAG`               - if set, the order requires to unwrap WETH\n\n * Low 200 bits are used for allowed sender, expiration, nonceOrEpoch, and series\n * uint80 last 10 bytes of allowed sender address (0 if any)\n * uint40 expiration timestamp (0 if none)\n * uint40 nonce or epoch\n * uint40 series\n */\nlibrary MakerTraitsLib {\n    // Low 200 bits are used for allowed sender, expiration, nonceOrEpoch, and series\n    uint256 private constant _ALLOWED_SENDER_MASK = type(uint80).max;\n    uint256 private constant _EXPIRATION_OFFSET = 80;\n    uint256 private constant _EXPIRATION_MASK = type(uint40).max;\n    uint256 private constant _NONCE_OR_EPOCH_OFFSET = 120;\n    uint256 private constant _NONCE_OR_EPOCH_MASK = type(uint40).max;\n    uint256 private constant _SERIES_OFFSET = 160;\n    uint256 private constant _SERIES_MASK = type(uint40).max;\n\n    uint256 private constant _NO_PARTIAL_FILLS_FLAG = 1 << 255;\n    uint256 private constant _ALLOW_MULTIPLE_FILLS_FLAG = 1 << 254;\n    uint256 private constant _PRE_INTERACTION_CALL_FLAG = 1 << 252;\n    uint256 private constant _POST_INTERACTION_CALL_FLAG = 1 << 251;\n    uint256 private constant _NEED_CHECK_EPOCH_MANAGER_FLAG = 1 << 250;\n    uint256 private constant _HAS_EXTENSION_FLAG = 1 << 249;\n    uint256 private constant _USE_PERMIT2_FLAG = 1 << 248;\n    uint256 private constant _UNWRAP_WETH_FLAG = 1 << 247;\n\n    /**\n     * @notice Checks if the order has the extension flag set.\n     * @dev If the `HAS_EXTENSION_FLAG` is set in the makerTraits, then the protocol expects that the order has extension(s).\n     * @param makerTraits The traits of the maker.\n     * @return result A boolean indicating whether the flag is set.\n     */\n    function hasExtension(MakerTraits makerTraits) internal pure returns (bool) {\n        return (MakerTraits.unwrap(makerTraits) & _HAS_EXTENSION_FLAG) != 0;\n    }\n\n    /**\n     * @notice Checks if the maker allows a specific taker to fill the order.\n     * @param makerTraits The traits of the maker.\n     * @param sender The address of the taker to be checked.\n     * @return result A boolean indicating whether the taker is allowed.\n     */\n    function isAllowedSender(MakerTraits makerTraits, address sender) internal pure returns (bool) {\n        uint160 allowedSender = uint160(MakerTraits.unwrap(makerTraits) & _ALLOWED_SENDER_MASK);\n        return allowedSender == 0 || allowedSender == uint160(sender) & _ALLOWED_SENDER_MASK;\n    }\n\n    /**\n     * @notice Returns the expiration time of the order.\n     * @param makerTraits The traits of the maker.\n     * @return result The expiration timestamp of the order.\n     */\n    function getExpirationTime(MakerTraits makerTraits) internal pure returns (uint256) {\n        return (MakerTraits.unwrap(makerTraits) >> _EXPIRATION_OFFSET) & _EXPIRATION_MASK;\n    }\n\n    /**\n     * @notice Checks if the order has expired.\n     * @param makerTraits The traits of the maker.\n     * @return result A boolean indicating whether the order has expired.\n     */\n    function isExpired(MakerTraits makerTraits) internal view returns (bool) {\n        uint256 expiration = getExpirationTime(makerTraits);\n        return expiration != 0 && expiration < block.timestamp;  // solhint-disable-line not-rely-on-time\n    }\n\n    /**\n     * @notice Returns the nonce or epoch of the order.\n     * @param makerTraits The traits of the maker.\n     * @return result The nonce or epoch of the order.\n     */\n    function nonceOrEpoch(MakerTraits makerTraits) internal pure returns (uint256) {\n        return (MakerTraits.unwrap(makerTraits) >> _NONCE_OR_EPOCH_OFFSET) & _NONCE_OR_EPOCH_MASK;\n    }\n\n    /**\n     * @notice Returns the series of the order.\n     * @param makerTraits The traits of the maker.\n     * @return result The series of the order.\n     */\n    function series(MakerTraits makerTraits) internal pure returns (uint256) {\n        return (MakerTraits.unwrap(makerTraits) >> _SERIES_OFFSET) & _SERIES_MASK;\n    }\n\n    /**\n      * @notice Determines if the order allows partial fills.\n      * @dev If the _NO_PARTIAL_FILLS_FLAG is not set in the makerTraits, then the order allows partial fills.\n      * @param makerTraits The traits of the maker, determining their preferences for the order.\n      * @return result A boolean indicating whether the maker allows partial fills.\n      */\n    function allowPartialFills(MakerTraits makerTraits) internal pure returns (bool) {\n        return (MakerTraits.unwrap(makerTraits) & _NO_PARTIAL_FILLS_FLAG) == 0;\n    }\n\n    /**\n     * @notice Checks if the maker needs pre-interaction call.\n     * @param makerTraits The traits of the maker.\n     * @return result A boolean indicating whether the maker needs a pre-interaction call.\n     */\n    function needPreInteractionCall(MakerTraits makerTraits) internal pure returns (bool) {\n        return (MakerTraits.unwrap(makerTraits) & _PRE_INTERACTION_CALL_FLAG) != 0;\n    }\n\n    /**\n     * @notice Checks if the maker needs post-interaction call.\n     * @param makerTraits The traits of the maker.\n     * @return result A boolean indicating whether the maker needs a post-interaction call.\n     */\n    function needPostInteractionCall(MakerTraits makerTraits) internal pure returns (bool) {\n        return (MakerTraits.unwrap(makerTraits) & _POST_INTERACTION_CALL_FLAG) != 0;\n    }\n\n    /**\n      * @notice Determines if the order allows multiple fills.\n      * @dev If the _ALLOW_MULTIPLE_FILLS_FLAG is set in the makerTraits, then the maker allows multiple fills.\n      * @param makerTraits The traits of the maker, determining their preferences for the order.\n      * @return result A boolean indicating whether the maker allows multiple fills.\n      */\n    function allowMultipleFills(MakerTraits makerTraits) internal pure returns (bool) {\n        return (MakerTraits.unwrap(makerTraits) & _ALLOW_MULTIPLE_FILLS_FLAG) != 0;\n    }\n\n    /**\n      * @notice Determines if an order should use the bit invalidator or remaining amount validator.\n      * @dev The bit invalidator can be used if the order does not allow partial or multiple fills.\n      * @param makerTraits The traits of the maker, determining their preferences for the order.\n      * @return result A boolean indicating whether the bit invalidator should be used.\n      * True if the order requires the use of the bit invalidator.\n      */\n    function useBitInvalidator(MakerTraits makerTraits) internal pure returns (bool) {\n        return !allowPartialFills(makerTraits) || !allowMultipleFills(makerTraits);\n    }\n\n    /**\n     * @notice Checks if the maker needs to check the epoch.\n     * @param makerTraits The traits of the maker.\n     * @return result A boolean indicating whether the maker needs to check the epoch manager.\n     */\n    function needCheckEpochManager(MakerTraits makerTraits) internal pure returns (bool) {\n        return (MakerTraits.unwrap(makerTraits) & _NEED_CHECK_EPOCH_MANAGER_FLAG) != 0;\n    }\n\n    /**\n     * @notice Checks if the maker uses permit2.\n     * @param makerTraits The traits of the maker.\n     * @return result A boolean indicating whether the maker uses permit2.\n     */\n    function usePermit2(MakerTraits makerTraits) internal pure returns (bool) {\n        return MakerTraits.unwrap(makerTraits) & _USE_PERMIT2_FLAG != 0;\n    }\n\n    /**\n     * @notice Checks if the maker needs to unwraps WETH.\n     * @param makerTraits The traits of the maker.\n     * @return result A boolean indicating whether the maker needs to unwrap WETH.\n     */\n    function unwrapWeth(MakerTraits makerTraits) internal pure returns (bool) {\n        return MakerTraits.unwrap(makerTraits) & _UNWRAP_WETH_FLAG != 0;\n    }\n}\n\n\ntype Offsets is uint256;\n\n/// @title OffsetsLib\n/// @dev A library for retrieving values by offsets from a concatenated calldata.\nlibrary OffsetsLib {\n\n    /// @dev Error to be thrown when the offset is out of bounds.\n    error OffsetOutOfBounds();\n\n    /**\n     * @notice Retrieves the field value calldata corresponding to the provided field index from the concatenated calldata.\n     * @dev \n     * The function performs the following steps:\n     * 1. Retrieve the start and end of the segment corresponding to the provided index from the offsets array.\n     * 2. Get the value from segment using offset and length calculated based on the start and end of the segment.\n     * 3. Throw `OffsetOutOfBounds` error if the length of the segment is greater than the length of the concatenated data.\n     * @param offsets The offsets encoding the start and end of each segment within the concatenated calldata.\n     * @param concat The concatenated calldata.\n     * @param index The index of the segment to retrieve. The field index 0 corresponds to the lowest bytes of the offsets array.\n     * @return result The calldata from a segment of the concatenated calldata corresponding to the provided index.\n     */\n    function get(Offsets offsets, bytes calldata concat, uint256 index) internal pure returns(bytes calldata result) {\n        bytes4 exception = OffsetOutOfBounds.selector;\n        assembly (\"memory-safe\") {  // solhint-disable-line no-inline-assembly\n            let bitShift := shl(5, index)                                   // bitShift = index * 32\n            let begin := and(0xffffffff, shr(bitShift, shl(32, offsets)))   // begin = offsets[ bitShift : bitShift + 32 ]\n            let end := and(0xffffffff, shr(bitShift, offsets))              // end   = offsets[ bitShift + 32 : bitShift + 64 ]\n            result.offset := add(concat.offset, begin)\n            result.length := sub(end, begin)\n            if gt(end, concat.length) {\n                mstore(0, exception)\n                revert(0, 4)\n            }\n        }\n    }\n}\n\n\n/**\n * @title ExtensionLib\n * @notice Library for retrieving extensions information for the IOrderMixin Interface.\n */\nlibrary ExtensionLib {\n    using AddressLib for Address;\n    using OffsetsLib for Offsets;\n\n    enum DynamicField {\n        MakerAssetSuffix,\n        TakerAssetSuffix,\n        MakingAmountData,\n        TakingAmountData,\n        Predicate,\n        MakerPermit,\n        PreInteractionData,\n        PostInteractionData,\n        CustomData\n    }\n\n    /**\n     * @notice Returns the MakerAssetSuffix from the provided extension calldata.\n     * @param extension The calldata from which the MakerAssetSuffix is to be retrieved.\n     * @return calldata Bytes representing the MakerAssetSuffix.\n     */\n    function makerAssetSuffix(bytes calldata extension) internal pure returns(bytes calldata) {\n        return _get(extension, DynamicField.MakerAssetSuffix);\n    }\n\n    /**\n     * @notice Returns the TakerAssetSuffix from the provided extension calldata.\n     * @param extension The calldata from which the TakerAssetSuffix is to be retrieved.\n     * @return calldata Bytes representing the TakerAssetSuffix.\n     */\n    function takerAssetSuffix(bytes calldata extension) internal pure returns(bytes calldata) {\n        return _get(extension, DynamicField.TakerAssetSuffix);\n    }\n\n    /**\n     * @notice Returns the MakingAmountData from the provided extension calldata.\n     * @param extension The calldata from which the MakingAmountData is to be retrieved.\n     * @return calldata Bytes representing the MakingAmountData.\n     */\n    function makingAmountData(bytes calldata extension) internal pure returns(bytes calldata) {\n        return _get(extension, DynamicField.MakingAmountData);\n    }\n\n    /**\n     * @notice Returns the TakingAmountData from the provided extension calldata.\n     * @param extension The calldata from which the TakingAmountData is to be retrieved.\n     * @return calldata Bytes representing the TakingAmountData.\n     */\n    function takingAmountData(bytes calldata extension) internal pure returns(bytes calldata) {\n        return _get(extension, DynamicField.TakingAmountData);\n    }\n\n    /**\n     * @notice Returns the order's predicate from the provided extension calldata.\n     * @param extension The calldata from which the predicate is to be retrieved.\n     * @return calldata Bytes representing the predicate.\n     */\n    function predicate(bytes calldata extension) internal pure returns(bytes calldata) {\n        return _get(extension, DynamicField.Predicate);\n    }\n\n    /**\n     * @notice Returns the maker's permit from the provided extension calldata.\n     * @param extension The calldata from which the maker's permit is to be retrieved.\n     * @return calldata Bytes representing the maker's permit.\n     */\n    function makerPermit(bytes calldata extension) internal pure returns(bytes calldata) {\n        return _get(extension, DynamicField.MakerPermit);\n    }\n\n\n    /**\n     * @notice Returns the pre-interaction from the provided extension calldata.\n     * @param extension The calldata from which the pre-interaction is to be retrieved.\n     * @return calldata Bytes representing the pre-interaction.\n     */\n    function preInteractionTargetAndData(bytes calldata extension) internal pure returns(bytes calldata) {\n        return _get(extension, DynamicField.PreInteractionData);\n    }\n\n    /**\n     * @notice Returns the post-interaction from the provided extension calldata.\n     * @param extension The calldata from which the post-interaction is to be retrieved.\n     * @return calldata Bytes representing the post-interaction.\n     */\n    function postInteractionTargetAndData(bytes calldata extension) internal pure returns(bytes calldata) {\n        return _get(extension, DynamicField.PostInteractionData);\n    }\n\n    /**\n     * @notice Returns extra suffix data from the provided extension calldata.\n     * @param extension The calldata from which the extra suffix data is to be retrieved.\n     * @return calldata Bytes representing the extra suffix data.\n     */\n    function customData(bytes calldata extension) internal pure returns(bytes calldata) {\n        if (extension.length < 0x20) return msg.data[:0];\n        uint256 offsets = uint256(bytes32(extension));\n        unchecked {\n            return extension[0x20 + (offsets >> 224):];\n        }\n    }\n\n    /**\n     * @notice Retrieves a specific field from the provided extension calldata.\n     * @dev The first 32 bytes of an extension calldata contain offsets to the end of each field within the calldata.\n     * @param extension The calldata from which the field is to be retrieved.\n     * @param field The specific dynamic field to retrieve from the extension.\n     * @return calldata Bytes representing the requested field.\n     */\n    function _get(bytes calldata extension, DynamicField field) private pure returns(bytes calldata) {\n        if (extension.length < 0x20) return msg.data[:0];\n\n        Offsets offsets;\n        bytes calldata concat;\n        assembly (\"memory-safe\") {  // solhint-disable-line no-inline-assembly\n            offsets := calldataload(extension.offset)\n            concat.offset := add(extension.offset, 0x20)\n            concat.length := sub(extension.length, 0x20)\n        }\n\n        return offsets.get(concat, uint256(field));\n    }\n}\n\n/// @title The helper library to calculate linearly taker amount from maker amount and vice versa.\nlibrary AmountCalculatorLib {\n    /// @notice Calculates maker amount\n    /// @return Result Floored maker amount\n    function getMakingAmount(uint256 orderMakerAmount, uint256 orderTakerAmount, uint256 swapTakerAmount) internal pure returns(uint256) {\n        if ((swapTakerAmount | orderMakerAmount) >> 128 == 0) {\n            unchecked {\n                return (swapTakerAmount * orderMakerAmount) / orderTakerAmount;\n            }\n        }\n        return swapTakerAmount * orderMakerAmount / orderTakerAmount;\n    }\n\n    /// @notice Calculates taker amount\n    /// @return Result Ceiled taker amount\n    function getTakingAmount(uint256 orderMakerAmount, uint256 orderTakerAmount, uint256 swapMakerAmount) internal pure returns(uint256) {\n        if ((swapMakerAmount | orderTakerAmount) >> 128 == 0) {\n            unchecked {\n                return (swapMakerAmount * orderTakerAmount + orderMakerAmount - 1) / orderMakerAmount;\n            }\n        }\n        return (swapMakerAmount * orderTakerAmount + orderMakerAmount - 1) / orderMakerAmount;\n    }\n}\n\n/**\n * @title IOrderMixin\n * @notice Interface for order processing logic in the 1inch Limit Order Protocol.\n */\ninterface IOrderMixin {\n    struct Order {\n        uint256 salt;\n        Address maker;\n        Address receiver;\n        Address makerAsset;\n        Address takerAsset;\n        uint256 makingAmount;\n        uint256 takingAmount;\n        MakerTraits makerTraits;\n    }\n\n    error InvalidatedOrder();\n    error TakingAmountExceeded();\n    error PrivateOrder();\n    error BadSignature();\n    error OrderExpired();\n    error WrongSeriesNonce();\n    error SwapWithZeroAmount();\n    error PartialFillNotAllowed();\n    error OrderIsNotSuitableForMassInvalidation();\n    error EpochManagerAndBitInvalidatorsAreIncompatible();\n    error ReentrancyDetected();\n    error PredicateIsNotTrue();\n    error TakingAmountTooHigh();\n    error MakingAmountTooLow();\n    error TransferFromMakerToTakerFailed();\n    error TransferFromTakerToMakerFailed();\n    error MismatchArraysLengths();\n    error InvalidPermit2Transfer();\n    error SimulationResults(bool success, bytes res);\n\n    /**\n     * @notice Emitted when order gets filled\n     * @param orderHash Hash of the order\n     * @param remainingAmount Amount of the maker asset that remains to be filled\n     */\n    event OrderFilled(\n        bytes32 orderHash,\n        uint256 remainingAmount\n    );\n\n    /**\n     * @notice Emitted when order without `useBitInvalidator` gets cancelled\n     * @param orderHash Hash of the order\n     */\n    event OrderCancelled(\n        bytes32 orderHash\n    );\n\n    /**\n     * @notice Emitted when order with `useBitInvalidator` gets cancelled\n     * @param maker Maker address\n     * @param slotIndex Slot index that was updated\n     * @param slotValue New slot value\n     */\n    event BitInvalidatorUpdated(\n        address indexed maker,\n        uint256 slotIndex,\n        uint256 slotValue\n    );\n\n    /**\n     * @notice Delegates execution to custom implementation. Could be used to validate if `transferFrom` works properly\n     * @dev The function always reverts and returns the simulation results in revert data.\n     * @param target Addresses that will be delegated\n     * @param data Data that will be passed to delegatee\n     */\n    function simulate(address target, bytes calldata data) external;\n\n    /**\n     * @notice Cancels order's quote\n     * @param makerTraits Order makerTraits\n     * @param orderHash Hash of the order to cancel\n     */\n    function cancelOrder(MakerTraits makerTraits, bytes32 orderHash) external;\n\n    /**\n     * @notice Cancels orders' quotes\n     * @param makerTraits Orders makerTraits\n     * @param orderHashes Hashes of the orders to cancel\n     */\n    function cancelOrders(MakerTraits[] calldata makerTraits, bytes32[] calldata orderHashes) external;\n\n    /**\n     * @notice Cancels all quotes of the maker (works for bit-invalidating orders only)\n     * @param makerTraits Order makerTraits\n     * @param additionalMask Additional bitmask to invalidate orders\n     */\n    function bitsInvalidateForOrder(MakerTraits makerTraits, uint256 additionalMask) external;\n\n    /**\n     * @notice Fills order's quote, fully or partially (whichever is possible).\n     * @param order Order quote to fill\n     * @param r R component of signature\n     * @param vs VS component of signature\n     * @param amount Taker amount to fill\n     * @param takerTraits Specifies threshold as maximum allowed takingAmount when takingAmount is zero, otherwise specifies\n     * minimum allowed makingAmount. The 2nd (0 based index) highest bit specifies whether taker wants to skip maker's permit.\n     * @return makingAmount Actual amount transferred from maker to taker\n     * @return takingAmount Actual amount transferred from taker to maker\n     * @return orderHash Hash of the filled order\n     */\n    function fillOrder(\n        Order calldata order,\n        bytes32 r,\n        bytes32 vs,\n        uint256 amount,\n        TakerTraits takerTraits\n    ) external payable returns(uint256 makingAmount, uint256 takingAmount, bytes32 orderHash);\n\n    /**\n     * @notice Same as `fillOrder` but allows to specify arguments that are used by the taker.\n     * @param order Order quote to fill\n     * @param r R component of signature\n     * @param vs VS component of signature\n     * @param amount Taker amount to fill\n     * @param takerTraits Specifies threshold as maximum allowed takingAmount when takingAmount is zero, otherwise specifies\n     * minimum allowed makingAmount. The 2nd (0 based index) highest bit specifies whether taker wants to skip maker's permit.\n     * @param args Arguments that are used by the taker (target, extension, interaction, permit)\n     * @return makingAmount Actual amount transferred from maker to taker\n     * @return takingAmount Actual amount transferred from taker to maker\n     * @return orderHash Hash of the filled order\n     */\n    function fillOrderArgs(\n        IOrderMixin.Order calldata order,\n        bytes32 r,\n        bytes32 vs,\n        uint256 amount,\n        TakerTraits takerTraits,\n        bytes calldata args\n    ) external payable returns(uint256 makingAmount, uint256 takingAmount, bytes32 orderHash);\n\n    /**\n     * @notice Same as `fillOrder` but uses contract-based signatures.\n     * @param order Order quote to fill\n     * @param signature Signature to confirm quote ownership\n     * @param amount Taker amount to fill\n     * @param takerTraits Specifies threshold as maximum allowed takingAmount when takingAmount is zero, otherwise specifies\n     * minimum allowed makingAmount. The 2nd (0 based index) highest bit specifies whether taker wants to skip maker's permit.\n     * @return makingAmount Actual amount transferred from maker to taker\n     * @return takingAmount Actual amount transferred from taker to maker\n     * @return orderHash Hash of the filled order\n     * @dev See tests for examples\n     */\n    function fillContractOrder(\n        Order calldata order,\n        bytes calldata signature,\n        uint256 amount,\n        TakerTraits takerTraits\n    ) external returns(uint256 makingAmount, uint256 takingAmount, bytes32 orderHash);\n\n    /**\n     * @notice Same as `fillContractOrder` but allows to specify arguments that are used by the taker.\n     * @param order Order quote to fill\n     * @param signature Signature to confirm quote ownership\n     * @param amount Taker amount to fill\n     * @param takerTraits Specifies threshold as maximum allowed takingAmount when takingAmount is zero, otherwise specifies\n     * minimum allowed makingAmount. The 2nd (0 based index) highest bit specifies whether taker wants to skip maker's permit.\n     * @param args Arguments that are used by the taker (target, extension, interaction, permit)\n     * @return makingAmount Actual amount transferred from maker to taker\n     * @return takingAmount Actual amount transferred from taker to maker\n     * @return orderHash Hash of the filled order\n     * @dev See tests for examples\n     */\n    function fillContractOrderArgs(\n        Order calldata order,\n        bytes calldata signature,\n        uint256 amount,\n        TakerTraits takerTraits,\n        bytes calldata args\n    ) external returns(uint256 makingAmount, uint256 takingAmount, bytes32 orderHash);\n\n    /**\n     * @notice Returns bitmask for double-spend invalidators based on lowest byte of order.info and filled quotes\n     * @param maker Maker address\n     * @param slot Slot number to return bitmask for\n     * @return result Each bit represents whether corresponding was already invalidated\n     */\n    function bitInvalidatorForOrder(address maker, uint256 slot) external view returns(uint256 result);\n\n    /**\n     * @notice Returns bitmask for double-spend invalidators based on lowest byte of order.info and filled quotes\n     * @param orderHash Hash of the order\n     * @return remaining Remaining amount of the order\n     */\n    function remainingInvalidatorForOrder(address maker, bytes32 orderHash) external view returns(uint256 remaining);\n\n    /**\n     * @notice Returns bitmask for double-spend invalidators based on lowest byte of order.info and filled quotes\n     * @param orderHash Hash of the order\n     * @return remainingRaw Inverse of the remaining amount of the order if order was filled at least once, otherwise 0\n     */\n    function rawRemainingInvalidatorForOrder(address maker, bytes32 orderHash) external view returns(uint256 remainingRaw);\n\n    /**\n     * @notice Returns order hash, hashed with limit order protocol contract EIP712\n     * @param order Order\n     * @return orderHash Hash of the order\n     */\n    function hashOrder(IOrderMixin.Order calldata order) external view returns(bytes32 orderHash);\n}\n\n/**\n * @title IAmountGetter\n * @notice Interface for external logic to determine actual making and taking amounts for orders.\n */\ninterface IAmountGetter {\n    /**\n     * @notice View method that gets called to determine the actual making amount\n     * @param order Order being processed\n     * @param extension Order extension data\n     * @param orderHash Hash of the order being processed\n     * @param taker Taker address\n     * @param takingAmount Actual taking amount\n     * @param remainingMakingAmount Order remaining making amount\n     * @param extraData Extra data\n     * @return makingAmount Actual making amount that should be used for the order\n     */\n    function getMakingAmount(\n        IOrderMixin.Order calldata order,\n        bytes calldata extension,\n        bytes32 orderHash,\n        address taker,\n        uint256 takingAmount,\n        uint256 remainingMakingAmount,\n        bytes calldata extraData\n    ) external view returns (uint256);\n\n    /**\n     * @notice View method that gets called to determine the actual taking amount\n     * @param order Order being processed\n     * @param extension Order extension data\n     * @param orderHash Hash of the order being processed\n     * @param taker Taker address\n     * @param makingAmount Actual taking amount\n     * @param remainingMakingAmount Order remaining making amount\n     * @param extraData Extra data\n     * @return takingAmount Actual taking amount that should be used for the order\n     */\n    function getTakingAmount(\n        IOrderMixin.Order calldata order,\n        bytes calldata extension,\n        bytes32 orderHash,\n        address taker,\n        uint256 makingAmount,\n        uint256 remainingMakingAmount,\n        bytes calldata extraData\n    ) external view returns (uint256);\n}\n\n\n/**\n * @title OrderLib\n * @dev The library provides common functionality for processing and manipulating limit orders.\n * It provides functionality to calculate and verify order hashes, calculate trade amounts, and validate\n * extension data associated with orders. The library also contains helper methods to get the receiver of\n * an order and call getter functions.\n */\n library OrderLib {\n    using AddressLib for Address;\n    using MakerTraitsLib for MakerTraits;\n    using ExtensionLib for bytes;\n\n    /// @dev Error to be thrown when the extension data of an order is missing.\n    error MissingOrderExtension();\n    /// @dev Error to be thrown when the order has an unexpected extension.\n    error UnexpectedOrderExtension();\n    /// @dev Error to be thrown when the order extension hash is invalid.\n    error InvalidExtensionHash();\n\n    /// @dev The typehash of the order struct.\n    bytes32 constant internal _LIMIT_ORDER_TYPEHASH = keccak256(\n        \"Order(\"\n            \"uint256 salt,\"\n            \"address maker,\"\n            \"address receiver,\"\n            \"address makerAsset,\"\n            \"address takerAsset,\"\n            \"uint256 makingAmount,\"\n            \"uint256 takingAmount,\"\n            \"uint256 makerTraits\"\n        \")\"\n    );\n    uint256 constant internal _ORDER_STRUCT_SIZE = 0x100;\n    uint256 constant internal _DATA_HASH_SIZE = 0x120;\n\n    /**\n      * @notice Calculates the hash of an order.\n      * @param order The order to be hashed.\n      * @param domainSeparator The domain separator to be used for the EIP-712 hashing.\n      * @return result The keccak256 hash of the order data.\n      */\n    function hash(IOrderMixin.Order calldata order, bytes32 domainSeparator) internal pure returns(bytes32 result) {\n        bytes32 typehash = _LIMIT_ORDER_TYPEHASH;\n        assembly (\"memory-safe\") { // solhint-disable-line no-inline-assembly\n            let ptr := mload(0x40)\n\n            // keccak256(abi.encode(_LIMIT_ORDER_TYPEHASH, order));\n            mstore(ptr, typehash)\n            calldatacopy(add(ptr, 0x20), order, _ORDER_STRUCT_SIZE)\n            result := keccak256(ptr, _DATA_HASH_SIZE)\n        }\n        result = ECDSA.toTypedDataHash(domainSeparator, result);\n    }\n\n    /**\n      * @notice Returns the receiver address for an order.\n      * @param order The order.\n      * @return receiver The address of the receiver, either explicitly defined in the order or the maker's address if not specified.\n      */\n    function getReceiver(IOrderMixin.Order calldata order) internal pure returns(address /*receiver*/) {\n        address receiver = order.receiver.get();\n        return receiver != address(0) ? receiver : order.maker.get();\n    }\n\n    /**\n      * @notice Calculates the making amount based on the requested taking amount.\n      * @dev If getter is specified in the extension data, the getter is called to calculate the making amount,\n      * otherwise the making amount is calculated linearly.\n      * @param order The order.\n      * @param extension The extension data associated with the order.\n      * @param requestedTakingAmount The amount the taker wants to take.\n      * @param remainingMakingAmount The remaining amount of the asset left to fill.\n      * @param orderHash The hash of the order.\n      * @return makingAmount The amount of the asset the maker receives.\n      */\n    function calculateMakingAmount(\n        IOrderMixin.Order calldata order,\n        bytes calldata extension,\n        uint256 requestedTakingAmount,\n        uint256 remainingMakingAmount,\n        bytes32 orderHash\n    ) internal view returns(uint256) {\n        bytes calldata data = extension.makingAmountData();\n        if (data.length == 0) {\n            // Linear proportion\n            return AmountCalculatorLib.getMakingAmount(order.makingAmount, order.takingAmount, requestedTakingAmount);\n        }\n        return IAmountGetter(address(bytes20(data))).getMakingAmount(\n            order,\n            extension,\n            orderHash,\n            msg.sender,\n            requestedTakingAmount,\n            remainingMakingAmount,\n            data[20:]\n        );\n    }\n\n    /**\n      * @notice Calculates the taking amount based on the requested making amount.\n      * @dev If getter is specified in the extension data, the getter is called to calculate the taking amount,\n      * otherwise the taking amount is calculated linearly.\n      * @param order The order.\n      * @param extension The extension data associated with the order.\n      * @param requestedMakingAmount The amount the maker wants to receive.\n      * @param remainingMakingAmount The remaining amount of the asset left to be filled.\n      * @param orderHash The hash of the order.\n      * @return takingAmount The amount of the asset the taker takes.\n      */\n    function calculateTakingAmount(\n        IOrderMixin.Order calldata order,\n        bytes calldata extension,\n        uint256 requestedMakingAmount,\n        uint256 remainingMakingAmount,\n        bytes32 orderHash\n    ) internal view returns(uint256) {\n        bytes calldata data = extension.takingAmountData();\n        if (data.length == 0) {\n            // Linear proportion\n            return AmountCalculatorLib.getTakingAmount(order.makingAmount, order.takingAmount, requestedMakingAmount);\n        }\n        return IAmountGetter(address(bytes20(data))).getTakingAmount(\n            order,\n            extension,\n            orderHash,\n            msg.sender,\n            requestedMakingAmount,\n            remainingMakingAmount,\n            data[20:]\n        );\n    }\n\n    /**\n      * @dev Validates the extension associated with an order.\n      * @param order The order to validate against.\n      * @param extension The extension associated with the order.\n      * @return valid True if the extension is valid, false otherwise.\n      * @return errorSelector The error selector if the extension is invalid, 0x00000000 otherwise.\n      */\n    function isValidExtension(IOrderMixin.Order calldata order, bytes calldata extension) internal pure returns(bool, bytes4) {\n        if (order.makerTraits.hasExtension()) {\n            if (extension.length == 0) return (false, MissingOrderExtension.selector);\n            // Lowest 160 bits of the order salt must be equal to the lowest 160 bits of the extension hash\n            if (uint256(keccak256(extension)) & type(uint160).max != order.salt & type(uint160).max) return (false, InvalidExtensionHash.selector);\n        } else {\n            if (extension.length > 0) return (false, UnexpectedOrderExtension.selector);\n        }\n        return (true, 0x00000000);\n    }\n}\n\n\n/// @title Limit Order mixin\nabstract contract OrderMixin is IOrderMixin, EIP712, PredicateHelper, SeriesEpochManager, Pausable, OnlyWethReceiver, PermitAndCall {\n    using SafeERC20 for IERC20;\n    using SafeERC20 for IWETH;\n    using OrderLib for IOrderMixin.Order;\n    using ExtensionLib for bytes;\n    using AddressLib for Address;\n    using MakerTraitsLib for MakerTraits;\n    using TakerTraitsLib for TakerTraits;\n    using BitInvalidatorLib for BitInvalidatorLib.Data;\n    using RemainingInvalidatorLib for RemainingInvalidator;\n\n    IWETH private immutable _WETH;\n    mapping(address maker => BitInvalidatorLib.Data data) private _bitInvalidator;\n    mapping(address maker => mapping(bytes32 orderHash => RemainingInvalidator remaining)) private _remainingInvalidator;\n\n    constructor(IWETH weth) OnlyWethReceiver(address(weth)) {\n        _WETH = weth;\n    }\n\n    /**\n     * @notice See {IOrderMixin-bitInvalidatorForOrder}.\n     */\n    function bitInvalidatorForOrder(address maker, uint256 slot) external view returns(uint256 /* result */) {\n        return _bitInvalidator[maker].checkSlot(slot);\n    }\n\n    /**\n     * @notice See {IOrderMixin-remainingInvalidatorForOrder}.\n     */\n    function remainingInvalidatorForOrder(address maker, bytes32 orderHash) external view returns(uint256 /* remaining */) {\n        return _remainingInvalidator[maker][orderHash].remaining();\n    }\n\n    /**\n     * @notice See {IOrderMixin-rawRemainingInvalidatorForOrder}.\n     */\n    function rawRemainingInvalidatorForOrder(address maker, bytes32 orderHash) external view returns(uint256 /* remainingRaw */) {\n        return RemainingInvalidator.unwrap(_remainingInvalidator[maker][orderHash]);\n    }\n\n    /**\n     * @notice See {IOrderMixin-simulate}.\n     */\n    function simulate(address target, bytes calldata data) external {\n        // solhint-disable-next-line avoid-low-level-calls\n        (bool success, bytes memory result) = target.delegatecall(data);\n        revert SimulationResults(success, result);\n    }\n\n    /**\n     * @notice See {IOrderMixin-cancelOrder}.\n     */\n    function cancelOrder(MakerTraits makerTraits, bytes32 orderHash) public {\n        if (makerTraits.useBitInvalidator()) {\n            uint256 invalidator = _bitInvalidator[msg.sender].massInvalidate(makerTraits.nonceOrEpoch(), 0);\n            emit BitInvalidatorUpdated(msg.sender, makerTraits.nonceOrEpoch() >> 8, invalidator);\n        } else {\n            _remainingInvalidator[msg.sender][orderHash] = RemainingInvalidatorLib.fullyFilled();\n            emit OrderCancelled(orderHash);\n        }\n    }\n\n    /**\n     * @notice See {IOrderMixin-cancelOrders}.\n     */\n    function cancelOrders(MakerTraits[] calldata makerTraits, bytes32[] calldata orderHashes) external {\n        if (makerTraits.length != orderHashes.length) revert MismatchArraysLengths();\n        unchecked {\n            for (uint256 i = 0; i < makerTraits.length; i++) {\n                cancelOrder(makerTraits[i], orderHashes[i]);\n            }\n        }\n    }\n\n    /**\n     * @notice See {IOrderMixin-bitsInvalidateForOrder}.\n     */\n    function bitsInvalidateForOrder(MakerTraits makerTraits, uint256 additionalMask) external {\n        if (!makerTraits.useBitInvalidator()) revert OrderIsNotSuitableForMassInvalidation();\n        uint256 invalidator = _bitInvalidator[msg.sender].massInvalidate(makerTraits.nonceOrEpoch(), additionalMask);\n        emit BitInvalidatorUpdated(msg.sender, makerTraits.nonceOrEpoch() >> 8, invalidator);\n    }\n\n     /**\n     * @notice See {IOrderMixin-hashOrder}.\n     */\n    function hashOrder(IOrderMixin.Order calldata order) external view returns(bytes32) {\n        return order.hash(_domainSeparatorV4());\n    }\n\n    /**\n     * @notice See {IOrderMixin-checkPredicate}.\n     */\n    function checkPredicate(bytes calldata predicate) public view returns(bool) {\n        (bool success, uint256 res) = _staticcallForUint(address(this), predicate);\n        return success && res == 1;\n    }\n\n    /**\n     * @notice See {IOrderMixin-fillOrder}.\n     */\n    function fillOrder(\n        IOrderMixin.Order calldata order,\n        bytes32 r,\n        bytes32 vs,\n        uint256 amount,\n        TakerTraits takerTraits\n    ) external payable returns(uint256 /* makingAmount */, uint256 /* takingAmount */, bytes32 /* orderHash */) {\n        return _fillOrder(order, r, vs, amount, takerTraits, msg.sender, msg.data[:0], msg.data[:0]);\n    }\n\n    /**\n     * @notice See {IOrderMixin-fillOrderArgs}.\n     */\n    function fillOrderArgs(\n        IOrderMixin.Order calldata order,\n        bytes32 r,\n        bytes32 vs,\n        uint256 amount,\n        TakerTraits takerTraits,\n        bytes calldata args\n    ) external payable returns(uint256 /* makingAmount */, uint256 /* takingAmount */, bytes32 /* orderHash */) {\n        (\n            address target,\n            bytes calldata extension,\n            bytes calldata interaction\n        ) = _parseArgs(takerTraits, args);\n\n        return _fillOrder(order, r, vs, amount, takerTraits, target, extension, interaction);\n    }\n\n    function _fillOrder(\n        IOrderMixin.Order calldata order,\n        bytes32 r,\n        bytes32 vs,\n        uint256 amount,\n        TakerTraits takerTraits,\n        address target,\n        bytes calldata extension,\n        bytes calldata interaction\n    ) private returns(uint256 makingAmount, uint256 takingAmount, bytes32 orderHash) {\n        // Check signature and apply order/maker permit only on the first fill\n        orderHash = order.hash(_domainSeparatorV4());\n        uint256 remainingMakingAmount = _checkRemainingMakingAmount(order, orderHash);\n        if (remainingMakingAmount == order.makingAmount) {\n            address maker = order.maker.get();\n            if (maker == address(0) || maker != ECDSA.recover(orderHash, r, vs)) revert BadSignature();\n            if (!takerTraits.skipMakerPermit()) {\n                bytes calldata makerPermit = extension.makerPermit();\n                if (makerPermit.length >= 20) {\n                    // proceed only if taker is willing to execute permit and its length is enough to store address\n                    IERC20(address(bytes20(makerPermit))).tryPermit(maker, address(this), makerPermit[20:]);\n                    if (!order.makerTraits.useBitInvalidator()) {\n                        // Bit orders are not subjects for reentrancy, but we still need to check remaining-based orders for reentrancy\n                        if (!_remainingInvalidator[order.maker.get()][orderHash].isNewOrder()) revert ReentrancyDetected();\n                    }\n                }\n            }\n        }\n\n        (makingAmount, takingAmount) = _fill(order, orderHash, remainingMakingAmount, amount, takerTraits, target, extension, interaction);\n    }\n\n    /**\n     * @notice See {IOrderMixin-fillContractOrder}.\n     */\n    function fillContractOrder(\n        IOrderMixin.Order calldata order,\n        bytes calldata signature,\n        uint256 amount,\n        TakerTraits takerTraits\n    ) external returns(uint256 /* makingAmount */, uint256 /* takingAmount */, bytes32 /* orderHash */) {\n        return _fillContractOrder(order, signature, amount, takerTraits, msg.sender, msg.data[:0], msg.data[:0]);\n    }\n\n    /**\n     * @notice See {IOrderMixin-fillContractOrderArgs}.\n     */\n    function fillContractOrderArgs(\n        IOrderMixin.Order calldata order,\n        bytes calldata signature,\n        uint256 amount,\n        TakerTraits takerTraits,\n        bytes calldata args\n    ) external returns(uint256 /* makingAmount */, uint256 /* takingAmount */, bytes32 /* orderHash */) {\n        (\n            address target,\n            bytes calldata extension,\n            bytes calldata interaction\n        ) = _parseArgs(takerTraits, args);\n\n        return _fillContractOrder(order, signature, amount, takerTraits, target, extension, interaction);\n    }\n\n    function _fillContractOrder(\n        IOrderMixin.Order calldata order,\n        bytes calldata signature,\n        uint256 amount,\n        TakerTraits takerTraits,\n        address target,\n        bytes calldata extension,\n        bytes calldata interaction\n    ) private returns(uint256 makingAmount, uint256 takingAmount, bytes32 orderHash) {\n        // Check signature only on the first fill\n        orderHash = order.hash(_domainSeparatorV4());\n        uint256 remainingMakingAmount = _checkRemainingMakingAmount(order, orderHash);\n        if (remainingMakingAmount == order.makingAmount) {\n            if (!ECDSA.isValidSignature(order.maker.get(), orderHash, signature)) revert BadSignature();\n        }\n\n        (makingAmount, takingAmount) = _fill(order, orderHash, remainingMakingAmount, amount, takerTraits, target, extension, interaction);\n    }\n\n    /**\n      * @notice Fills an order and transfers making amount to a specified target.\n      * @dev If the target is zero assigns it the caller's address.\n      * The function flow is as follows:\n      * 1. Validate order\n      * 2. Call maker pre-interaction\n      * 3. Transfer maker asset to taker\n      * 4. Call taker interaction\n      * 5. Transfer taker asset to maker\n      * 5. Call maker post-interaction\n      * 6. Emit OrderFilled event\n      * @param order The order details.\n      * @param orderHash The hash of the order.\n      * @param extension The extension calldata of the order.\n      * @param remainingMakingAmount The remaining amount to be filled.\n      * @param amount The order amount.\n      * @param takerTraits The taker preferences for the order.\n      * @param target The address to which the order is filled.\n      * @param interaction The interaction calldata.\n      * @return makingAmount The computed amount that the maker will send.\n      * @return takingAmount The computed amount that the taker will send.\n      */\n    function _fill(\n        IOrderMixin.Order calldata order,\n        bytes32 orderHash,\n        uint256 remainingMakingAmount,\n        uint256 amount,\n        TakerTraits takerTraits,\n        address target,\n        bytes calldata extension,\n        bytes calldata interaction\n    ) private whenNotPaused() returns(uint256 makingAmount, uint256 takingAmount) {\n        // Validate order\n        {\n            (bool valid, bytes4 validationResult) = order.isValidExtension(extension);\n            if (!valid) {\n                // solhint-disable-next-line no-inline-assembly\n                assembly (\"memory-safe\") {\n                    mstore(0, validationResult)\n                    revert(0, 4)\n                }\n            }\n        }\n        if (!order.makerTraits.isAllowedSender(msg.sender)) revert PrivateOrder();\n        if (order.makerTraits.isExpired()) revert OrderExpired();\n        if (order.makerTraits.needCheckEpochManager()) {\n            if (order.makerTraits.useBitInvalidator()) revert EpochManagerAndBitInvalidatorsAreIncompatible();\n            if (!epochEquals(order.maker.get(), order.makerTraits.series(), order.makerTraits.nonceOrEpoch())) revert WrongSeriesNonce();\n        }\n\n        // Check if orders predicate allows filling\n        if (extension.length > 0) {\n            bytes calldata predicate = extension.predicate();\n            if (predicate.length > 0) {\n                if (!checkPredicate(predicate)) revert PredicateIsNotTrue();\n            }\n        }\n\n        // Compute maker and taker assets amount\n        if (takerTraits.isMakingAmount()) {\n            makingAmount = Math.min(amount, remainingMakingAmount);\n            takingAmount = order.calculateTakingAmount(extension, makingAmount, remainingMakingAmount, orderHash);\n\n            uint256 threshold = takerTraits.threshold();\n            if (threshold > 0) {\n                // Check rate: takingAmount / makingAmount <= threshold / amount\n                if (amount == makingAmount) {  // Gas optimization, no SafeMath.mul()\n                    if (takingAmount > threshold) revert TakingAmountTooHigh();\n                } else {\n                    if (takingAmount * amount > threshold * makingAmount) revert TakingAmountTooHigh();\n                }\n            }\n        }\n        else {\n            takingAmount = amount;\n            makingAmount = order.calculateMakingAmount(extension, takingAmount, remainingMakingAmount, orderHash);\n            if (makingAmount > remainingMakingAmount) {\n                // Try to decrease taking amount because computed making amount exceeds remaining amount\n                makingAmount = remainingMakingAmount;\n                takingAmount = order.calculateTakingAmount(extension, makingAmount, remainingMakingAmount, orderHash);\n                if (takingAmount > amount) revert TakingAmountExceeded();\n            }\n\n            uint256 threshold = takerTraits.threshold();\n            if (threshold > 0) {\n                // Check rate: makingAmount / takingAmount >= threshold / amount\n                if (amount == takingAmount) { // Gas optimization, no SafeMath.mul()\n                    if (makingAmount < threshold) revert MakingAmountTooLow();\n                } else {\n                    if (makingAmount * amount < threshold * takingAmount) revert MakingAmountTooLow();\n                }\n            }\n        }\n        if (!order.makerTraits.allowPartialFills() && makingAmount != order.makingAmount) revert PartialFillNotAllowed();\n        unchecked { if (makingAmount * takingAmount == 0) revert SwapWithZeroAmount(); }\n\n        // Invalidate order depending on makerTraits\n        if (order.makerTraits.useBitInvalidator()) {\n            _bitInvalidator[order.maker.get()].checkAndInvalidate(order.makerTraits.nonceOrEpoch());\n        } else {\n            _remainingInvalidator[order.maker.get()][orderHash] = RemainingInvalidatorLib.remains(remainingMakingAmount, makingAmount);\n        }\n\n        // Pre interaction, where maker can prepare funds interactively\n        if (order.makerTraits.needPreInteractionCall()) {\n            bytes calldata data = extension.preInteractionTargetAndData();\n            address listener = order.maker.get();\n            if (data.length > 19) {\n                listener = address(bytes20(data));\n                data = data[20:];\n            }\n            IPreInteraction(listener).preInteraction(\n                order, extension, orderHash, msg.sender, makingAmount, takingAmount, remainingMakingAmount, data\n            );\n        }\n\n        // Maker => Taker\n        {\n            bool needUnwrap = order.makerAsset.get() == address(_WETH) && takerTraits.unwrapWeth();\n            address receiver = needUnwrap ? address(this) : target;\n            if (order.makerTraits.usePermit2()) {\n                if (extension.makerAssetSuffix().length > 0) revert InvalidPermit2Transfer();\n                IERC20(order.makerAsset.get()).safeTransferFromPermit2(order.maker.get(), receiver, makingAmount);\n            } else {\n                if (!_callTransferFromWithSuffix(\n                    order.makerAsset.get(),\n                    order.maker.get(),\n                    receiver,\n                    makingAmount,\n                    extension.makerAssetSuffix()\n                )) revert TransferFromMakerToTakerFailed();\n            }\n            if (needUnwrap) {\n                _WETH.safeWithdrawTo(makingAmount, target);\n            }\n        }\n\n        if (interaction.length > 19) {\n            // proceed only if interaction length is enough to store address\n            ITakerInteraction(address(bytes20(interaction))).takerInteraction(\n                order, extension, orderHash, msg.sender, makingAmount, takingAmount, remainingMakingAmount, interaction[20:]\n            );\n        }\n\n        // Taker => Maker\n        if (order.takerAsset.get() == address(_WETH) && msg.value > 0) {\n            if (msg.value < takingAmount) revert Errors.InvalidMsgValue();\n            if (msg.value > takingAmount) {\n                unchecked {\n                    // solhint-disable-next-line avoid-low-level-calls\n                    (bool success, ) = msg.sender.call{value: msg.value - takingAmount}(\"\");\n                    if (!success) revert Errors.ETHTransferFailed();\n                }\n            }\n\n            if (order.makerTraits.unwrapWeth()) {\n                // solhint-disable-next-line avoid-low-level-calls\n                (bool success, ) = order.getReceiver().call{value: takingAmount}(\"\");\n                if (!success) revert Errors.ETHTransferFailed();\n            } else {\n                _WETH.safeDeposit(takingAmount);\n                _WETH.safeTransfer(order.getReceiver(), takingAmount);\n            }\n        } else {\n            if (msg.value != 0) revert Errors.InvalidMsgValue();\n\n            bool needUnwrap = order.takerAsset.get() == address(_WETH) && order.makerTraits.unwrapWeth();\n            address receiver = needUnwrap ? address(this) : order.getReceiver();\n            if (takerTraits.usePermit2()) {\n                if (extension.takerAssetSuffix().length > 0) revert InvalidPermit2Transfer();\n                IERC20(order.takerAsset.get()).safeTransferFromPermit2(msg.sender, receiver, takingAmount);\n            } else {\n                if (!_callTransferFromWithSuffix(\n                    order.takerAsset.get(),\n                    msg.sender,\n                    receiver,\n                    takingAmount,\n                    extension.takerAssetSuffix()\n                )) revert TransferFromTakerToMakerFailed();\n            }\n\n            if (needUnwrap) {\n                _WETH.safeWithdrawTo(takingAmount, order.getReceiver());\n            }\n        }\n\n        // Post interaction, where maker can handle funds interactively\n        if (order.makerTraits.needPostInteractionCall()) {\n            bytes calldata data = extension.postInteractionTargetAndData();\n            address listener = order.maker.get();\n            if (data.length > 19) {\n                listener = address(bytes20(data));\n                data = data[20:];\n            }\n            IPostInteraction(listener).postInteraction(\n                order, extension, orderHash, msg.sender, makingAmount, takingAmount, remainingMakingAmount, data\n            );\n        }\n\n        emit OrderFilled(orderHash, remainingMakingAmount - makingAmount);\n    }\n\n    /**\n      * @notice Processes the taker interaction arguments.\n      * @param takerTraits The taker preferences for the order.\n      * @param args The taker interaction arguments.\n      * @return target The address to which the order is filled.\n      * @return extension The extension calldata of the order.\n      * @return interaction The interaction calldata.\n      */\n    function _parseArgs(TakerTraits takerTraits, bytes calldata args)\n        private\n        view\n        returns(\n            address target,\n            bytes calldata extension,\n            bytes calldata interaction\n        )\n    {\n        if (takerTraits.argsHasTarget()) {\n            target = address(bytes20(args));\n            args = args[20:];\n        } else {\n            target = msg.sender;\n        }\n\n        uint256 extensionLength = takerTraits.argsExtensionLength();\n        if (extensionLength > 0) {\n            extension = args[:extensionLength];\n            args = args[extensionLength:];\n        } else {\n            extension = msg.data[:0];\n        }\n\n        uint256 interactionLength = takerTraits.argsInteractionLength();\n        if (interactionLength > 0) {\n            interaction = args[:interactionLength];\n        } else {\n            interaction = msg.data[:0];\n        }\n    }\n\n    /**\n      * @notice Checks the remaining making amount for the order.\n      * @dev If the order has been invalidated, the function will revert.\n      * @param order The order to check.\n      * @param orderHash The hash of the order.\n      * @return remainingMakingAmount The remaining amount of the order.\n      */\n    function _checkRemainingMakingAmount(IOrderMixin.Order calldata order, bytes32 orderHash) private view returns(uint256 remainingMakingAmount) {\n        if (order.makerTraits.useBitInvalidator()) {\n            remainingMakingAmount = order.makingAmount;\n        } else {\n            remainingMakingAmount = _remainingInvalidator[order.maker.get()][orderHash].remaining(order.makingAmount);\n        }\n        if (remainingMakingAmount == 0) revert InvalidatedOrder();\n    }\n\n    /**\n      * @notice Calls the transferFrom function with an arbitrary suffix.\n      * @dev The suffix is appended to the end of the standard ERC20 transferFrom function parameters.\n      * @param asset The token to be transferred.\n      * @param from The address to transfer the token from.\n      * @param to The address to transfer the token to.\n      * @param amount The amount of the token to transfer.\n      * @param suffix The suffix (additional data) to append to the end of the transferFrom call.\n      * @return success A boolean indicating whether the transfer was successful.\n      */\n    function _callTransferFromWithSuffix(address asset, address from, address to, uint256 amount, bytes calldata suffix) private returns(bool success) {\n        bytes4 selector = IERC20.transferFrom.selector;\n        assembly (\"memory-safe\") { // solhint-disable-line no-inline-assembly\n            let data := mload(0x40)\n            mstore(data, selector)\n            mstore(add(data, 0x04), from)\n            mstore(add(data, 0x24), to)\n            mstore(add(data, 0x44), amount)\n            if suffix.length {\n                calldatacopy(add(data, 0x64), suffix.offset, suffix.length)\n            }\n            let status := call(gas(), asset, 0, data, add(0x64, suffix.length), 0x0, 0x20)\n            success := and(status, or(iszero(returndatasize()), and(gt(returndatasize(), 31), eq(mload(0), 1))))\n        }\n    }\n}\n\n/**\n * @title ##1inch Limit Order Protocol v4\n * @notice Limit order protocol provides two different order types\n * - Regular Limit Order\n * - RFQ Order\n *\n * Both types provide similar order-fulfilling functionality. The difference is that regular order offers more customization options and features, while RFQ order is extremely gas efficient but without ability to customize.\n *\n * Regular limit order additionally supports\n * - Execution predicates. Conditions for order execution are set with predicates. For example, expiration timestamp or block number, price for stop loss or take profit strategies.\n * - Callbacks to notify maker on order execution\n *\n * See [OrderMixin](OrderMixin.md) for more details.\n *\n * RFQ orders supports\n * - Expiration time\n * - Cancelation by order id\n * - Partial Fill (only once)\n *\n * See [OrderMixin](OrderMixin.md) for more details.\n */\ncontract LimitOrderProtocol is\n    EIP712(\"1inch Limit Order Protocol\", \"4\"),\n    Ownable,\n    Pausable,\n    OrderMixin\n{\n    // solhint-disable-next-line no-empty-blocks\n    constructor(IWETH _weth) OrderMixin(_weth) Ownable(msg.sender) {}\n\n    /// @dev Returns the domain separator for the current chain (EIP-712)\n    // solhint-disable-next-line func-name-mixedcase\n    function DOMAIN_SEPARATOR() external view returns(bytes32) {\n        return _domainSeparatorV4();\n    }\n\n    /**\n     * @notice Pauses all the trading functionality in the contract.\n     */\n    function pause() external onlyOwner {\n        _pause();\n    }\n\n    /**\n     * @notice Unpauses all the trading functionality in the contract.\n     */\n    function unpause() external onlyOwner {\n        _unpause();\n    }\n}\n\n",
  "sourcePath": "/home/monty-sharma/Documents/Exodia/order-book-contracts/contracts/LimitOrderProtocol.sol",
  "compiler": {
    "name": "solc",
    "version": "0.8.23+commit.f704f362.Emscripten.clang"
  },
  "schemaVersion": "3.4.16",
  "updatedAt": "2025-08-22T16:41:11.151Z",
  "networkType": "ethereum",
  "devdoc": {
    "errors": {
      "BitInvalidatedOrder()": [
        {
          "details": "The error is thrown when an attempt is made to invalidate an already invalidated entity."
        }
      ],
      "EnforcedPause()": [
        {
          "details": "The operation failed because the contract is paused."
        }
      ],
      "EthDepositRejected()": [
        {
          "details": "Error thrown when an ETH deposit from an EOA is attempted."
        }
      ],
      "ExpectedPause()": [
        {
          "details": "The operation failed because the contract is not paused."
        }
      ],
      "OwnableInvalidOwner(address)": [
        {
          "details": "The owner is not a valid owner account. (eg. `address(0)`)"
        }
      ],
      "OwnableUnauthorizedAccount(address)": [
        {
          "details": "The caller account is not authorized to perform an operation."
        }
      ],
      "RemainingInvalidatedOrder()": [
        {
          "details": "The error is thrown when an attempt is made to invalidate an already invalidated entity."
        }
      ]
    },
    "events": {
      "BitInvalidatorUpdated(address,uint256,uint256)": {
        "params": {
          "maker": "Maker address",
          "slotIndex": "Slot index that was updated",
          "slotValue": "New slot value"
        }
      },
      "EIP712DomainChanged()": {
        "details": "MAY be emitted to signal that the domain could have changed."
      },
      "OrderCancelled(bytes32)": {
        "params": {
          "orderHash": "Hash of the order"
        }
      },
      "OrderFilled(bytes32,uint256)": {
        "params": {
          "orderHash": "Hash of the order",
          "remainingAmount": "Amount of the maker asset that remains to be filled"
        }
      },
      "Paused(address)": {
        "details": "Emitted when the pause is triggered by `account`."
      },
      "Unpaused(address)": {
        "details": "Emitted when the pause is lifted by `account`."
      }
    },
    "kind": "dev",
    "methods": {
      "DOMAIN_SEPARATOR()": {
        "details": "Returns the domain separator for the current chain (EIP-712)"
      },
      "and(uint256,bytes)": {
        "returns": {
          "_0": "Result True if calls to all targets returned True. Otherwise, false"
        }
      },
      "arbitraryStaticCall(address,bytes)": {
        "returns": {
          "_0": "Result Bytes transmuted to uint256"
        }
      },
      "eip712Domain()": {
        "details": "returns the fields and values that describe the domain separator used by this contract for EIP-712 signature."
      },
      "epochEquals(address,uint256,uint256)": {
        "returns": {
          "_0": "Result True if `maker` has specified epoch. Otherwise, false"
        }
      },
      "eq(uint256,bytes)": {
        "params": {
          "value": "Value to test"
        },
        "returns": {
          "_0": "Result True if call to target returns the same value as `value`. Otherwise, false"
        }
      },
      "gt(uint256,bytes)": {
        "params": {
          "value": "Value to test"
        },
        "returns": {
          "_0": "Result True if call to target returns value which is bigger than `value`. Otherwise, false"
        }
      },
      "lt(uint256,bytes)": {
        "params": {
          "value": "Value to test"
        },
        "returns": {
          "_0": "Result True if call to target returns value which is lower than `value`. Otherwise, false"
        }
      },
      "not(bytes)": {
        "returns": {
          "_0": "Result True if call to target returns 0. Otherwise, false"
        }
      },
      "or(uint256,bytes)": {
        "returns": {
          "_0": "Result True if call to any target returned True. Otherwise, false"
        }
      },
      "owner()": {
        "details": "Returns the address of the current owner."
      },
      "paused()": {
        "details": "Returns true if the contract is paused, and false otherwise."
      },
      "permitAndCall(bytes,bytes)": {
        "params": {
          "action": "The data representing the action to be executed after the permit.",
          "permit": "ERC20 token address (20 bytes) concatenated with the permit data, allowing this contract to spend the token. Format: [token address (20 bytes)][permit data]"
        }
      },
      "renounceOwnership()": {
        "details": "Leaves the contract without owner. It will not be possible to call `onlyOwner` functions. Can only be called by the current owner. NOTE: Renouncing ownership will leave the contract without an owner, thereby disabling any functionality that is only available to the owner."
      },
      "transferOwnership(address)": {
        "details": "Transfers ownership of the contract to a new account (`newOwner`). Can only be called by the current owner."
      }
    },
    "title": "##1inch Limit Order Protocol v4",
    "version": 1
  },
  "userdoc": {
    "events": {
      "BitInvalidatorUpdated(address,uint256,uint256)": {
        "notice": "Emitted when order with `useBitInvalidator` gets cancelled"
      },
      "OrderCancelled(bytes32)": {
        "notice": "Emitted when order without `useBitInvalidator` gets cancelled"
      },
      "OrderFilled(bytes32,uint256)": {
        "notice": "Emitted when order gets filled"
      }
    },
    "kind": "user",
    "methods": {
      "advanceEpoch(uint96,uint256)": {
        "notice": "Advances nonce by specified amount"
      },
      "and(uint256,bytes)": {
        "notice": "Calls every target with corresponding data"
      },
      "arbitraryStaticCall(address,bytes)": {
        "notice": "Performs an arbitrary call to target with data"
      },
      "bitInvalidatorForOrder(address,uint256)": {
        "notice": "See {IOrderMixin-bitInvalidatorForOrder}."
      },
      "bitsInvalidateForOrder(uint256,uint256)": {
        "notice": "See {IOrderMixin-bitsInvalidateForOrder}."
      },
      "cancelOrder(uint256,bytes32)": {
        "notice": "See {IOrderMixin-cancelOrder}."
      },
      "cancelOrders(uint256[],bytes32[])": {
        "notice": "See {IOrderMixin-cancelOrders}."
      },
      "checkPredicate(bytes)": {
        "notice": "See {IOrderMixin-checkPredicate}."
      },
      "epoch(address,uint96)": {
        "notice": "Returns nonce for `maker` and `series`"
      },
      "epochEquals(address,uint256,uint256)": {
        "notice": "Checks if `maker` has specified `makerEpoch` for `series`"
      },
      "eq(uint256,bytes)": {
        "notice": "Calls target with specified data and tests if it's equal to the value"
      },
      "fillContractOrder((uint256,uint256,uint256,uint256,uint256,uint256,uint256,uint256),bytes,uint256,uint256)": {
        "notice": "See {IOrderMixin-fillContractOrder}."
      },
      "fillContractOrderArgs((uint256,uint256,uint256,uint256,uint256,uint256,uint256,uint256),bytes,uint256,uint256,bytes)": {
        "notice": "See {IOrderMixin-fillContractOrderArgs}."
      },
      "fillOrder((uint256,uint256,uint256,uint256,uint256,uint256,uint256,uint256),bytes32,bytes32,uint256,uint256)": {
        "notice": "See {IOrderMixin-fillOrder}."
      },
      "fillOrderArgs((uint256,uint256,uint256,uint256,uint256,uint256,uint256,uint256),bytes32,bytes32,uint256,uint256,bytes)": {
        "notice": "See {IOrderMixin-fillOrderArgs}."
      },
      "gt(uint256,bytes)": {
        "notice": "Calls target with specified data and tests if it's bigger than value"
      },
      "hashOrder((uint256,uint256,uint256,uint256,uint256,uint256,uint256,uint256))": {
        "notice": "See {IOrderMixin-hashOrder}."
      },
      "increaseEpoch(uint96)": {
        "notice": "Advances nonce by one"
      },
      "lt(uint256,bytes)": {
        "notice": "Calls target with specified data and tests if it's lower than value"
      },
      "not(bytes)": {
        "notice": "Calls target with specified data and tests if it's equal to 0"
      },
      "or(uint256,bytes)": {
        "notice": "Calls every target with corresponding data"
      },
      "pause()": {
        "notice": "Pauses all the trading functionality in the contract."
      },
      "permitAndCall(bytes,bytes)": {
        "notice": "Executes a permit for an ERC20 token and then a specified action in a single transaction."
      },
      "rawRemainingInvalidatorForOrder(address,bytes32)": {
        "notice": "See {IOrderMixin-rawRemainingInvalidatorForOrder}."
      },
      "remainingInvalidatorForOrder(address,bytes32)": {
        "notice": "See {IOrderMixin-remainingInvalidatorForOrder}."
      },
      "simulate(address,bytes)": {
        "notice": "See {IOrderMixin-simulate}."
      },
      "unpause()": {
        "notice": "Unpauses all the trading functionality in the contract."
      }
    },
    "notice": "Limit order protocol provides two different order types - Regular Limit Order - RFQ Order Both types provide similar order-fulfilling functionality. The difference is that regular order offers more customization options and features, while RFQ order is extremely gas efficient but without ability to customize. Regular limit order additionally supports - Execution predicates. Conditions for order execution are set with predicates. For example, expiration timestamp or block number, price for stop loss or take profit strategies. - Callbacks to notify maker on order execution See [OrderMixin](OrderMixin.md) for more details. RFQ orders supports - Expiration time - Cancelation by order id - Partial Fill (only once) See [OrderMixin](OrderMixin.md) for more details.",
    "version": 1
  }
}